:020000040800F2
:10000000A03300200101000809010008CB0100080D
:100010000D0100080F010008110100080000000098
:1000200000000000000000000000000013010008B4
:100030001501000800000000530100080513000826
:100040001B0100081B0100081B0100081B01000820
:100050001B0100081B0100081B0100081B01000810
:100060001B0100081B0100081B0100081B01000800
:100070001B0100081B0100081B0100081B010008F0
:100080001B0100081B010008E90200081B01000811
:10009000791600081B0100081B0100081B0100085D
:1000A0001B0100081B0100081B0100081B010008C0
:1000B0001B0100081B0100081B0100081B010008B0
:1000C0001B0100081B0100081B0100081B010008A0
:1000D0001B0100081B0100081B0100081B01000890
:1000E0001B0100081B0100081B010008DFF80CD0F1
:1000F00000F0C4F800480047DF020008A0330020E9
:100100000648804706480047FEE7FEE7FEE7FEE7B1
:10011000FEE7FEE7FEE7FEE7FEE7FEE795130008D1
:10012000ED000008EFF3108072B6704780F310887E
:100130007047334A1368012B04D04FF0010313605A
:10014000304A1060304A116030484FF080510160F1
:100150007047EFF3108272B62948016891B14FF0F1
:10016000000101602748016829B1EFF3098121E905
:10017000F00F00680160244909680968B1E8F00FD0
:1001800081F3098882F310884EF0040E70471E49EF
:1001900008601C494FF00000086019494FF0010049
:1001A00008601B484FF47F01D0F8002041EA0201AB
:1001B000016016484FF080510160164800680068E1
:1001C00080F3088861B662B670471EF0040F0CBF5A
:1001D000EFF30880EFF3098020E9F00F40F804ED19
:1001E0001EF0040F0CBF80F3088880F3098800B567
:1001F00002F012F85DF804EB4EF0040E70470000B8
:1002000060000020580000205C00002004ED00E0A9
:1002100020ED00E008ED00E02DE9F05F054600204C
:1002200092469B4688460646814640241BE0284667
:1002300041464746224600F042F853465A46C01A05
:10024000914110D311461846224600F029F82D1A84
:1002500067EB01084F4622460120002100F020F8FC
:1002600017EB00094E41201EA4F10104DFDC4846D3
:1002700031462A464346BDE8F09F0000064C074D34
:1002800006E0E06840F0010394E807009847103466
:10029000AC42F6D3FFF72EFFD8350008F83500083A
:1002A000202A04DB203A00FA02F100207047914036
:1002B000C2F1200320FA03F3194390407047202A2B
:1002C00004DB203A21FA02F00021704721FA02F300
:1002D000D040C2F12002914008431946704710B542
:1002E00003F0AAF8002010BD70B502F0ADF80A4D79
:1002F0004FF408742146284600F08AF820B12846B9
:1003000000F083F8054A10802146284600F008F8DE
:10031000BDE8704002F0A6B8002401402A00002089
:10032000090AC94301607047002904D0816841F07F
:10033000010181607047816821F00101816070478F
:100340002DE9F04104460D46294F01213846FFF7BB
:10035000EBFF284EAA20F07200F046FE307300201A
:100360007073A4F13C004FF49971884202D228685E
:1003700005192CE0A4F5B770B0F5A47F02D8686821
:10038000051924E0A4F2B720B0F59F7F02D8A86831
:1003900005191CE0A4F2F630B0F5A17F02D2E8689E
:1003A000051914E0A4F5A760B0F59A7F02D2286978
:1003B00005190CE0A4F26C60884202D26869051944
:1003C00005E040F29E70844201DBA8690519280A05
:1003D000B073F5730749D02000F097FC0549064833
:1003E00000F0E2FC3846BDE8F0410021FFF79CBF79
:1003F00000240140F8000020006400400146002075
:100400008968490700D501207047C06C80B27047E9
:1004100010B5024600200B0A5468C9B20C4011689E
:10042000194202D0002C00D0012010BD014600204E
:100430008968090700D501207047C9B2002A03D096
:1004400042680A434260704742688A43426070478C
:1004500010B542680E4B1A400C790B6842EA042230
:100460001343436082680B4B1A40D1E90243234394
:100470004C7942EA440213438360C26A22F4700258
:10048000097C491EC9B242EA0151C16210BD000097
:10049000FFFEF0FFFDF7F1FF08B512208DF8000018
:1004A00001208DF801008DF802008DF803006846E8
:1004B00000F0A6FD08BD70B5072609290AD9C56850
:1004C000A1F10A0404EB4404A640B543A3401D4334
:1004D000C56007E0056901EB4104A640B543A340B0
:1004E0001D4305611F23072A09D2446B521E02EBEC
:1004F000820293409C4391400C43446370BD0D2A9B
:1005000009D2046BD21F02EB820293409C439140BC
:100510000C43046370BDC46A0D3A02EB820293403F
:100520009C4391400C43C46270BD816841F0080156
:1005300081607047002904D0816841F4A001816086
:100540007047816821F4A00181607047816841F0A3
:1005500004018160704700004FF0FF35064C04E055
:1005600000F00CF8012002F060FB2946206802F040
:10057000F8F90028F6D1F3E72400002010B505486B
:100580004188002000F092F8BDE810400249FFF7D2
:10059000D7BE0000280000202001002008B501215E
:1005A000042000F0CBFD8020ADF8000000208DF885
:1005B00003006946014800F05EFC08BD00080140E8
:1005C00010B5FFF7EBFF00F005F8BDE81040FFF7AE
:1005D00063BF000010B586B00121480200F0AEFDF7
:1005E000002001908DF8080001218DF809104FF4CA
:1005F0006022039204908DF81410194C01A9204632
:10060000FFF726FF4FF4404000F072FD0523012262
:1006100007212046FFF74FFF01224FF408712046C3
:10062000FFF70BFF01212046FFF77EFE2046FFF774
:100630007CFF2046FFF7FAFE0028FAD12046FFF79C
:1006400085FF2046FFF7DAFE0028FAD10121204677
:10065000FFF770FF00212046FFF766FE06B010BDD1
:100660000024014008B50121082000F067FD80202A
:10067000ADF8000048208DF803006946014800F0FD
:10068000FAFB08BD000C0140FFF7ECBF10B500F00D
:1006900005FF00F0A7FE00F0B5FD03480068BDE8C7
:1006A000104002F0C5BA00000000002070B58DB007
:1006B00000206D4645F82010401CC0B20D28F9D32B
:1006C00000210020C1F10C060BE0421C55F820402F
:1006D00055F822309C4203DD45F8203045F8224091
:1006E000D0B28642F1DC491CC9B20C29E9D3069884
:1006F0000DB070BD70B501213248FFF715FE3248CC
:100700003249334C007B334D96282AD005DC58B152
:10071000322812D064284BD119E0C8282BD0FA28EF
:1007200033D0FF2844D13AE049880020FFF7BEFFCC
:100730003C3820600020E8723AE049880020FFF74A
:10074000B5FFA0F5B77060603220E87230E04988EC
:100750000020FFF7ABFFA0F2B720A0606420E87292
:1007600026E049880020FFF7A1FFA0F2F630E06004
:100770009620E8721CE049880020FFF797FFA0F55B
:10078000A7602061C820E87212E049880020FFF7C6
:100790008DFFA0F26C606061FA20E87208E0498881
:1007A0000020FFF783FFA0F29E70A061FF20E87297
:1007B0000849D12000F0A9FABDE870400549064873
:1007C00000F0F2BA002401400C01002028000020B3
:1007D00020010020F80000200064004030B508230C
:1007E00010240422B1F5007F33D011DC20292AD057
:1007F00007DC012922D0042923D0082900D1C460B4
:1008000030BD402921D0B1F5807FF9D1426030BDA3
:100810000025B1F5004F20D008DCB1F5806F1AD06B
:10082000B1F5006FF3D18561426030BDB1F5803F15
:100830000DD0B1F5003FF8D1446030BD084981606A
:1008400030BDC36030BD036130BD046130BD436065
:1008500030BD426030BD426030BD8561426030BD18
:100860000101010010B500F0B7F800F0F9F900F04F
:10087000C9F9BDE8104000F087B8000010B50C4978
:1008800088420AD101214C06204600F049FC20464E
:10089000BDE81040002100F043BC01218C06204639
:1008A00000F03EFC2046BDE81040002100F038BCBE
:1008B00000640040F0B5827A01219140304C2268FA
:1008C00042F0010222602E4D1C352A688A432A60BC
:1008D0002B4A067B0C322B4B002E14D116688E430C
:1008E00016604688C78846EA0746877A03EBC7073B
:1008F000C7F840660688878846EA0746877A03EB8A
:10090000C707C7F84466067B012E14D116680E434C
:1009100016604288068842EA0642867A03EBC606DB
:10092000C6F84026C288868842EA0642867A03EBE9
:10093000C603C3F84426124AC37A121D3BB113689A
:100940000B4313600E4A0389143223B106E0136887
:100950008B431360F6E713688B4313600389012B05
:1009600002D113680B431360407B012802D1286831
:1009700008432860206820F001002060F0BD0000DE
:1009800000660040006000401FB500208DF80A009E
:1009900001218DF80B108DF80C004FF41872ADF892
:1009A00000204FF42072ADF802204FF42872ADF809
:1009B00004204FF43072ADF80620ADF808008DF831
:1009C0000D106846FFF776FF01220221014800F072
:1009D0008DF81FBD0064004038B50121092000F0EA
:1009E000ADFB01214FF4EA1000F098FA4FF40070CB
:1009F000ADF8000018208DF80300084C6946204629
:100A000000F039FAA115ADF8001048218DF8031057
:100A10006946204600F02FFA38BD0000000C014066
:100A20000246002053690B425DD0B1F5807F4AD069
:100A300016DC082937D009DC01292CD002292ED058
:100A4000042950D1D068082100F009BA10292ED00D
:100A5000202930D0402946D11069102100F0FFB97B
:100A6000B1F5004F3BD00CDCB1F5007F2FD0B1F5D4
:100A7000806F30D0B1F5006F35D19069702100F0F2
:100A8000EEB9B1F5803F1AD0B1F5003F2BD15068D7
:100A9000102100F0E4B99068134900F0E0B9D06883
:100AA000032100F0DCB9D068102100F0D8B910693A
:100AB000032100F0D4B91069082100F0D0B95068C2
:100AC000082100F0CCB99069012100F0C8B9906903
:100AD000022100F0C4B99069042100F0C0B9506847
:100AE000042100F0BCB9704701010100002A03D0C5
:100AF00042690A434261704742698A4342617047D2
:100B000010B50022036823F002030360036843F07A
:100B1000010303604FF6FF7300E0521C4468E407D2
:100B200001D19A42F9D14268D2073ED08A79012A8E
:100B30003DD0026822F080020260CA79012A3BD0CF
:100B4000026822F0400202600A7A012A39D0026863
:100B500022F0200202604A7A012A37D0026822F08D
:100B6000100202608A7A012A35D0026822F0080257
:100B70000260CA7A012A33D0026822F004020260BD
:100B80008A78CC78920742EA04620C7942EA0442FD
:100B90004C79098842EA0452491E0A43C26101683D
:100BA00021F001010160002120E0002010BD026859
:100BB00042F080020260C0E7026842F04002026038
:100BC000C2E7026842F020020260C4E7026842F015
:100BD00010020260C6E7026842F008020260C8E73D
:100BE000026842F004020260CAE7491C4268D20768
:100BF00001D09942F9D14068C00701D0002010BD52
:100C0000012010BD3EB50121480600F07BFA134CCF
:100C10002046FFF733FE684600F07EF800218DF88D
:100C2000061001228DF807208DF808208DF8091094
:100C30008DF80A108DF80B108DF802208DF8032026
:100C400004218DF8041002208DF80500ADF8001085
:100C500069462046FFF754FF3EBD00000064004097
:100C600008B54FF4C06000F0FDF914208DF80000C5
:100C700000208DF801008DF8020001208DF803009E
:100C8000684600F0BDF908BD10B500EB0113D3F8BC
:100C9000B04104F004041472002C2CD0D3F8B041FD
:100CA000E408546003F5D8731C6804F0020454721D
:100CB0005C6804F00F0494725C68240AD4749C6825
:100CC000D4729C68240A14739C68240C54739C6826
:100CD000240E9473DC68D473DC68240A1474DC6812
:100CE000240C5474DB681B0E937449B1016941F004
:100CF0002001016110BDD3F8B041640D1460D1E74B
:100D0000C16841F02001C16010BD08600020087278
:100D1000487208208872704700218171C171017288
:100D200041728172C1728170C1700321017102210F
:100D30004171012101807047044800F045F900F03D
:100D400007F8012001F071FFF9E700000C01002015
:100D500070B5104C207801281BD10F4D0FA02968C9
:100D600000F0C6FCE87AC12806D0C22807D0C32804
:100D700008D0C4280BD108E000F034F907E000F0F7
:100D80007BF904E000F0AEF901E0FFF7B3FC0020CE
:100D9000207070BD040000200C010020CAD5B5BD34
:100DA000C1CB3D25780A000030B50246002093688B
:100DB0005B010AD49068000101D5012005E090682C
:100DC000C00001D5022000E0042004283BD002EB43
:100DD0000012D2F8803103F00103C2F880310B7A9F
:100DE00093B3D2F880414D681C434B7A43EAC50364
:100DF0001C43C2F880418B7A03F00F038B7202F51B
:100E0000C072536823F00F03536053688C7A2343F6
:100E10005360CB7A8C7B0D7B43EA04634C7B2404C8
:100E200044EA052423439360CB7B8C7C43EA046330
:100E30004C7C097C240444EA01210B43D3601168F3
:100E400041F00101116030BDFFE7D2F880314C7AEA
:100E500023430C8843EA4453C2F88031CBE702466F
:100E600000200A4200D00120704700F091F80120D4
:100E700001F0DBFEF9E72DE9F0410022CC7804F027
:100E80000F03E40601D58C7823430C784FF00F074D
:100E900014F0FF0F4FF0010C1CD005680CFA02F49F
:100EA0000E882640A64211D1960007FA06F825EAD8
:100EB000080503FA06F848EA0505CE78282E02D080
:100EC000482E02D002E0446100E00461521C082A6E
:100ED000E4D305600A88FF2A1ED94568002202F182
:100EE00008060CFA06F40E882640A64210D1960099
:100EF00007FA06F825EA080503FA06F848EA0505A0
:100F0000CE78282E00D14461CE78482E00D10461DD
:100F1000521C082AE3D34560BDE8F081F0B5154CBA
:100F2000002801DAE36900E06368C0F30346420D7C
:100F3000120185B2C0F301579540032F07D0C202BA
:100F40000CD50322B240934343F0706209E023F0D2
:100F50007062636823F07063636002E0AB4343F048
:100F6000706201B12A43002801DAE261F0BD6260DB
:100F7000F0BD0000000001400246002092680A42D5
:100F800000D0012070474161704701617047000047
:100F900010B500F029F8044A107800F0A1F8507854
:100FA000BDE8104000F09CB828000020054C4FF030
:100FB000FF352946206801F0D4FC012001F035FE00
:100FC000F7E70000200000200021002202604260BC
:100FD00002728272C2744318DA72491CC9B20829BB
:100FE000F9D370477047000010B580210348FFF720
:100FF000C3FF08B1012010BD002010BD000C01404E
:1010000070B50F23C27801260178002A1ED0144A39
:10101000126802F4E062C2F5E062120AC2F104044E
:10102000D3404578A54082781A402A43120101F145
:10103000E02181F80024007800F01F018E40400973
:10104000800000F1E020C0F8006170BD01F01F00D9
:1010500086404809800000F1E020C0F8806170BD42
:101060000CED00E0024908430249086070470000A7
:101070000000FA050CED00E0174B00221748197B21
:10108000002910D0012911D0022912D0032913D030
:101090000270597B99B1012914D0022915D0032976
:1010A00016D04270704711210170F2E712210170D1
:1010B000EFE713210170ECE714210170E9E7152136
:1010C0004170704716214170704717214170704779
:1010D00018214170704700000C01002028000020FA
:1010E0001138704701490020C87270470C01002078
:1010F000034A516821F440410143516070470000A8
:1011000000100240054A002903D0D1690143D16192
:101110007047D1698143D1617047000000100240DF
:10112000054A002903D01169014311617047116913
:10113000814311617047000000100240054A0029F8
:1011400003D0916901439161704791698143916135
:10115000704700000010024010B5264A516801F0A7
:101160000C01254B002927D0042927D0082927D096
:101170000360516801F0F0010909204B5C5C0168D3
:10118000E1404160546804F4E064240A1C5D21FAE3
:1011900004F48460546804F46054E40A1B5DD9408C
:1011A000C160526802F44042920B144B1B1F9A5CC0
:1011B000B1FBF2F1016110BD0360DAE70360D8E72B
:1011C000516801F47011536803F48033022404EB76
:1011D000914133B153689B0307D5094B59430160D3
:1011E000C7E7074B59430160C3E7034B594301600D
:1011F000BFE700000010024000127A00300000201B
:1012000000093D0010B50022012106A001F068FB95
:10121000064C20600022022105A001F061FB606005
:1012200010BD000073726D3100000000200000202E
:10123000426C6F6F645F50726573737572655F4364
:10124000616C6962726174696F6E5F53656D0000F5
:10125000AFF300800CB5002201920092274801688C
:1012600041F4803101604FF4A063016801F4003162
:1012700000910199491C0191009911B90199994274
:10128000F3D10168890302D50121009100E00092A9
:101290000099012930D11A490A6842F010020A6007
:1012A0000A6822F003020A600A6842F002020A6039
:1012B0004168416041684160416841F4806141603A
:1012C000416821F47C114160416841F4E8114160BA
:1012D000016841F08071016001688901FCD54168B5
:1012E00021F003014160416841F002014160416821
:1012F000C1F381010229FAD10CBD000000100240A7
:101300000020024010B501F09FF801F01BFEBDE87F
:10131000104001F0A7B8000010B51A4A506800F05C
:101320000C01194B194800290ED004290ED00829A8
:101330000ED003605168154AC1F30311121D515CB0
:101340000268CA40026010BD0360F3E70360F1E782
:10135000516801F47011536803F48033022404EBE4
:10136000914133B153689B0307D5094B5943016041
:10137000E0E7074B59430160DCE7034B5943016049
:10138000D8E700000010024000127A004000002060
:1013900000093D0010B50F48016841F001010160EE
:1013A00041680D4A1140416001680C4A11400160DA
:1013B000016821F480210160416821F4FE0141604F
:1013C0004FF41F018160FFF743FF05494FF00060B4
:1013D000086010BD001002400000FFF8FFFFF6FE9D
:1013E00008ED00E02DE9FC4114250320CDE90005BE
:1013F0004FF400773B460022164917A001F0EFFB9F
:10140000184C20600226CDE90065730200221649BF
:1014100016A001F0E4FB6060CDE900653B460022C8
:10142000154916A001F0DBFBA06008B101F010FD2A
:10143000CDE900653B460022134914A001F0CFFB23
:10144000E060002803D0BDE8FC4101F001BDBDE82B
:10145000FC810000390D000843414E5F5461736BFD
:101460000000000008000020AD0F00084932435F73
:101470005461736B00000000590500084144435F4C
:101480005461736B000000006B0E000844697370B8
:101490006F73655F5461736B0000000038B50625FB
:1014A0004FF4FA6300220D490DA0009501F0B0FD44
:1014B0000F4C206008B101F0E9FD42F210730022E8
:1014C0000C490DA0009501F0A3FD6060002803D039
:1014D000BDE8384001F0DABD38BD00008D340008A9
:1014E0007377746D72315F63616C6C6261636B0002
:1014F00018000020993400087377746D72325F63AE
:10150000616C6C6261636B00002904D0818941F4D5
:10151000005181817047818921F400518181704798
:1015200010B586B001210420FFF708FE01218803D1
:10153000FFF704FE4FF40070ADF8140018208DF88A
:10154000170003208DF81600144C05A92046FFF75C
:1015500092FC2115ADF8141004218DF8171005A97F
:101560002046FFF788FC4FF4E13001900020ADF8F1
:101570000800ADF80A00ADF80C00ADF810000C2022
:10158000ADF80E00064C01A9204600F013F8012129
:101590002046FFF7B9FF06B010BD0000000801406B
:1015A000003801400246002012880A4200D0012083
:1015B0007047000030B585B004460D46208A4CF6D1
:1015C000FF710840E98801432182A0894EF6F3119A
:1015D0000840A9882A8911436A8902431143A181DD
:1015E000A08A4FF6FF410840A9890143A1826846BD
:1015F000FFF7B2FD1D48844201D1039800E0029834
:10160000A189090408D500EBC00101EB001029688D
:101610004900B0FBF1F007E000EBC00101EB001066
:1016200029688900B0FBF1F06422B0FBF2F10901F6
:101630000B096FF018056B4300EB8300A3891D04B1
:101640004FF0320307D503EBC000B0FBF2F000F01F
:101650000700084306E003EB0010B0FBF2F000F0D7
:101660000F000843208105B030BD00000038014064
:10167000C1F308018180704710B500F0E5FE0F4C02
:1016800002212046FFF7CCF968B10D4A002120461F
:10169000FFF7FAFA0A480B49027A12B9807A082849
:1016A00009D00020087002212046FFF797F8BDE816
:1016B000104000F0D7BE01200870F4E7006400403D
:1016C0000C01002004000020401EB0F1807F01D3F7
:1016D000012070474FF0E0214861044AFF2010705C
:1016E00000208861072008610020704723ED00E09A
:1016F0000FB4054B10B503A9044A029800F046F850
:1017000010BC5DF814FB0000B11C0008F4000020C0
:10171000002807D00F4910F0FF0F05D0C0B2085CB9
:10172000401C70470020704710F47F4F04D0C0F376
:101730000720085C0930704710F47F0F04D0C0F315
:101740000740085C1130704701EB106000781930D9
:1017500070470000A434000802E008C8121F08C146
:10176000002AFAD170477047002001E001C1121F22
:10177000002AFBD17047000003480168814201D074
:101780000120704700207047E00000202DE9FF4F46
:101790008DB00F460546002606E025280BD0DDE972
:1017A0000F1290476D1C761C28780028F5D111B0D7
:1017B0003046BDE8F08F0024A246A1460122EC4944
:1017C00000E0044315F8013F203B02FA03F0084211
:1017D000F7D128782A2810D06FF02F022878A0F1AE
:1017E0003001092914D80AEB8A0102EB410144F0C7
:1017F000020400EB010A6D1CF0E701CF5FEA000A6A
:1018000003D544F40054CAF1000A44F002046D1CEC
:1018100028782E2817D115F8010F44F004042A283F
:101820000ED06FF02F022878A0F1300109290AD8D4
:1018300009EB890102EB410100EB01096D1CF2E7A4
:1018400057F8049B6D1C28786C280FD006DC4C28B8
:1018500017D068280DD06A2814D104E0742810D05D
:101860007A280FD10DE044F400140AE044F4801407
:1018700001E044F440146978814202D104F58014F7
:101880006D1C6D1C2A786E2A1FD00CDC632A31D0A7
:1018900004DC002A8BD0582A11D1A3E0642A68D036
:1018A000692A0CD165E0732A2ED004DC6F2A73D02C
:1018B000702A04D19BE0752A6FD0782A6ED010462A
:1018C000DDE90F129047761C50E1C4F30250022864
:1018D00006D0032809D0042801CF09D0066045E1CD
:1018E00001CFF117C0E9006140E101CF06803DE181
:1018F00006703BE117F8040B8DF8000000208DF80E
:101900000100EB46012003E057F804BB4FF0FF3025
:1019100061074FF0000102D40DE008F10101884693
:1019200049450FDA8045F8DB1BF808100029F4D18F
:1019300008E008F1010188468142FADB1BF8081033
:101940000029F6D1DDE90F23AAEB080081462146E4
:1019500000F036F9304400EB080604E0DDE90F1230
:101960001BF8010B9047B8F10108F7D22146484611
:10197000F7E00A21C4F302534FF0000B0891022B49
:1019800004D001CFC117032B09D00AE0FF1D27F0B7
:101990000707F7E8020108E032E01FE020E000B2AC
:1019A000C117042B01D140B2C117031E71F100030E
:1019B00007DA4FF0000CD0EB0C006CEB01012D238B
:1019C00002E0230504D52B238DF82430012303E006
:1019D000E30701D02023F7E7984658E00A2110E0FA
:1019E00010210EE010204FF0000B08900CE01021A9
:1019F0004FF0000B44F004044FF00809089103E095
:101A000008214FF0000B0891C4F30253022B04D0BD
:101A100001CF0021032B06D006E0FF1D27F00707AA
:101A2000F7E8020103E080B2042B00D1C0B24FF00E
:101A3000000823072BD5702A07D0DDF820C08CF0D2
:101A4000100C5CEA0B0C05D00EE040238DF824301E
:101A5000012308E050EA010306D030238DF824303A
:101A60008DF8252002239846DDF820C08CF0080C64
:101A70005CEA0B0C0BD150EA010301D1630706D5D8
:101A800030238DF824304FF00108A9F10109582ABC
:101A900004D038A20B9208AA0A920BE03AA2F9E706
:101AA0005B46089AFEF7B8FB0B9B9B5C0A9A521E9A
:101AB0000A92137050EA0102F2D10A98ADEB0000CD
:101AC00000F1200B600702D524F4803401E04FF0D0
:101AD0000109D94502DDA9EB0B0000E0002000EB75
:101AE0000B0141440890AAEB010AE00306D4DDE9AA
:101AF0000F232146504600F063F806444FF00009DA
:101B000008E009A911F80900DDE90F12904709F171
:101B10000109761CC145F4DBE0030CD5DDE90F2398
:101B20002146504600F04CF8064404E0DDE90F126F
:101B300030209047761C0899481E08900029F5DC53
:101B400008E00A980A990078491C0A91DDE90F1209
:101B50009047761CBBF10001ABF1010BF1DC214693
:101B60005046DDE90F2300F019F806446D1C1BE612
:101B70000928010030313233343536373839616263
:101B80006364656600000000303132333435363727
:101B90003839414243444546000000002DE9F041F8
:101BA000044600251E461746880404D405E039463D
:101BB0002020B0476D1C641EF9D52846BDE8F08191
:101BC0002DE9F041044600251E469046C80301D584
:101BD000302700E02027880404D505E04146384638
:101BE000B0476D1C641EF9D52846BDE8F0810000A1
:101BF0002DE9FC411F46DDE90A65DDE908310446AF
:101C000004F11400406000601C346260A760E3606F
:101C100021610A462321184600F030FDD4E9030172
:101C20004218D4E90101121F0D4B00F0EFFB2060B8
:101C3000A67666760020E061A562E56260612076A6
:101C4000E06520661C3C009001902346054A214631
:101C500004F14C0001F004FA0020BDE8FC81000012
:101C6000712C0008B92E000810B5029C24F0010464
:101C70004472C161026200218162436200EBC102D1
:101C8000143252601260491C0129F7DB10BD10B5F7
:101C9000002200EBC2011431D1E900436360D1E9B5
:101CA0000034236049600960521C012AF1DB10BD39
:101CB00070B50446064DE1B22846FFF7D9FC8021F5
:101CC0002846FFF76FFC0028F9D0204670BD0000C1
:101CD0000038014008B501210420FFF72FFA062043
:101CE000ADF8000003208DF8020014208DF80300E9
:101CF00069460348FFF7BFF800F062F808BD00002E
:101D00000008014010B50446FFF7E4FF00F03CF87E
:101D1000204600F00DF800F067F8044600F050F897
:101D2000204610BD0020401CC0B20528FBD37047E0
:101D300070B505460024134E280604D5022130460E
:101D4000FFF723F903E002213046FFF71CF9FFF704
:101D5000E9FF04213046FFF718F9FFF7E3FF0421FC
:101D60003046FFF710F9072C03D102213046FFF768
:101D70000CF96806050EFFF7D5FF641CE4B2082CC9
:101D8000DAD370BD0008014010B50C4C022120468A
:101D9000FFF7FBF804212046FFF7F7F8FFF7C2FF33
:101DA00002212046FFF7EFF8FFF7BCFF0421204691
:101DB000FFF7E9F8BDE81040FFF7B4BF00080140A5
:101DC00010B5084C02212046FFF7DDF8042120461B
:101DD000FFF7DBF8FFF7A6FF2046BDE81040022121
:101DE000FFF7D3B80008014070B50E4D0221284618
:101DF000FFF7CBF8FFF796FF04212846FFF7C5F859
:101E0000FFF790FF02212846FFF7B6F808B101243A
:101E100000E0002404212846FFF7B5F8FFF782FF11
:101E2000204670BD000801401CB501211420CDE9F9
:101E300000104B020022054905A000F0D0FE074922
:101E4000086008B101F004F800201CBD8D060008F0
:101E50004170706C69636174696F6E0000000020EE
:101E600010B500F0EDF8BDE81040FFF7DDBF000051
:101E700030B5134C41682268114402F108038842CE
:101E80000DD04D885DB96568A94208D0A5688D421E
:101E900000D1A0604D6845604968851ACD508168C1
:101EA000114481420BD04D88002D08D1A568854290
:101EB00000D1A16044684C604068891AC15030BDAF
:101EC0006C0000202DE9F04F85B00EAC70CCA94617
:101ED0000094740602D5DFF81CB103E0DFF814B1FA
:101EE000ABF1110BF40601D526F00106F40702D080
:101EF0004FF0300A01E04FF0200A0027B4070BD55D
:101F0000002A02DA2D27524206E0740701D52B275A
:101F100002E0340700D5202700240DF1040E7AB921
:101F2000302201248DF804200CE00A2B15D002F099
:101F30000F081209A4461BF80880641C0EF80C80D8
:101F4000002AF2D1AC4200DD2546009A521B16F061
:101F5000110F4FF0200309D016E04FF00A0CB2FB2E
:101F6000FCF80CFB1828B2FBFCF2E3E73FB1002AB7
:101F700005DD521E03E0884200D20370401CB2F11E
:101F8000000CA2F10102F6DC27B1884200D20770F2
:101F9000521E401CF60605D508E0884201D280F8A2
:101FA00000A0401C161EA2F10102F6DC302703E05F
:101FB000884200D20770401C2E466D1EA642F7DCF8
:101FC00005E0884202D21EF804500570401C251E10
:101FD000A4F1010407DDB9F1000FF2D103E088425A
:101FE00000D20370401C141EA2F10102F7DC05B000
:101FF000BDE8F08FB53500081CB502211420CDE9ED
:1020000000100B020022044904A000F0E8FDBDE826
:102010001C4000F01DBF0000611E00086D61696E6C
:102020000000000070B5044C044D02E020688047B9
:10203000241DAC42FAD370BDCC350008D035000861
:1020400070B5044C044D02E020688047241DAC426A
:10205000FAD370BDD0350008D435000810B5FEF7AE
:1020600061F8044A5188491C5180BDE81040FEF7D0
:102070005DB80000D400002010B5FEF753F80B4CFB
:102080006188491E09B2618000290ADC0021618053
:10209000FEF74CF86068002807D0BDE8104000F05B
:1020A0009FBBBDE81040FEF741B810BDD400002032
:1020B00070B5002833D01A4D296888422FD369683B
:1020C00088422CD2A0F10C044FF0FF31154800F0EB
:1020D00048FC60884FF4F55610B12088B04208D013
:1020E00011A000F0FBF923886288214615A000F0BA
:1020F000F5F9002060802680A868844200D2AC6098
:1021000029686068611A401A2969081A28612046FE
:10211000FFF7AEFEBDE87040024800F004BC70BDA1
:102120006C0000203C030020746F206672656520FF
:102130006120626164206461746120626C6F636B12
:102140003A0A00006D656D3A203078253038782CD9
:10215000207573656420666C61673A2025642C20C5
:102160006D6167696320636F64653A20307825305C
:1021700034780A00004870479C03002000487047EC
:102180009C23002010B5FFF7C7F8FFF7C9F9A0207E
:10219000FFF7B8FDFEF766FBFEF712FAFEF774FADA
:1021A000094842F210710068B0FBF1F0FFF78CFAB9
:1021B000FFF738FFFFF7E2FF0446FFF7DBFF21469A
:1021C000BDE8104000F078BC4000002070B5044627
:1021D000FFF744FF0F4D16E00A2809D10D212846CC
:1021E000FFF746FA80212846FFF7DCF90028F9D0EE
:1021F00014F8011B2846FFF73BFA80212846FFF719
:10220000D1F90028F9D020780028E5D1BDE8704048
:10221000FFF732BF0038014070B505462C1D2B4832
:102220000168002903D02846884700284DD028A0FF
:10223000E16B00F053F92AA0216A00F04FF92CA0BD
:10224000616A00F04BF92EA0A16A00F047F930A0B6
:10225000E16A00F043F932A0216800F03FF934A0B0
:10226000616800F03BF936A0A16800F037F938A0AA
:10227000E16800F033F93AA0216900F02FF93CA0A1
:10228000616900F02BF93EA0A16900F027F940A098
:10229000E16900F023F942A0216B00F01FF944A08E
:1022A000616B00F01BF946A0A16B00F017F92878CC
:1022B000400706D500F0A6FD014645A000F00EF946
:1022C00002E04BA000F00AF9FEE770BD54000020C8
:1022D0007073723A203078253038780A0000000098
:1022E0007230303A203078253038780A000000000B
:1022F0007230313A203078253038780A00000000FA
:102300007230323A203078253038780A00000000E8
:102310007230333A203078253038780A00000000D7
:102320007230343A203078253038780A00000000C6
:102330007230353A203078253038780A00000000B5
:102340007230363A203078253038780A00000000A4
:102350007230373A203078253038780A0000000093
:102360007230383A203078253038780A0000000082
:102370007230393A203078253038780A0000000071
:102380007231303A203078253038780A0000000069
:102390007231313A203078253038780A0000000058
:1023A0007231323A203078253038780A0000000047
:1023B000206C723A203078253038780A000000000E
:1023C0002070633A203078253038780A0000000009
:1023D00068617264206661756C74206F6E20746829
:1023E000726561643A2025730D0A0D0A0000000031
:1023F00068617264206661756C74206F6E2068611C
:102400006E646C65720D0A0D0A00000070B5064618
:10241000121D22F00700A0F1400528460022094CB9
:1024200040F82240521C102AFAD301620021416276
:102430008162C1620163436386634FF08071C1634F
:10244000284670BDEFBEADDE10B5FDF76BFE044A49
:102450001178491C1170BDE81040FDF767BE0000FF
:102460006800002010B5FDF75DFE044A1178491E92
:102470001170BDE81040FDF759BE00006800002053
:102480002DE9F04105460E461446304600F0F3FCB7
:1024900006F1140714B1012C1DD104E03946284679
:1024A00000F043F817E02C680DE0A4F1140096F852
:1024B000351090F83520914204D23946143000F09E
:1024C00034F802E02468AC42EFD1AC4203D1394683
:1024D000284600F02AF80020BDE8F0810FB408B5C6
:1024E00003AB00937F210548029A00F051FE034898
:1024F000FFF76CFE01B05DF814FB0000BC02002089
:102500000268516002680A600160486070470268B2
:10251000516002680A60016048607047026851605B
:1025200002680A6001604860704742681160426852
:102530004A604160086070470168814201D1012012
:102540007047002070470168814201D10120704727
:1025500000207047D0E900215160D0E900121160DD
:10256000406000607047D0E900215160D0E900125E
:1025700011604060006070472DE9F047002809D0E5
:10258000C01C20F003053B4EF068854204D90020B2
:10259000BDE8F0870020FBE70C2D00D20C254FF0A2
:1025A000FF31354800F0DDF9B7683168781AD6F8A0
:1025B0000CC0ACEB050356E00C1862888ABB62685D
:1025C000121A0C3AAA424DD3626805F11803121A86
:1025D0000C3A4FF001094FF4F5589A4222D34319AF
:1025E0000C33CA18A2F800804FF0000AA2F802A02B
:1025F000D4F804A0C2F804A090606360A4F802902C
:1026000050680CF10C0C604502D001F108028350B7
:10261000306928440C303061726982420ED2706198
:102620000CE01FE0A4F802906068621A801A326918
:10263000104430617269824200D27061A4F8008057
:10264000BC4203D008E040680844B060B0684288EB
:1026500012B172689042F6D1074800F064F904F1B3
:102660000C0095E760688342A6D8034800F05BF948
:1026700000208DE76C0000203C03002010B50346CD
:10268000CCB2042A15D3810713D1014644EA0423AE
:1026900043EA034305E00B604B608B60CB60103175
:1026A000103A102AF7D201E008C1121F042AFBD207
:1026B0000B46E1B201E003F8011B521E541CFAD193
:1026C00010BD2DE9F04106460F46304600F046F8B1
:1026D0000546E868FFF750FF0446D4B100212046C4
:1026E000EA68FFF7CBFF26720020607208223946A5
:1026F000204600F0CDF9FDF715FD064604F10C016A
:10270000281DFFF7FDFE3046FDF710FD2046BDE811
:10271000F0810020FBE770B5044600202072FDF731
:1027200001FD054604F10C00FFF714FF2846FDF7F4
:10273000FDFC2046BDE87040FFF7BABC70B504460A
:1027400000202072FDF7EEFC054604F10C00FFF7B7
:1027500001FF2846BDE87040FDF7E8BC0021074AAC
:1027600002EB01131B78834202D102EB0110704788
:10277000491C0529F4DB002070470000840000207C
:102780002DE9F04105460E4617463046FFF7E6FFB5
:102790000446FFF763FC6168201D00E00968814280
:1027A000FCD1FFF769FC46F0800028720822394608
:1027B000284600F06DF9FDF7B5FC064605F10C0161
:1027C000201DFFF79DFE3046BDE8F041FDF7AEBC91
:1027D000007A000601D501207047002070470000F4
:1027E00070B5FDF79FFC0546124C608898B9A0684B
:1027F000FEF78EFF421E104850F832101439606800
:10280000814208D0227061600C4A127842B11C31BA
:102810001C30FDF78EFC2846BDE87040FDF786BCF5
:102820001C311C30FDF785FC2846BDE87040FDF7E3
:102830007DBC0000D40000205C0300206800002064
:1028400010B50446FDF76EFC024614F8340F20F074
:102850000F00401C207060780A49343C01EBC00135
:1028600004F114004B6818604B68436048600160D5
:102870000548A16B836819438160BDE8104010468C
:10288000FDF754BC5C030020D400002070B5054661
:10289000FDF748FC014605F11404D4E9002050601E
:1028A000D4E9000210606460246095F835000A4A9B
:1028B00002EBC0000268824201D1012000E000204A
:1028C00020B10648AB6B82689A438260BDE87040D5
:1028D0000846FDF72BBC00005C030020D40000205C
:1028E00070B50C46154601460220FFF7EAFE0028A7
:1028F00005D000F11401496009608483457270BD00
:102900002DE9F041054616461F460A460221284693
:10291000FFF736FF2C46143464602460AE836F7278
:102920000020BDE8F08170B504460025FDF7FAFBF4
:10293000064604F11400FFF7FFFD40B1A08B401CD8
:10294000A0833046FDF7F2FB012D06D007E0606959
:10295000143800F039FA0125F3E7FFF741FF0020B2
:1029600070BD73B50446FDF7DDFB0646A08B28B1AC
:10297000401EA0833046FDF7D9FB21E0019808B343
:1029800000F040FA054600202863627A294604F1E7
:102990001400FFF775FD0198002809DD05F14C00D2
:1029A00001AA0021044600F019FB204600F06EFB4E
:1029B0003046FDF7BBFBFFF713FF286B002800D163
:1029C00000207CBD3046FDF7B1FB6FF001007CBDFF
:1029D00008B509A0FFF782FD0AA0FFF77FFD12A04E
:1029E000032300900122194612A0FFF777FDBDE8EE
:1029F000084018A0FFF772BD0A205C207C202F0A37
:102A0000000000002D205254202D20202020205492
:102A10006872656164204F7065726174696E6720C9
:102A200053797374656D0A00417567203132203225
:102A300030323000202F207C205C202020202025D8
:102A4000642E25642E2564206275696C64202573CC
:102A50000A0000002032303036202D20323031394B
:102A600020436F707972696768742062792072748C
:102A70002D746872656164207465616D0A000000E0
:102A8000014600E0491C0A78002AFBD1081A704769
:102A900010B5002A07D0034611F8014B03F8014B8B
:102AA00014B1521EF8D110BD002101E003F8011B42
:102AB000521EFBD110BD000070B505460A46E81C49
:102AC00020F0030122F00303182B21D9A3F11804ED
:102AD0008C421DD3114C5A1A183AE26021604FF40F
:102AE000F5530B800C324A600020886048804868AB
:102AF00008446060038001214180426082600023BD
:102B0000012207A10848FFF7FBFE2068A06070BD06
:102B10002946BDE8704005A0FFF7E0BC6C0000202E
:102B200068656170000000003C0300206D656D2049
:102B3000696E69742C206572726F722062656769B4
:102B40006E206164647265737320307825782C2060
:102B5000616E6420656E64206164647265737320C5
:102B6000307825780A00000010B50A4B00245C80FC
:102B70000020094A02EBC00149600960401C082896
:102B8000F8DB072018705C609C6002480C304060E5
:102B9000006010BDD40000205C03002010B5074C7D
:102BA000A068FEF7B5FD401E054951F83000143805
:102BB0006060BDE810401C30FDF7E9BAD400002089
:102BC0005C0300200020044A02EBC0014960096058
:102BD000401C0028F8D07047EC00002070472DE919
:102BE000FF478046DDE90C67894692461D4641460F
:102BF0000120FFF766FD044620000FD02846FFF7AE
:102C0000BBFC68B18DE8E10053464A464146204688
:102C1000FEF7EEFF204604B0BDE8F0870020FAE79B
:102C20002046FFF778FD0020F5E700F0F1B800003E
:102C300070B5044694F83400000702D02046FFF730
:102C400025FE04F14C0000F0FBF9042084F8340068
:102C5000FDF768FA054604F114010448FFF757FC34
:102C60002846FDF763FA002070BD0000E000002058
:102C700070B513480468FDF755FA05462046FFF77E
:102C800005FE042084F8340004F14C0000F0D8F96B
:102C90002046FFF79DFD012801D1A06F58B104F136
:102CA00014010848FFF733FC2846FDF73FFABDE85A
:102CB0007040FFF795BD2046FFF740FDF4E70000A8
:102CC000D8000020E000002000F002F8FCE700003F
:102CD00070B527E0FDF726FA0646FEF74DFD80B3F6
:102CE0001A480468A4F11405D4E900104860D4E936
:102CF0000001086064602460FFF7B0F9A96F09B1B2
:102D0000284688472846FFF763FD01280FD0FFF7C4
:102D1000B3F93046FDF70AFAA86AFFF7C9F9284661
:102D2000FFF7F9FCFEF728FD0028D3D170BD284637
:102D3000FFF704FDFFF7A0F93046BDE87040FDF74E
:102D4000F5B93046BDE87040FDF7F0B9E00000206D
:102D50001FB52020C2000721094BCDE90210CDE9A3
:102D6000003207480023074A07A1803800F010F816
:102D700004B00348BDE81040803800F069B8000096
:102D8000BC010020C92C00087469646C6500000057
:102D90002DE9FF5F8146DDE90E76DDE910548846B6
:102DA00092469B46424601214846FFF7E9FCCDE9A1
:102DB0000076CDE902545B46524641464846FEF74E
:102DC00017FF04B0BDE8F09F70B5044694F83400D6
:102DD00000F00F00022802D04FF0FF3070BDFDF769
:102DE000A1F9054604F11400FFF7BDFB04F14C0006
:102DF00000F0B6F92846FDF799F92046FFF720FDC7
:102E0000002070BD0148006870470000D800002015
:102E1000F1B5FDF787F905460C480468204600F037
:102E20002AF804F14C006A460021064600F0D6F864
:102E3000304600F02BF92846FDF778F9FFF7D0FC73
:102E4000206B801C00D120630020F8BDD80000203A
:102E500010B534308178417001228A4042600221ED
:102E600000F83419FFF7B0FFFFF7CCFF08B1FFF708
:102E7000B7FC002010BD70B5044694F8340000F093
:102E80000F00012802D04FF0FF3070BDFDF74AF966
:102E9000054694F8340020F00F00801C84F83400BC
:102EA0002046FFF7F3FC04F14C0000F059F92846E6
:102EB000FDF73CF9002070BD10B504466FF001002D
:102EC000206304F11400FFF74EFB2046FFF7B8FC27
:102ED000BDE81040FFF784BC70B5FDF723F9064646
:102EE0001348046894F8340000F00F0001281AD148
:102EF000D4E90501884216D004F114000546FFF715
:102F000032FB94F835000B4901EBC00041680D60BD
:102F100041686960456028603046FDF707F9FFF7B2
:102F20005FFC002070BD3046FDF700F9002070BD49
:102F3000D80000205C0300200148006870470000B2
:102F40006400002010B509490868401C0860FFF7BC
:102F500059FF816C491E816419B9416C8164FFF786
:102F6000BBFFBDE8104000F003B800006400002083
:102F700070B5FFF7E1FF0646FDF7D4F8054620E0FF
:102F800015480468143C6FF00041A06A301A88426A
:102F90001CD22046FEF77BFED4E907108847FFF7D6
:102FA000CBFF0646607A810708D5C10706D020F01E
:102FB00001006072204600F069F802E020F0010094
:102FC00060720548FFF7BFFA0028D9D02846BDE84F
:102FD0007040FDF7ABB80000EC000020002909D0DC
:102FE000012904D0022908D003290FD10AE0406A40
:102FF00010600BE01168416208E0417A21F00201A3
:10300000417203E0417A41F00201417200207047B1
:103010002DE9F8430E46089D1746984601460A20BA
:10302000FFF74FFB04464CB143463A463146204633
:103030000095FEF719FE2046BDE8F8830020FBE767
:1030400070B50546FDF76EF804462846FEF71FFEEC
:103050002046FDF76BF82846FFF770FB002070BD97
:103060002DE9F8430746DDE9088415461E460A4661
:103070000A213846FFF784FB434632462946384644
:103080000094FEF7F1FDBDE8F88300002DE9F84358
:103090000446FDF747F805462046FEF7F8FD607A3E
:1030A00020F0010060722846FDF740F8FFF744FF6A
:1030B000616A0844A062FDF735F80746DFF89CC056
:1030C000CDF800C000226E460CEBC20045680DE052
:1030D0000068A0EBC201A36A4969994204D0C91AE9
:1030E0006FF00043994205D346F8220056F82200BB
:1030F000A842EDD12AB156F822100831531C46F8E7
:103100002310521C002ADFD01448001FD0F8008082
:1031100008F10108C0F8008004F114010098FFF7DD
:10312000FDF902250EE05FEA88700DD1C5F10100BE
:1031300004EBC001143156F82000FFF7EFF94FEA15
:1031400098086D1C012DEED9607A40F00100607284
:103150003846FCF7EBFF0020BDE8F883EC000020C8
:1031600070B50446607AC0070ED0FCF7DBFF054659
:103170002046FEF78CFD2846FCF7D8FF607A20F049
:1031800001006072002070BD4FF0FF3070BD000084
:103190002DE9FF4F83B081468B4609EB0B074C4668
:1031A000A74203D24FF0FF37C9F1FF3B4FF0200A8F
:1031B00012E1252804D0BC4200D22070641C08E132
:1031C00000250599491C059108782D2814D02B2835
:1031D00015D0202816D0232817D0302818D04FF02B
:1031E000FF384646059A1278303A0A2A13D205A8C3
:1031F00000F037F906461AE045F01005E1E745F022
:103200000405DEE745F00805DBE745F02005D8E7D3
:1032100045F00105D5E72A2809D1491C05910698F2
:1032200040C80690002E02DA764245F01005059857
:1032300001782E2918D1401C05900178A1F13002A7
:103240000A2A04D205A800F00CF9804607E02A29D2
:1032500005D1401C0590069850F8048B0690B8F1F3
:10326000000F01DA4FF000080021059A1078682855
:1032700001D06C2802D10146521C05920A23059800
:1032800000786F2871D00CDC632820D004DC25285E
:103290006CD058280DD187E0642801D0692808D166
:1032A00086E0702863D073282FD0752871D07828D5
:1032B0007CD0BC4201D225202070641C059908787E
:1032C000002868D0BC4200D22070641C81E0E8066F
:1032D00005D507E0BC4201D284F800A0641C761E2C
:1032E000002EF7DC069810F8041B0690C8B2BC420A
:1032F00000D22070641C04E0BC4201D284F800A01B
:10330000641C761E002EF7DC63E0069808C8069061
:1033100003B943A31846FFF7B3FBB8F1000F02DD72
:10332000404500DD4046E90605D508E0BC4201D233
:1033300084F800A0641C3146761E8142F6DC002130
:1033400006E0BC4201D21A782270641C5B1C491C46
:103350008142F6DB04E0BC4201D284F800A0641C88
:103360003146761E8142F6DC33E01BE014E0701C2F
:1033700002D1082645F00105CDE9006806980295BE
:10338000102304C8069039462046FEF79BFD0446EC
:103390001FE00FE00AE02BE0BC4201D225202070A4
:1033A000641C16E0082305E045F04005102301E009
:1033B00045F002056C291ED0682920D0069804C863
:1033C0000690CDE90068394620460295FEF77AFD61
:1033D00004460598401C05900598007800287FF465
:1033E000E8AEBBF1000F15D0BC4211D2207011E045
:1033F000491E0591EDE7069804C80690E1E7069896
:1034000030F8041B06908AB2A807DAD512B2D8E7C2
:1034100007F8010C07B0A4EB0900BDE8F08F00002D
:10342000284E554C4C290000002070470020704762
:10343000002070470020704710B5FCF773FEFEF7C0
:10344000A1FEFFF7C5FAFFF7BDFBFFF78DFBFEF707
:10345000D3FDFFF7C3FBFFF77BFCFFF79FFB0020CB
:1034600010BD10B5024600206FF02F0407E04B1C82
:103470001360097800EB800004EB400008441168F9
:103480000B78303B0A2BF2D310BD000001480068D6
:10349000FFF749BA2400002001480068FFF743BA4B
:1034A00020000020000001000200010003000100D4
:1034B00002000100040001000200010003000100FD
:1034C00002000100050001000200010003000100EC
:1034D00002000100040001000200010003000100DD
:1034E00002000100060001000200010003000100CB
:1034F00002000100040001000200010003000100BD
:1035000002000100050001000200010003000100AB
:10351000020001000400010002000100030001009C
:103520000200010007000100020001000300010089
:10353000020001000400010002000100030001007C
:10354000020001000500010002000100030001006B
:10355000020001000400010002000100030001005C
:10356000020001000600010002000100030001004A
:10357000020001000400010002000100030001003C
:10358000020001000500010002000100030001002B
:10359000020001000400010002000100030001001C
:1035A0000200010030313233343536373839616248
:1035B000636465660030313233343536373839412B
:1035C0004243444546000000353400082D340008CD
:1035D0002934000831340008F835000800000020C4
:1035E000F800000058170008F0360008F800002026
:1035F000A83200006817000800000000000000006A
:1036000000000000000000000000000000000000BA
:1036100000000000000000000000000000000000AA
:10362000000000000204060800000000010203047C
:10363000010203040607080900A24A040000000072
:103640000000000001020304060708090000000052
:10365000000000000000000000000000000000006A
:10366000000000000000000000000000000000005A
:103670000000000000000000000000000100000049
:103680008800002088000020800000000200000068
:103690009800002098000020200000000400000096
:1036A000A8000020A8000020200000000500000065
:1036B000B8000020B8000020300000000A00000020
:1036C000C8000020C80000202C00000000000000FE
:1036D00000000000000000000000000000000000EA
:1036E00000000000000000000000000000000000DA
:04000005080000ED02
:00000001FF
