:020000040800F2
:10000000003400200101000809010008CB010008AC
:100010000D0100080F010008110100080000000098
:1000200000000000000000000000000013010008B4
:10003000150100080000000053010008191700080E
:100040001B0100081B0100081B0100081B01000820
:100050001B0100081B0100081B0100081B01000810
:100060001B0100081B0100081B0100081B01000800
:100070001B0100081B0100081B0100081B010008F0
:100080001B0100081B0100081B0100081B010008E0
:10009000791A00081B0100081B0100081B01000859
:1000A0001B0100081B0100081B0100081B010008C0
:1000B0001B0100081B0100081B0100081B010008B0
:1000C0001B0100081B0100081B0100081B010008A0
:1000D0001B0100081B0100081B0100081B01000890
:1000E0001B0100081B0100081B010008DFF80CD0F1
:1000F00000F02AF9004800476D0300080034002092
:100100000648804706480047FEE7FEE7FEE7FEE7B1
:10011000FEE7FEE7FEE7FEE7FEE7FEE7A9170008B9
:10012000ED000008EFF3108072B6704780F310887E
:100130007047334A1368012B04D04FF0010313605A
:10014000304A1060304A116030484FF080510160F1
:100150007047EFF3108272B62948016891B14FF0F1
:10016000000101602748016829B1EFF3098121E905
:10017000F00F00680160244909680968B1E8F00FD0
:1001800081F3098882F310884EF0040E70471E49EF
:1001900008601C494FF00000086019494FF0010049
:1001A00008601B484FF47F01D0F8002041EA0201AB
:1001B000016016484FF080510160164800680068E1
:1001C00080F3088861B662B670471EF0040F0CBF5A
:1001D000EFF30880EFF3098020E9F00F40F804ED19
:1001E0001EF0040F0CBF80F3088880F3098800B567
:1001F00002F08CF85DF804EB4EF0040E704700003E
:100200006C000020640000206800002004ED00E085
:1002100020ED00E008ED00E030B480EA010202F0D9
:10022000004530F0004221F0004013D090B1C30DE2
:10023000D40DC2F31601C0F31600E41A41F4000114
:1002400040F400027D34914201D3641C00E0490077
:10025000002C02DA30BC002070474FF4000000236D
:10026000914201D3891A034340084FEA4101F7D173
:1002700051B1914202D14FF0004105E002D24FF05E
:10028000010101E06FF0010103EBC450284430BCD0
:1002900000F022B8C10F80EAE0700844CA07962334
:1002A000002100F022B800F0004220F00040C10D13
:1002B000C0F3160040F400007F2901DA00207047E7
:1002C000962903DCC1F19601C84001E096398840C7
:1002D000002AF4D0404270470029A8BF7047401C54
:1002E000490008BF20F00100704710B4B0FA80FC4C
:1002F00000FA0CF050EA010404BF10BC704749B189
:10030000CCF1200421FA04F411FA0CF118BF0121F8
:1003100021430843A3EB0C01CB1D4FEA00614FEAD8
:10032000102042BF002010BC704700EBC3501044A7
:100330000029A4BF10BC7047401C490008BF20F032
:10034000010010BC70470000064C074D06E0E06855
:1003500040F0010394E8070098471034AC42F6D30C
:10036000FFF7C8FE203900084039000810B503F037
:10037000F9F9002010BD002904D0816841F0010185
:1003800081607047816821F0010181607047002918
:1003900004D0816841F4807181607047816821F4E4
:1003A00080718160704700002DE9F05F454EDFF8F5
:1003B00018A13078AAF11C0707F15808002837D196
:1003C00000244FF6FF754FF0140905EA44010AEBCB
:1003D0008400022201F024FC0A2002F0BCFD09EB9B
:1003E000440081B207EB8400022201F019FC0A20CC
:1003F00002F0B1FD641C072CE7DB0024651C57F8F4
:10040000241057F82500401AFFF744FF81465AF898
:1004100025005AF82410401AFFF73CFF4946FFF721
:10042000FBFE48F82400641C062CE7DB012030703A
:10043000002000F0C3F90546DFF890B0D0208BF81B
:100440000B00AA208BF80C0000F028FF8BF80D00A1
:1004500000F06EFF8BF80E0000F06AFF01280BD051
:100460000020B0601949712000F039FDBDE8F05F4F
:100470001649174800F088BD00245AF82400A84205
:1004800015DC611C5AF82110A94210DB58F82490A1
:1004900019F0FF4F0BD0281AFFF7FCFE4946FFF773
:1004A000BBFEFFF700FF57F824100844B060641C3F
:1004B000062CE2DB3089010A8BF80F108BF8100054
:1004C000D0E70000280000204401002000010020A7
:1004D00000640040014600208968490700D50120DA
:1004E0007047014600208968090700D50120704740
:1004F00010B542680E4B1A400C790B6842EA042290
:100500001343436082680B4B1A40D1E902432343F3
:100510004C7942EA440213438360C26A22F47002B7
:10052000097C491EC9B242EA0151C16210BD0000F6
:10053000FFFEF0FFFDF7F1FF70B5072609290AD984
:10054000C568A1F10A0404EB4404A640B543A340E6
:100550001D43C56007E0056901EB4104A640B543B2
:10056000A3401D4305611F23072A09D2446B521E75
:1005700002EB820293409C4391400C43446370BD64
:100580000D2A09D2046BD21F02EB820293409C43D6
:1005900091400C43046370BDC46A0D3A02EB8202C1
:1005A00093409C4391400C43C46270BD816841F00C
:1005B000080181607047002904D0816841F4A001DE
:1005C00081607047816821F4A00181607047816873
:1005D00041F00401816070474FF0FF35064C04E0A4
:1005E00000F00CF8012002F0B6FC2946206802F069
:1005F0004EFB0028F6D1F3E720000020FFF7D4BE21
:1006000008B50121042000F0A3FF8020ADF8000010
:1006100000208DF803006946014800F0C2FD08BDC6
:100620000008014010B5FFF7EBFFBDE8104000F0F7
:1006300001B8000070B590B00121084600F05EFFDF
:100640000121480200F084FF2B4E304600F00AFDE5
:100650002A4805902A480690002407940125089509
:1006600009940A9428020B9080000C9020200D9091
:1006700000020E900F9405A9304600F06FFD012195
:10068000304600F0E2FC00948DF804408DF80550EF
:100690004FF46020029003948DF81050174C694677
:1006A0004C3C2046FFF724FF4FF4404000F01CFF75
:1006B0000523012207212046FFF73EFF01212046A6
:1006C000FFF765FE01212046FFF755FE2046FFF7A4
:1006D0006DFF2046FFF705FF0028FAD12046FFF7FF
:1006E00076FF2046FFF7F6FE0028FAD101212046CA
:1006F000FFF761FF10B070BD080002404C240140BC
:10070000340000202DE9F84301210C2000F020FFE7
:100710008020ADF8000048248DF803401B4F694647
:10072000384600F03EFD3D15ADF8005010208DF824
:10073000030003208DF802006946384600F031FDC1
:100740006E00ADF800606946384600F02AFD2021B1
:10075000ADF800108DF80340DFF83480694640465C
:1007600000F01FFD4021ADF800108DF803406946F0
:10077000404600F016FD3146384600F06EFD294631
:10078000384600F06AFDBDE8F8830000000C014027
:1007900000080140FFF7B6BF10B501F085F801F081
:1007A000D1FB01F029F800F037FF03480068BDE8ED
:1007B000104002F0D3BB00000000002070B59CB0D8
:1007C0000024134E01AD308845F82400012002F0CA
:1007D000C2FB641CE4B21B2CF5D300210020C1F144
:1007E0001A060BE0421C55F8203055F82240A3426F
:1007F00003DD45F8204045F82230D0B28642F1DCD6
:10080000491CC9B21A29E9D30E981CB070BD00006A
:100810003400002070B5044601215548FFF7ABFDB8
:100820006178544D0026544C962944D005DC59B1CA
:10083000322919D0642916D12AE0C8294ED0FA29C4
:100840005FD0FF290FD16FE0022214214B4801F045
:100850001CFA0020FFF7B2FF286002220021454861
:1008600001F013FA667371E0444802221621001D5C
:1008700001F00BFA0020FFF7A1FF0146284669604E
:1008800002221146001D01F000FA322060735DE083
:100890003A4802221821083001F0F7F90020FFF74A
:1008A0008DFFA860334802220421083001F0EDF9E1
:1008B000642060734AE0314802221A210C3001F0B2
:1008C000E4F90020FFF77AFFE8602A4802220621B7
:1008D0000C3001F0DAF99620607337E027480222E5
:1008E0001C21103001F0D1F90020FFF767FF2861CB
:1008F000204802220821103001F0C7F9C820607397
:1009000024E01E4802221E21143001F0BEF900200E
:10091000FFF754FF6861174802220A21143001F0E2
:10092000B4F9FA20607311E0144802222021183033
:1009300001F0ABF90020FFF741FFA8610D4802224A
:100940000C21183001F0A1F9FF2060730C480670EB
:10095000D120E07200F0A2FC20730749712000F062
:10096000BEFABDE870400449064800F00DBB000027
:10097000002401406401002000010020D03700085D
:10098000280000200064004030B508231024042211
:10099000B1F5007F33D011DC20292AD007DC0129F2
:1009A00022D0042923D0082900D1C46030BD4029B9
:1009B00021D0B1F5807FF9D1426030BD0025B1F57D
:1009C000004F20D008DCB1F5806F1AD0B1F5006F70
:1009D000F3D18561426030BDB1F5803F0DD0B1F5F6
:1009E000003FF8D1446030BD0849816030BDC3602C
:1009F00030BD036130BD046130BD436030BD426035
:100A000030BD426030BD8561426030BD01010100F2
:100A100010B500F0D1F800F00DFA00F0DDF9BDE8F6
:100A2000104000F087B8000010B50C4988420AD188
:100A300001214C06204600F07DFD2046BDE8104017
:100A4000002100F077BD01218C06204600F072FDE8
:100A50002046BDE81040002100F06CBD006400405D
:100A6000F0B5827A01219140304C226842F00102B7
:100A700022602E4D1C352A688A432A602B4A067B49
:100A80000C322B4B002E14D116688E43166046880C
:100A9000C78846EA0746877A03EBC707C7F8406668
:100AA0000688878846EA0746877A03EBC707C7F8B0
:100AB0004466067B012E14D116680E4316604288E8
:100AC000068842EA0642867A03EBC606C6F8402646
:100AD000C288868842EA0642867A03EBC603C3F8D8
:100AE0004426124AC37A121D3BB113680B431360AC
:100AF0000E4A0389143223B106E013688B43136056
:100B0000F6E713688B4313600389012B02D1136846
:100B10000B431360407B012802D1286808432860FA
:100B2000206820F001002060F0BD00000066004059
:100B3000006000407FB500248DF80A4001258DF843
:100B40000B508DF80C402720ADF80000ADF80200E6
:100B500000F0A4FB30B94FF40870ADF8000011A00C
:100B600001F036FD00F09AFB012806D14FF48460B5
:100B7000ADF802000DA001F02BFD4FF48050ADF850
:100B800004004FF43070ADF80600ADF808408DF861
:100B90000D506846FFF764FF01220221054800F06E
:100BA0008FF87FBD43414ED7F300000043414ED341
:100BB000D20000000064004038B50121042000F09C
:100BC000C7FC4FF48050ADF8000018208DF80300EA
:100BD000074C6946204600F0E4FAE114ADF8001035
:100BE00048218DF803106946204600F0DAFA38BD36
:100BF000000801400246002053690B425DD0B1F568
:100C0000807F4AD016DC082937D009DC01292CD096
:100C100002292ED0042950D1D068082100F00FBA43
:100C200010292ED0202930D0402946D1106910211A
:100C300000F005BAB1F5004F3BD00CDCB1F5007FF8
:100C40002FD0B1F5806F30D0B1F5006F35D19069FC
:100C5000702100F0F4B9B1F5803F1AD0B1F5003F32
:100C60002BD15068102100F0EAB99068134900F0C8
:100C7000E6B9D068032100F0E2B9D068102100F095
:100C8000DEB91069032100F0DAB91069082100F01B
:100C9000D6B95068082100F0D2B99069012100F05E
:100CA000CEB99069022100F0CAB99069042100F020
:100CB000C6B95068042100F0C2B9704701010100B3
:100CC000002A03D042690A434261704742698A435D
:100CD0004261704710B50022036823F002030360ED
:100CE000036843F0010303604FF6FF7300E0521CFA
:100CF0004468E40701D19A42F9D14268D2073ED054
:100D00008A79012A3DD0026822F080020260CA7905
:100D1000012A3BD0026822F0400202600A7A012ACE
:100D200039D0026822F0200202604A7A012A37D0C4
:100D3000026822F0100202608A7A012A35D0026825
:100D400022F008020260CA7A012A33D0026822F037
:100D5000040202608A78CC78920742EA04620C7935
:100D600042EA04424C79098842EA0452491E0A4385
:100D7000C261016821F001010160002120E0002032
:100D800010BD026842F080020260C0E7026842F0D3
:100D900040020260C2E7026842F020020260C4E73B
:100DA000026842F010020260C6E7026842F00802E0
:100DB0000260C8E7026842F004020260CAE7491C08
:100DC0004268D20701D09942F9D14068C00701D0EA
:100DD000002010BD012010BD3EB50121480600F0E5
:100DE0009BFB134C2046FFF71FFE684600F07EF881
:100DF00000218DF8061001228DF807208DF80820BB
:100E00008DF809108DF80A108DF80B108DF802106E
:100E10008DF8031006218DF8041003208DF80500CD
:100E2000ADF8001069462046FFF754FF3EBD0000B4
:100E30000064004008B54FF4407000F06FFA1420D1
:100E40008DF8000000208DF801008DF802000120CF
:100E50008DF80300684600F02FFA08BD10B500EBCE
:100E60000113D3F8B04104F004041472002C2CD008
:100E7000D3F8B041E408546003F5D8731C6804F05B
:100E8000020454725C6804F00F0494725C68240AD3
:100E9000D4749C68D4729C68240A14739C68240CD3
:100EA00054739C68240E9473DC68D473DC68240A41
:100EB0001474DC68240C5474DB681B0E937449B101
:100EC000016941F02001016110BDD3F8B041640D0A
:100ED0001460D1E7C16841F02001C16010BD086015
:100EE00000200872487208208872704700218171C2
:100EF000C171017241728172C1728170C17003212E
:100F0000017102214171012101807047044800F004
:100F1000B5F900F007F8012002F01DF8F9E700002C
:100F20001401002010B517484FF0FF321449006833
:100F300001F044FC1248001F40680178C12908D024
:100F4000C2290AD0C3290FD0C42914D000210170AE
:100F500010BDBDE8104000F09FB9094ABDE810403F
:100F6000921E511E00F022BA0549BDE81040891EAC
:100F7000481E00F069BABDE81040FFF74BBC000006
:100F80002C0000202400002030B502460020936889
:100F90005B010AD49068000101D5012005E090684A
:100FA000C00001D5022000E0042004283BD002EB61
:100FB0000012D2F8803103F00103C2F880310B7ABD
:100FC00093B3D2F880414D681C434B7A43EAC50382
:100FD0001C43C2F880418B7A03F00F038B7202F539
:100FE000C072536823F00F03536053688C7A234315
:100FF0005360CB7A8C7B0D7B43EA04634C7B2404E7
:1010000044EA052423439360CB7B8C7C43EA04634E
:101010004C7C097C240444EA01210B43D360116811
:1010200041F00101116030BDFFE7D2F880314C7A08
:1010300023430C8843EA4453C2F88031CBE702468D
:1010400000200A4200D001207047002904D0016826
:1010500041F001010160704701684FF6FE721140D6
:101060000160704701684FF6FE7211400160002177
:10107000016041608160C1603649364A083990425A
:1010800004D1486840F00F0048607047314A14327C
:10109000904204D1486840F0F000486070472D4A03
:1010A0002832904204D1486840F47060486070472C
:1010B000284A3C32904204D1486840F4704048606D
:1010C0007047244A5032904204D1486840F470205E
:1010D000486070471F4A6432904204D1486840F427
:1010E0007000486070471B4A7832904204D14868CB
:1010F00040F0706048607047174A111F904204D159
:10110000086840F00F0008607047134A143290429C
:1011100004D1086840F0F000086070470E4A283299
:10112000904204D1086840F47060086070470A4A31
:101130003C32904204D1086840F470400860704727
:10114000054A50329042FAD1086840F47020086095
:1011500070470000080002400804024030B50268F1
:1011600047F6F0739A430C6A8B682343D1E9044530
:101170002C4323438C692343CC6923434C6A234388
:101180008C6A234313430360CA6842600A68826022
:101190004968C16030BD00F062F8642001F0DBFEF8
:1011A000F9E72DE9F0410022CC7804F00F03E406C2
:1011B00001D58C7823430C784FF00F0714F0FF0F04
:1011C0004FF0010C1CD005680CFA02F40E88264082
:1011D000A64211D1960007FA06F825EA080503FA97
:1011E00006F848EA0505CE78282E02D0482E02D00F
:1011F00002E0446100E00461521C082AE4D3056067
:101200000A88FF2A1ED94568002202F108060CFA56
:1012100006F40E882640A64210D1960007FA06F87A
:1012200025EA080503FA06F848EA0505CE78282ECF
:1012300000D14461CE78482E00D10461521C082AA6
:10124000E3D34560BDE8F0810246002092680A427F
:1012500000D00120704741617047016170477047BD
:10126000054C4FF0FF352946206801F010FD0120A4
:1012700001F071FEF7E700001C00002000210022B1
:101280000260426002728272C2744318DA72491CB0
:10129000C9B20829F9D370477047000010B5802102
:1012A0000448FFF7D1FF012801D0002010BD012024
:1012B00010BD0000000C014070B50F23C27801265C
:1012C0000178002A1ED0144A126802F4E062C2F5C6
:1012D000E062120AC2F10404D3404578A540827846
:1012E0001A402A43120101F1E02181F8002400781C
:1012F00000F01F018E404009800000F1E020C0F89E
:10130000006170BD01F01F0086404809800000F1B7
:10131000E020C0F8806170BD0CED00E00249084398
:1013200002490860704700000000FA050CED00E07B
:1013300010B51D4C20212046FFF786FF012805D15E
:1013400040212046FFF780FF012806D020212046BB
:10135000FFF77AFF012802D006E0012010BD4021EE
:101360002046FFF771FF28B120212046FFF76CFFD0
:1013700010B107E0022010BD40212046FFF764FFB6
:10138000012805D020212046FFF75EFF10B106E0BE
:10139000032010BD40212046FFF756FF08B1002072
:1013A00010BD002010BD000000080140F0B54378DA
:1013B0000125022603270024002B10D0012B10D07A
:1013C000022B10D0032B10D00C70807878B101283C
:1013D0000FD002280FD003280FD01470F0BD0C706E
:1013E000F3E70D70F1E70E70EFE70F70EDE71470A3
:1013F000F0BD1570F0BD1670F0BD1770F0BD70B582
:1014000004460D46002A1CD0012A13D0022A03D01C
:10141000032A08D0256170BD65614FF4E16001F0D9
:101420009AFD256170BD65614FF4167001F093FD62
:10143000256170BD65614FF4966001F08CFD2561FA
:1014400070BD256170BD000070B50C460278254D59
:101450004FF48061002A19D0012A1CD0022A1FD023
:10146000032A22D000222846FFF7C9FF22784FF432
:101470000061FAB1012A23D0022A27D0032A2BD0F7
:101480002846BDE870400022FFF7B9BF0022284679
:10149000FFF7B5FFEAE701222846FFF7B0FFE5E7CF
:1014A00002222846FFF7ABFFE0E703222846FFF7BA
:1014B000A6FFDBE72846BDE870400022FFF79FBF8C
:1014C0002846BDE870400122FFF799BF2846BDE8D5
:1014D00070400222FFF793BF2846BDE87040032208
:1014E000FFF78DBF000C0140034A516821F44041D1
:1014F000014351607047000000100240054A002976
:1015000003D0516901435161704751698143516171
:101510007047000000100240054A002903D0D1693D
:101520000143D1617047D1698143D16170470000A7
:1015300000100240054A002903D0116901431161DE
:10154000704711698143116170470000001002402B
:10155000054A002903D0916901439161704791695F
:1015600081439161704700000010024010B5264A87
:10157000516801F00C01254B002927D0042927D000
:10158000082927D00360516801F0F0010909204BB8
:101590005C5C0168E1404160546804F4E064240A42
:1015A0001C5D21FA04F48460546804F46054E40A75
:1015B0001B5DD940C160526802F44042920B144B4B
:1015C0001B1F9A5CB1FBF2F1016110BD0360DAE709
:1015D0000360D8E7516801F47011536803F4803355
:1015E000022404EB914133B153689B0307D5094BA7
:1015F00059430160C7E7074B59430160C3E7034BF9
:1016000059430160BFE700000010024000127A0059
:101610003A00002000093D0010B50022012106A07B
:1016200001F0F4FA064C20600022022105A001F02E
:10163000EDFA606010BD000073726D3100000000B3
:101640001C000020426C6F6F645F5072657373758D
:1016500072655F43616C6962726174696F6E5F533A
:10166000656D0000AFF300800CB50022019200927E
:101670002748016841F4803101604FF4A06301689C
:1016800001F4003100910199491C0191009911B9AF
:1016900001999942F3D10168890302D50121009192
:1016A00000E000920099012930D11A490A6842F0FD
:1016B00010020A600A6822F003020A600A6842F017
:1016C00002020A604168416041684160416841F43A
:1016D00080614160416821F47C114160416841F4BE
:1016E000E8114160016841F0807101600168890181
:1016F000FCD5416821F003014160416841F00201DD
:1017000041604168C1F381010229FAD10CBD00009A
:10171000001002400020024010B500F00FFF01F061
:10172000A7FDBDE8104000F017BF000010B51A4A31
:10173000506800F00C01194B194800290ED00429FB
:101740000ED008290ED003605168154AC1F3031169
:10175000121D515C0268CA40026010BD0360F3E7CD
:101760000360F1E7516801F47011536803F48033AA
:10177000022404EB914133B153689B0307D5094B15
:1017800059430160E0E7074B59430160DCE7034B35
:1017900059430160D8E700000010024000127A00AF
:1017A0004C00002000093D0010B50F48016841F0D1
:1017B0000101016041680D4A1140416001680C4A15
:1017C00011400160016821F480210160416821F429
:1017D000FE0141604FF41F018160FFF743FF05499F
:1017E0004FF00060086010BD001002400000FFF8DC
:1017F000FFFFF6FE08ED00E02DE9FC410020142576
:10180000CDE900054FF4007702463B46144915A088
:1018100001F07BFB164C206008B101F0AFFC022602
:10182000CDE9006573020022124913A001F06DFB9F
:101830006060CDE900653B460022124912A001F02C
:1018400064FBA06008B101F099FCCDE900653B465E
:101850000022104910A001F058FBE060BDE8FC81B7
:101860000D0F000843414E5F5461736B0000000090
:1018700004000020611200084932435F5461736B19
:1018800000000000D90500084144435F5461736BB8
:101890000000000097110008446973706F73655F62
:1018A0005461736B00000000F8B5062542F2107613
:1018B0003346002209490AA0009501F03FFD0C4C77
:1018C000206008B101F078FD3346002209490AA0E2
:1018D000009501F033FD6060F8BD0000B9370008E5
:1018E0007377746D72315F63616C6C6261636B00FE
:1018F00014000020C53700087377746D72325F637F
:10190000616C6C6261636B00002904D0818941F4D1
:10191000005181817047818921F400518181704794
:1019200010B586B001210420FFF712FE01218803C3
:10193000FFF70EFE4FF40070ADF8140018208DF87C
:10194000170003208DF81600144C05A92046FFF758
:1019500028FC2115ADF8141004218DF8171005A9E5
:101960002046FFF71EFC4FF4E13001900020ADF857
:101970000800ADF80A00ADF80C00ADF810000C201E
:10198000ADF80E00064C01A9204600F013F8012125
:101990002046FFF7B9FF06B010BD00000008014067
:1019A000003801400246002012880A4200D001207F
:1019B0007047000030B585B004460D46208A4CF6CD
:1019C000FF710840E98801432182A0894EF6F31196
:1019D0000840A9882A8911436A8902431143A181D9
:1019E000A08A4FF6FF410840A9890143A1826846B9
:1019F000FFF7BCFD1D48844201D1039800E0029826
:101A0000A189090408D500EBC00101EB0010296889
:101A10004900B0FBF1F007E000EBC00101EB001062
:101A200029688900B0FBF1F06422B0FBF2F10901F2
:101A30000B096FF018056B4300EB8300A3891D04AD
:101A40004FF0320307D503EBC000B0FBF2F000F01B
:101A50000700084306E003EB0010B0FBF2F000F0D3
:101A60000F000843208105B030BD00000038014060
:101A7000C1F308018180704710B500F05FFD0C4C88
:101A800002212046FFF7B6F820B10A4A002120467D
:101A9000FFF7E4F902212046FEF776FF00F05CFD37
:101AA000054804490068BDE810400B3100F000BF54
:101AB000006400401401002024000020401EB0F10A
:101AC000807F01D3012070474FF0E0214861044A34
:101AD000FF201070002088610720086100207047F7
:101AE00023ED00E0002807D00F4910F0FF0F05D0CC
:101AF000C0B2085C401C70470020704710F47F4F54
:101B000004D0C0F30720085C0930704710F47F0F41
:101B100004D0C0F30740085C1130704701EB10603F
:101B20000078193070470000EC37000802E008C860
:101B3000121F08C1002AFAD170477047002001E047
:101B400001C1121F002AFBD1704700000348016841
:101B5000814201D00120704700207047EC00002036
:101B60002DE9FC411F46DDE90A65DDE9083104463F
:101B700004F11400406000601C346260A760E36000
:101B800021610A462321184600F00EFFD4E9030123
:101B90004218D4E90101121F0D4B00F0B1FC206086
:101BA000A67666760020E061A562E5626061207637
:101BB000E06520661C3C009001902346054A2146C2
:101BC00004F14C0001F0E2FB0020BDE8FC810000C4
:101BD0009D2F0008E531000810B5029C24F0010497
:101BE0004472C161026200218162436200EBC10262
:101BF000143252601260491C0129F7DB10BD10B588
:101C0000002200EBC2011431D1E900436360D1E945
:101C10000034236049600960521C012AF1DB10BDC9
:101C20002DE9F04105460C46164600F017F9A020B4
:101C300000F0E8F800F042F968B9E0B200F0E2F82C
:101C400000F03CF938B900F009F9A12000F0DAF809
:101C500000F034F920B100F01DF90020BDE8F0815A
:101C60000024771E0BE000F0ABF82855BC4202D0F0
:101C700000F044F801E000F08BF8641CA4B2B44218
:101C8000F1D300F007F90120E8E72DE9F04780469D
:101C90000E46914600254FF47A7729E00DB1700782
:101CA00016D100F0F7F8002400F0D8F8A02000F0DA
:101CB000A9F800F003F918B1641CA4B2BC42F3D334
:101CC000BC420CD0F0B200F09DF800F0F7F830B94B
:101CD00018F8050000F096F800F0F0F820B100F0D8
:101CE000D9F80020BDE8F087761CB6B26D1CADB205
:101CF0004D45D3D300F0CEF80120F3E710B50C4CDE
:101D000002212046FFF7A7FA00F03CF80421204604
:101D1000FFF7A3FA00F036F804212046FFF79BFAFC
:101D200000F030F82046BDE810400221FFF795BAD8
:101D30000008014008B501210420FFF709FC062036
:101D4000ADF8000003208DF8020014208DF8030088
:101D500069460348FFF725FA00F09CF808BD00002B
:101D60000008014010B50446FFF7E4FF00F076F8E4
:101D7000204600F047F800F0A1F8044600F08AF889
:101D8000204610BD0020401CC0B20528FBD3704780
:101D900010B50A4C02212046FFF75FFAFFF7F2FF69
:101DA00004212046FFF759FAFFF7ECFF04212046F3
:101DB000FFF751FABDE81040FFF7E4BF000801400B
:101DC00070B5002400250E4E6006040E0421304636
:101DD000FFF743FAFFF7D6FF02213046FFF734FA48
:101DE00008B1641CE4B204213046FFF734FAFFF76F
:101DF000C9FF6D1CEDB2082DE6D3204670BD000072
:101E00000008014070B505460024134E280604D58D
:101E100002213046FFF721FA03E002213046FFF7A6
:101E20001AFAFFF7AFFF04213046FFF716FAFFF763
:101E3000A9FF04213046FFF70EFA072C03D1022137
:101E40003046FFF70AFA6806050EFFF79BFF641C91
:101E5000E4B2082CDAD370BD0008014010B50C4C78
:101E600002212046FFF7F9F904212046FFF7F5F992
:101E7000FFF788FF02212046FFF7EDF9FFF782FF09
:101E800004212046FFF7E7F9BDE81040FFF77ABFCD
:101E90000008014010B5084C02212046FFF7DBF98D
:101EA00004212046FFF7D9F9FFF76CFF2046BDE873
:101EB00010400221FFF7D1B90008014070B50E4D66
:101EC00002212846FFF7C9F9FFF75CFF04212846E5
:101ED000FFF7C3F9FFF756FF02212846FFF7B4F9D1
:101EE00008B1012400E0002404212846FFF7B3F9DB
:101EF000FFF748FF204670BD000801401CB50121D6
:101F00001420CDE900104B020022054905A000F085
:101F1000FCFF0749086008B101F030F900201CBD42
:101F2000990700084170706C69636174696F6E0095
:101F30000000002010B500F0FDF8BDE81040FFF7EC
:101F4000DDBF000010B500220A2103A000F010FC44
:101F50000349886010BD000063616ED3CACFE400FE
:101F60001C00002030B5134C41682268114402F176
:101F7000080388420DD04D885DB96568A94208D034
:101F8000A5688D4200D1A0604D6845604968851AFA
:101F9000CD508168114481420BD04D88002D08D16D
:101FA000A568854200D1A16044684C604068891AE8
:101FB000C15030BD780000202DE9F04F85B00EAC47
:101FC00070CCA9460094740602D5DFF81CB103E07A
:101FD000DFF814B1ABF1110BF40601D526F00106C0
:101FE000F40702D04FF0300A01E04FF0200A00273A
:101FF000B4070BD5002A02DA2D27524206E07407F7
:1020000001D52B2702E0340700D5202700240DF14D
:10201000040E7AB9302201248DF804200CE00A2B3A
:1020200015D002F00F081209A4461BF80880641CA2
:102030000EF80C80002AF2D1AC4200DD2546009A51
:10204000521B16F0110F4FF0200309D016E04FF08D
:102050000A0CB2FBFCF80CFB1828B2FBFCF2E3E71D
:102060003FB1002A05DD521E03E0884200D2037012
:10207000401CB2F1000CA2F10102F6DC27B188424B
:1020800000D20770521E401CF60605D508E08842B3
:1020900001D280F800A0401C161EA2F10102F6DC5D
:1020A000302703E0884200D20770401C2E466D1E88
:1020B000A642F7DC05E0884202D21EF80450057003
:1020C000401C251EA4F1010407DDB9F1000FF2D177
:1020D00003E0884200D20370401C141EA2F10102EA
:1020E000F7DC05B0BDE8F08FFD3800081CB5022113
:1020F0001420CDE900100B020022044904A000F0D6
:1021000004FFBDE81C4001F039B80000351F00088D
:102110006D61696E0000000070B5044C044D02E072
:1021200020688047241DAC42FAD370BD14390008E2
:102130001839000870B5044C044D02E0206880474F
:10214000241DAC42FAD370BD183900081C390008B0
:1021500010B5FDF7E7FF044A5188491C5180BDE8DE
:102160001040FDF7E3BF0000E000002010B5FDF7D0
:10217000D9FF0B4C6188491E09B2618000290ADC35
:1021800000216180FDF7D2FF6068002807D0BDE81C
:10219000104000F0BBBCBDE81040FDF7C7BF10BD4C
:1021A000E000002070B5002833D01A4D296888421D
:1021B0002FD3696888422CD2A0F10C044FF0FF3174
:1021C000154800F064FD60884FF4F55610B1208882
:1021D000B04208D011A000F0FBF9238862882146A4
:1021E00015A000F0F5F9002060802680A8688442E0
:1021F00000D2AC6029686068611A401A2969081A1F
:1022000028612046FFF7AEFEBDE87040024800F0AE
:1022100020BD70BD780000209C030020746F2066F4
:10222000726565206120626164206461746120626E
:102230006C6F636B3A0A00006D656D3A203078254B
:102240003038782C207573656420666C61673A209D
:1022500025642C206D6167696320636F64653A2093
:102260003078253034780A0000487047FC0300209D
:1022700000487047FC23002010B5FFF757FAFFF71E
:102280004FFBFEF787FAA020FFF76CFDFEF7C0FBBF
:10229000FEF7C8F9094842F210710068B0FBF1F08E
:1022A000FFF70CFCFFF738FFFFF7E2FF0446FFF7EC
:1022B000DBFF2146BDE8104000F094BD4C0000203B
:1022C00070B50446FFF744FF0F4D16E00A2809D108
:1022D0000D212846FFF7CCFB80212846FFF762FB43
:1022E0000028F9D014F8011B2846FFF7C1FB802114
:1022F0002846FFF757FB0028F9D020780028E5D1C1
:10230000BDE87040FFF732BF0038014070B50546A8
:102310002C1D2B480168002903D028468847002837
:102320004DD028A0E16B00F053F92AA0216A00F0FB
:102330004FF92CA0616A00F04BF92EA0A16A00F0C1
:1023400047F930A0E16A00F043F932A0216800F0BB
:102350003FF934A0616800F03BF936A0A16800F0B5
:1023600037F938A0E16800F033F93AA0216900F0AC
:102370002FF93CA0616900F02BF93EA0A16900F0A3
:1023800027F940A0E16900F023F942A0216B00F099
:102390001FF944A0616B00F01BF946A0A16B00F08F
:1023A00017F92878400706D500F0C2FE014645A07F
:1023B00000F00EF902E04BA000F00AF9FEE770BD54
:1023C000600000207073723A203078253038780A27
:1023D000000000007230303A203078253038780A1A
:1023E000000000007230313A203078253038780A09
:1023F000000000007230323A203078253038780AF8
:10240000000000007230333A203078253038780AE6
:10241000000000007230343A203078253038780AD5
:10242000000000007230353A203078253038780AC4
:10243000000000007230363A203078253038780AB3
:10244000000000007230373A203078253038780AA2
:10245000000000007230383A203078253038780A91
:10246000000000007230393A203078253038780A80
:10247000000000007231303A203078253038780A78
:10248000000000007231313A203078253038780A67
:10249000000000007231323A203078253038780A56
:1024A00000000000206C723A203078253038780A1D
:1024B000000000002070633A203078253038780A18
:1024C0000000000068617264206661756C74206FA2
:1024D0006E207468726561643A2025730D0A0D0AD6
:1024E0000000000068617264206661756C74206F82
:1024F0006E2068616E646C65720D0A0D0A00000042
:1025000070B50646121D22F00700A0F140052846CE
:102510000022094C40F82240521C102AFAD30162D2
:10252000002141628162C1620163436386634FF0AF
:102530008071C163284670BDEFBEADDE10B5FDF7FA
:10254000F1FD044A1178491C1170BDE81040FDF7F7
:10255000EDBD00007400002010B5FDF7E3FD044A56
:102560001178491E1170BDE81040FDF7DFBD000075
:10257000740000202DE9F04105460E461446304611
:1025800000F00FFE06F1140714B1012C1DD104E078
:102590003946284600F043F817E02C680DE0A4F116
:1025A000140096F8351090F83520914204D239463F
:1025B000143000F034F802E02468AC42EFD1AC42B1
:1025C00003D13946284600F02AF80020BDE8F08102
:1025D0000FB408B503AB00937F210548029A00F0C1
:1025E0006DFF0348FFF76CFE01B05DF814FB0000BF
:1025F0001C0300200268516002680A6001604860A4
:1026000070470268516002680A6001604860704764
:102610000268516002680A60016048607047426861
:10262000116042684A6041600860704701688142F9
:1026300001D101207047002070470168814201D11B
:102640000120704700207047D0E900215160D0E997
:1026500000121160406000607047D0E900215160B5
:10266000D0E9001211604060006070472DE9F0472A
:10267000002809D0C01C20F003053B4EF0688542BD
:1026800004D90020BDE8F0870020FBE70C2D00D224
:102690000C254FF0FF31354800F0F9FAB768316882
:1026A000781AD6F80CC0ACEB050356E00C1862881B
:1026B0008ABB6268121A0C3AAA424DD3626805F1CD
:1026C0001803121A0C3A4FF001094FF4F5589A42C8
:1026D00022D343190C33CA18A2F800804FF0000A25
:1026E000A2F802A0D4F804A0C2F804A0906063602D
:1026F000A4F8029050680CF10C0C604502D001F176
:1027000008028350306928440C303061726982427B
:102710000ED270610CE01FE0A4F802906068621AAB
:10272000801A3269104430617269824200D270614D
:10273000A4F80080BC4203D008E040680844B060C0
:10274000B068428812B172689042F6D1074800F032
:1027500080FA04F10C0095E760688342A6D803482C
:1027600000F077FA00208DE7780000209C0300201D
:1027700070B50D4616460146052000F038F90446AE
:10278000200014D06672143040600060A8B220842B
:102790008000FFF76BFFE06158B100206084A084E7
:1027A000E08404F1280040600060204670BD2046AF
:1027B00070BD204600F045F9002070BD2DE9F74FAF
:1027C00004468B46002600F0B3FC0546FDF7AAFC44
:1027D0008046608C6FF0010A08B9029808B10027A2
:1027E0003DE04046FDF7A2FC5046BDE8FE8F2F635A
:1027F0000298F0B1627A294604F11400FFF7BAFE9C
:10280000029800280CDD00F02DFD064605F14C0075
:1028100002AA0021814600F077FD484600F0CCFD79
:102820004046FDF783FC00F071F9286B40B1286B3E
:10283000DBE74046FDF77AFC5046C5F830A0D4E708
:10284000FDF770FC80460298002808DD00F00AFDC4
:10285000861B0298801B0290002800DA0297608C89
:102860000028C4D0E18CE06950F82100CBF80000CA
:10287000E08C401C80B2E084218C884200D3E78445
:10288000608C401E608404F12800FFF7CFFE20B169
:102890004046FDF74BFC0020A7E7A06A143800F083
:1028A00029FC4046FDF742FC00F030F900209CE78F
:1028B0000022AFF300802DE9F74F04468B46002637
:1028C00000F036FC0546FDF72DFC8046608C218C1F
:1028D0006FF0020A884201D1029808B100273BE05C
:1028E0004046FDF723FC5046BDE8FE8F2F6302985B
:1028F000F0B1627A294604F12800FFF73BFE029806
:1029000000280CDD00F0AEFC064605F14C0002AAE2
:102910000021814600F0F8FC484600F04DFD40469D
:10292000FDF704FC00F0F2F8286B30B1286BDBE710
:102930004046FDF7FBFB5046D6E7FDF7F3FB80462C
:102940000298002808DD00F08DFC861B0298801B91
:102950000290002800DA0297608C218C8842C5D052
:10296000A18CE06940F821B0A08C401C80B2A0840A
:10297000218C884200D3A784608C401C608404F1C1
:102980001400FFF753FE20B14046FDF7CFFB0020B7
:10299000AAE76069143800F0ADFB4046FDF7C6FBBE
:1029A00000F0B4F800209FE710B50346CCB2042A2B
:1029B00015D3810713D1014644EA042343EA0343B4
:1029C00005E00B604B608B60CB601031103A102A31
:1029D000F7D201E008C1121F042AFBD20B46E1B274
:1029E00001E003F8011B521E541CFAD110BD2DE961
:1029F000F04106460F46304600F046F80546E868C6
:102A0000FFF734FE0446D4B100212046EA68FFF700
:102A1000CBFF26720020607208223946204600F063
:102A2000CDF9FDF77FFB064604F10C01281DFFF7E9
:102A3000E1FD3046FDF77AFB2046BDE8F08100203D
:102A4000FBE770B5044600202072FDF76BFB0546DE
:102A500004F10C00FFF7F8FD2846FDF767FB204660
:102A6000BDE87040FFF79EBB70B5044600202072A1
:102A7000FDF758FB054604F10C00FFF7E5FD28467D
:102A8000BDE87040FDF752BB0021074A02EB01137D
:102A90001B78834202D102EB01107047491C0529C3
:102AA000F4DB002070470000900000202DE9F04189
:102AB00005460E4617463046FFF7E6FF0446FFF789
:102AC00047FB6168201D00E009688142FCD1FFF7E7
:102AD0004DFB46F08000287208223946284600F057
:102AE0006DF9FDF71FFB064605F10C01201DFFF7F0
:102AF00081FD3046BDE8F041FDF718BB007A0006C5
:102B000001D50120704700207047000070B5FDF727
:102B100009FB0546124C608898B9A068FEF7E2FFF1
:102B2000421E104850F8321014396068814208D0B3
:102B3000227061600C4A127842B11C311C30FDF7E2
:102B4000F8FA2846BDE87040FDF7F0BA1C311C3099
:102B5000FDF7EFFA2846BDE87040FDF7E7BA000040
:102B6000E0000020BC0300207400002010B50446E3
:102B7000FDF7D8FA024614F8340F20F00F00401C7D
:102B8000207060780A49343C01EBC00104F1140064
:102B90004B6818604B684360486001600548A16B52
:102BA000836819438160BDE810401046FDF7BEBA46
:102BB000BC030020E000002070B50546FDF7B2FA26
:102BC000014605F11404D4E900205060D4E9000264
:102BD00010606460246095F835000A4A02EBC0007A
:102BE0000268824201D1012000E0002020B10648A5
:102BF000AB6B82689A438260BDE870400846FDF77F
:102C000095BA0000BC030020E000002070B50C461F
:102C1000154601460220FFF7EAFE002805D000F124
:102C20001401496009608483457270BD2DE9F0414B
:102C3000054616461F460A4602212846FFF736FF7C
:102C40002C46143464602460AE836F720020BDE8AB
:102C5000F08170B504460025FDF764FA064604F1DC
:102C60001400FFF7E3FC40B1A08B401CA08330466A
:102C7000FDF75CFA012D06D007E06069143800F01A
:102C800039FA0125F3E7FFF741FF002070BD73B566
:102C90000446FDF747FA0646A08B28B1401EA083E4
:102CA0003046FDF743FA21E0019808B300F040FAFE
:102CB000054600202863627A294604F11400FFF7D4
:102CC00059FC0198002809DD05F14C0001AA0021FA
:102CD000044600F019FB204600F06EFB3046FDF77D
:102CE00025FAFFF713FF286B002800D100207CBDD8
:102CF0003046FDF71BFA6FF001007CBD08B509A056
:102D0000FFF766FC0AA0FFF763FC12A00323009004
:102D10000122194612A0FFF75BFCBDE8084018A08D
:102D2000FFF756BC0A205C207C202F0A0000000020
:102D30002D205254202D20202020205468726561BF
:102D400064204F7065726174696E67205379737483
:102D5000656D0A0053657020313420323032300006
:102D6000202F207C205C202020202025642E25641C
:102D70002E2564206275696C642025730A000000AA
:102D80002032303036202D203230313920436F70E0
:102D90007972696768742062792072742D74687220
:102DA000656164207465616D0A000000014600E001
:102DB000491C0A78002AFBD1081A704710B5002A6E
:102DC00007D0034611F8014B03F8014B14B1521E12
:102DD000F8D110BD002101E003F8011B521EFBD108
:102DE00010BD000070B505460A46E81C20F003013E
:102DF00022F00303182B21D9A3F118048C421DD310
:102E0000114C5A1A183AE26021604FF4F5530B80C6
:102E10000C324A600020886048804868084460603E
:102E2000038001214180426082600023012207A1CA
:102E30000848FFF7FBFE2068A06070BD2946BDE88A
:102E4000704005A0FFF7C4BB780000206865617082
:102E5000000000009C0300206D656D20696E6974A0
:102E60002C206572726F7220626567696E206164E2
:102E7000647265737320307825782C20616E64202D
:102E8000656E6420616464726573732030782578A0
:102E90000A00000010B50A4B00245C800020094A9B
:102EA00002EBC00149600960401C0828F8DB0720DC
:102EB00018705C609C6002480C304060006010BD7F
:102EC000E0000020BC03002010B5074CA068FEF70E
:102ED00009FE401E054951F8300014386060BDE815
:102EE00010401C30FDF753B9E0000020BC03002067
:102EF0000020044A02EBC00149600960401C002820
:102F0000F8D07047F800002070472DE9FF47804651
:102F1000DDE90C67894692461D4641460120FFF7D0
:102F200066FD044620000FD02846FFF79FFB68B1DE
:102F30008DE8E10053464A4641462046FEF710FE22
:102F4000204604B0BDE8F0870020FAE72046FFF7EE
:102F500078FD0020F5E700F0F1B8000070B50446F8
:102F600094F83400000702D02046FFF725FE04F154
:102F70004C0000F0FBF9042084F83400FDF7D2F88F
:102F8000054604F114010448FFF73BFB2846FDF712
:102F9000CDF8002070BD0000EC00002070B5134893
:102FA0000468FDF7BFF805462046FFF705FE04203C
:102FB00084F8340004F14C0000F0D8F92046FFF703
:102FC0009DFD012801D1A06F58B104F114010848FA
:102FD000FFF717FB2846FDF7A9F8BDE87040FFF79B
:102FE00095BD2046FFF740FDF4E70000E400002017
:102FF000EC00002000F002F8FCE7000070B527E0CC
:10300000FDF790F80646FEF7A1FD80B31A48046864
:10301000A4F11405D4E900104860D4E90001086067
:1030200064602460FFF794F8A96F09B128468847C7
:103030002846FFF763FD01280FD0FFF797F83046C9
:10304000FDF774F8A86AFFF7ADF82846FFF7F9FC1A
:10305000FEF77CFD0028D3D170BD2846FFF704FDA4
:10306000FFF784F83046BDE87040FDF75FB83046A2
:10307000BDE87040FDF75AB8EC0000201FB52020D5
:10308000C2000721094BCDE90210CDE90032074803
:103090000023074A07A1803800F010F804B0034865
:1030A000BDE81040803800F069B800001C02002024
:1030B000F52F00087469646C650000002DE9FF5F5E
:1030C0008146DDE90E76DDE91054884692469B463E
:1030D000424601214846FFF7E9FCCDE90076CDE9FB
:1030E00002545B46524641464846FEF739FD04B05D
:1030F000BDE8F09F70B5044694F8340000F00F006E
:10310000022802D04FF0FF3070BDFDF70BF80546E6
:1031100004F11400FFF7A1FA04F14C0000F0B6F935
:103120002846FDF703F82046FFF720FD002070BD7C
:103130000148006870470000E4000020F1B5FCF78A
:10314000F1FF05460C480468204600F02AF804F117
:103150004C006A460021064600F0D6F8304600F0E2
:103160002BF92846FCF7E2FFFFF7D0FC206B801C10
:1031700000D120630020F8BDE400002010B53430F9
:103180008178417001228A404260022100F834199E
:10319000FFF7B0FFFFF7CCFF08B1FFF7B7FC002047
:1031A00010BD70B5044694F8340000F00F000128FB
:1031B00002D04FF0FF3070BDFCF7B4FF054694F825
:1031C000340020F00F00801C84F834002046FFF704
:1031D000F3FC04F14C0000F059F92846FCF7A6FF77
:1031E000002070BD10B504466FF00100206304F1AB
:1031F0001400FFF732FA2046FFF7B8FCBDE8104094
:10320000FFF784BC70B5FCF78DFF064613480468D1
:1032100094F8340000F00F0001281AD1D4E9050118
:10322000884216D004F114000546FFF716FA94F808
:1032300035000B4901EBC00041680D6041686960D1
:10324000456028603046FCF771FFFFF75FFC002007
:1032500070BD3046FCF76AFF002070BDE40000201E
:10326000BC03002001480068704700007000002087
:1032700010B509490868401C0860FFF759FF816CC8
:10328000491E816419B9416C8164FFF7BBFFBDE839
:10329000104000F003B800007000002070B5FFF788
:1032A000E1FF0646FCF73EFF054620E015480468AE
:1032B000143C6FF00041A06A301A88421CD22046AC
:1032C000FEF79DFCD4E907108847FFF7CBFF0646C1
:1032D000607A810708D5C10706D020F0010060722E
:1032E000204600F069F802E020F001006072054815
:1032F000FFF7A3F90028D9D02846BDE87040FCF7B5
:1033000015BF0000F8000020002909D0012904D0D1
:10331000022908D003290FD10AE0406A10600BE0AF
:103320001168416208E0417A21F00201417203E034
:10333000417A41F002014172002070472DE9F843C3
:103340000E46089D1746984601460A20FFF74FFB98
:1033500004464CB143463A46314620460095FEF7B6
:103360003BFC2046BDE8F8830020FBE770B505462E
:10337000FCF7D8FE04462846FEF741FC2046FCF741
:10338000D5FE2846FFF770FB002070BD2DE9F843FD
:103390000746DDE9088415461E460A460A213846D6
:1033A000FFF784FB43463246294638460094FEF731
:1033B00013FCBDE8F88300002DE9F8430446FCF750
:1033C000B1FE05462046FEF71AFC607A20F00100A7
:1033D00060722846FCF7AAFEFFF744FF616A0844C2
:1033E000A062FCF79FFE0746DFF89CC0CDF800C046
:1033F00000226E460CEBC20045680DE00068A0EBB1
:10340000C201A36A4969994204D0C91A6FF0004306
:10341000994205D346F8220056F82200A842EDD181
:103420002AB156F822100831531C46F82310521CBA
:10343000002ADFD01448001FD0F8008008F10108EE
:10344000C0F8008004F114010098FFF7E1F80225AC
:103450000EE05FEA88700DD1C5F1010004EBC001F8
:10346000143156F82000FFF7D3F84FEA98086D1C86
:10347000012DEED9607A40F0010060723846FCF709
:1034800055FE0020BDE8F883F800002070B5044622
:10349000607AC0070ED0FCF745FE05462046FEF7D1
:1034A000AEFB2846FCF742FE607A20F00100607215
:1034B000002070BD4FF0FF3070BD00002DE9FF4FC0
:1034C00083B081468B4609EB0B074C46A74203D2DB
:1034D0004FF0FF37C9F1FF3B4FF0200A12E12528DA
:1034E00004D0BC4200D22070641C08E1002505997C
:1034F000491C059108782D2814D02B2815D0202898
:1035000016D0232817D0302818D04FF0FF38464661
:10351000059A1278303A0A2A13D205A800F037F932
:1035200006461AE045F01005E1E745F00405DEE740
:1035300045F00805DBE745F02005D8E745F0010533
:10354000D5E72A2809D1491C0591069840C806905C
:10355000002E02DA764245F01005059801782E29F2
:1035600018D1401C05900178A1F130020A2A04D23A
:1035700005A800F00CF9804607E02A2905D1401C77
:103580000590069850F8048B0690B8F1000F01DA08
:103590004FF000080021059A1078682801D06C28A7
:1035A00002D10146521C05920A23059800786F2823
:1035B00071D00CDC632820D004DC25286CD058287E
:1035C0000DD187E0642801D0692808D186E07028F1
:1035D00063D073282FD0752871D078287CD0BC4256
:1035E00001D225202070641C05990878002868D035
:1035F000BC4200D22070641C81E0E80605D507E0DB
:10360000BC4201D284F800A0641C761E002EF7DCB8
:10361000069810F8041B0690C8B2BC4200D2207075
:10362000641C04E0BC4201D284F800A0641C761E35
:10363000002EF7DC63E0069808C8069003B943A3A0
:103640001846FFF7B3FBB8F1000F02DD404500DD7F
:103650004046E90605D508E0BC4201D284F800A046
:10366000641C3146761E8142F6DC002106E0BC4235
:1036700001D21A782270641C5B1C491C8142F6DB63
:1036800004E0BC4201D284F800A0641C3146761EDE
:103690008142F6DC33E01BE014E0701C02D1082606
:1036A00045F00105CDE9006806980295102304C88D
:1036B000069039462046FEF77FFC04461FE00FE0E7
:1036C0000AE02BE0BC4201D225202070641C16E0E9
:1036D000082305E045F04005102301E045F0020510
:1036E0006C291ED0682920D0069804C80690CDE920
:1036F0000068394620460295FEF75EFC04460598B0
:10370000401C05900598007800287FF4E8AEBBF1D6
:10371000000F15D0BC4211D2207011E0491E059156
:10372000EDE7069804C80690E1E7069830F8041B18
:1037300006908AB2A807DAD512B2D8E707F8010CCA
:1037400007B0A4EB0900BDE8F08F0000284E554CEF
:103750004C2900000020704700207047002070476F
:103760000020704710B5FCF7DDFCFEF785FDFFF784
:10377000C5FAFFF7BDFBFFF78DFBFEF7B7FCFFF7C0
:10378000C3FBFFF77BFCFFF79FFB002010BD10B5CC
:10379000024600206FF02F0407E04B1C13600978ED
:1037A00000EB800004EB4000084411680B78303BCC
:1037B0000A2BF2D310BD000001480068FFF749BA98
:1037C0002000002001480068FFF743BA1C000020D9
:1037D00000000000320000006400000096000000BD
:1037E000C8000000FA0000002C01000000000100E9
:1037F00002000100030001000200010004000100BA
:1038000002000100030001000200010005000100A8
:103810000200010003000100020001000400010099
:103820000200010003000100020001000600010087
:103830000200010003000100020001000400010079
:103840000200010003000100020001000500010068
:103850000200010003000100020001000400010059
:103860000200010003000100020001000700010046
:103870000200010003000100020001000400010039
:103880000200010003000100020001000500010028
:103890000200010003000100020001000400010019
:1038A0000200010003000100020001000600010007
:1038B00002000100030001000200010004000100F9
:1038C00002000100030001000200010005000100E8
:1038D00002000100030001000200010004000100D9
:1038E0000200010003000100020001003031323308
:1038F0003435363738396162636465660030313299
:1039000033343536373839414243444546000000A8
:103910006137000859370008553700085D3700083F
:103920004039000800000020000100002C1B0008A6
:10393000403A000800010020003300003C1B000852
:103940000000000000000000000000000000000077
:103950000000000000000000000000000000000067
:10396000000000000000000000FFFF000000000059
:103970000000000000000204060800000000010230
:1039800003040102030406070809000000A24A0418
:1039900000000000000000000102030406070809FF
:1039A0000000000000000000000000000000000017
:1039B0000000000000000000000000000000000007
:1039C00000000000000000000000000000000000F7
:1039D00001000000940000209400002080000000FE
:1039E00002000000A4000020A4000020200000002D
:1039F00004000000B4000020B400002020000000FB
:103A000005000000C4000020C400002030000000B9
:103A10000A000000D4000020D40000202C00000088
:103A20000000000000000000000000000000000096
:103A30000000000000000000000000000000000086
:04000005080000ED02
:00000001FF
