:020000040800F2
:10000000083400200101000809010008CB010008A4
:100010000D0100080F010008110100080000000098
:1000200000000000000000000000000013010008B4
:10003000150100080000000053010008ED1E000833
:100040001B0100081B0100081B0100081B01000820
:100050001B0100081B0100081B0100081B01000810
:100060001B0100081B0100081B0100081B01000800
:100070001B0100081B0100081B0100081B010008F0
:100080001B0100081B0100081B0100081B010008E0
:10009000552200081B0100081B0100081B01000875
:1000A0001B0100081B0100081B0100081B010008C0
:1000B0001B0100081B0100081B0100081B010008B0
:1000C0001B0100081B0100081B0100081B010008A0
:1000D0001B0100081B0100081B0100081B01000890
:1000E0001B0100081B0100081B010008DFF80CD0F1
:1000F00000F0C2FB00480047FF0800080834002059
:100100000648804706480047FEE7FEE7FEE7FEE7B1
:10011000FEE7FEE7FEE7FEE7FEE7FEE77D1F0008DD
:10012000ED000008EFF3108072B6704780F310887E
:100130007047334A1368012B04D04FF0010313605A
:10014000304A1060304A116030484FF080510160F1
:100150007047EFF3108272B62948016891B14FF0F1
:10016000000101602748016829B1EFF3098121E905
:10017000F00F00680160244909680968B1E8F00FD0
:1001800081F3098882F310884EF0040E70471E49EF
:1001900008601C494FF00000086019494FF0010049
:1001A00008601B484FF47F01D0F8002041EA0201AB
:1001B000016016484FF080510160164800680068E1
:1001C00080F3088861B662B670471EF0040F0CBF5A
:1001D000EFF30880EFF3098020E9F00F40F804ED19
:1001E0001EF0040F0CBF80F3088880F3098800B567
:1001F00003F0FCF85DF804EB4EF0040E70470000CD
:1002000070000020680000206C00002004ED00E079
:1002100020ED00E008ED00E030B480EA010202F0D9
:10022000004530F0004221F0004013D090B1C30DE2
:10023000D40DC2F31601C0F31600E41A41F4000114
:1002400040F400027D34914201D3641C00E0490077
:10025000002C02DA30BC002070474FF4000000236D
:10026000914201D3891A034340084FEA4101F7D173
:1002700051B1914202D14FF0004105E002D24FF05E
:10028000010101E06FF0010103EBC450284430BCD0
:1002900000F02FB92DE9FE4F81EA030404F0004479
:1002A00021F0004100944FF0000B23F0004350EA8E
:1002B00001045ED052EA03045BD0C3F30A54C1F3D5
:1002C0000A552C44A4F2F3340194A0FB0254C1F368
:1002D000130141F48011C3F3130343F4801301FBB2
:1002E000024400FB034E840A970A44EA815447EA19
:1002F0008357A4FB076802958D0A05FB07854FEA23
:10030000932C04FB0C542705029D4FEA065847EA3C
:100310001637B5EB08056EEB070C870E920E47EA11
:10032000811742EA8312A7FB0201B6EB0B0164EBD3
:1003300000042B0D43EA0C335E1844EB1C50DA46E4
:100340005146E7FB0201C5F313044FEA0B3343EABE
:1003500014534FEA0432019C43EA0603A4F10C044F
:100360000294009CCDE900B400F009F903B0BDE8A7
:10037000F08F00200146F9E770B521F000430343F8
:100380000CD0C1F30A550024D5EB040564EB04033B
:10039000D617AD1AB34102DB0020014670BD20180C
:1003A00041EB025170BDC10F80EAE0700844CA07FA
:1003B0009623002100F0A6B80EB540F23341029119
:1003C0000021CDE900110A460B4600F0D8F803B031
:1003D00000BD00F0004220F00040C10DC0F3160047
:1003E00040F400007F2901DA00207047962903DCE1
:1003F000C1F19601C84001E096398840002AF4D046
:100400004042704730B5041E71F1000404DB4FF028
:100410000044404264EB0101141E73F1000405DB4B
:100420001C464FF00043524263EB04038B4208BF6B
:10043000824230BD30B5041E71F1000404DB4FF080
:100440000044404264EB0101141E73F1000405DB1B
:100450001C464FF00043524263EB0403994208BF2D
:10046000904230BD30B50B460146002020220124C9
:1004700009E021FA02F59D4205D303FA02F5491B72
:1004800004FA02F52844151EA2F10102F1DC30BD88
:100490002DE9F05F0546002092469B4688460646B9
:1004A000814640241BE0284641464746224600F04C
:1004B00004FA53465A46C01A914110D311461846C1
:1004C000224600F0EBF92D1A67EB01084F46224651
:1004D0000120002100F0E2F917EB00094E41201E37
:1004E000A4F10104DFDC484631462A464346BDE814
:1004F000F09F0029A8BF7047401C490008BF20F0AA
:100500000100704710B4B0FA80FC00FA0CF050EA19
:10051000010404BF10BC704749B1CCF1200421FA9A
:1005200004F411FA0CF118BF012121430843A3EB95
:100530000C01CB1D4FEA00614FEA102042BF0020A2
:1005400010BC704700EBC35010440029A4BF10BC7E
:100550007047401C490008BF20F0010010BC7047E4
:1005600010B5141E73F1000408DA401C41F10001BB
:1005700092185B411A4301D120F0010010BD2DE912
:10058000F04D92469B4611B1B1FA81F202E0B0FA09
:1005900080F22032904600F081F904460F4640EA8E
:1005A0000A0041EA0B0153465A46084313D011464C
:1005B00053EA010019D0C8F14002504600F07DF91D
:1005C00005460E4650465946424600F067F9084334
:1005D00005D0012004E020463946BDE8F08D00201A
:1005E000054346EAE0762C4337430A986305E40A5C
:1005F000A0EB08000022FD0A44EA47540A3002D565
:1006000000200146E9E7010510196941DDE90845C7
:1006100000196941BDE8F04DA2E72DE9FE4F804683
:1006200081EA0300C00F0C46009021F0004123F046
:100630000045B8EB0200A94105D24046214690464C
:100640001C460B46024623F00040104347D0270DBE
:10065000C7F30A00C3F30A510290401A01904028E0
:100660006BDAC3F3130040F4801B0098924620B16C
:100670000023D2EB030A63EB0B0B01985946C0F140
:100680004002504600F00AF906460D4650465946CB
:10069000019A00F022F910EB08006141002487EA7A
:1006A000115284EAE7731A4340D0009A62B3019A68
:1006B000012A4FEA075215DC001B61EB02014FF0E3
:1006C000004202EA0752CDE90042001C41F58011C8
:1006D00032462B46FFF753FF03B0BDE8F08F40468C
:1006E0002146F9E7001B61EB0201001C41F5801374
:1006F00000185B412018A2F5001747EB030140EA00
:10070000D570B6196D4111E06D084FEA360645EA1D
:10071000C0754FEA0752001B61EB0201001C41F556
:10072000801149084FEA30000019514132462B46EA
:1007300003B0BDE8F04FFFF713BF0098012240005F
:100740000023D0EB020263EBE073009821464FEAEE
:10075000E074B8EB000061EB0401E9E783F00043CB
:100760005BE781F0004158E72DE9F04D81EA030491
:1007700004F0004B21F0004514464FF0000A23F02E
:10078000004150EA050220D054EA01021DD0C5F311
:100790000A570246C5F31303C1F31300C1F30A5607
:1007A00040F4801543F48013A7EB0608101BD646CF
:1007B00008F2FD3873EB050002D308F1010801E0EF
:1007C00092185B41B8F1000F03DA00200146BDE842
:1007D000F08D00204FF48011064684460EE0171B72
:1007E00073EB050705D3121B63EB050306434CEAC5
:1007F000010C49084FEA300092185B4150EA0107AA
:10080000EDD152EA030012D082EA040083EA050126
:10081000084305D0101BAB4106D20122002306E09D
:1008200000224FF0004302E06FF0010253101AEB78
:1008300006004CEB085110EB0A0041EB0B01BDE840
:10084000F04DFFF78DBEC1F30A52C1F3130140F220
:10085000FF3341F480119A4202DA002001467047CA
:1008600040F233439A42A2F2334202DC524200F099
:1008700024B800F013B80000064C074D06E0E0680D
:1008800040F0010394E8070098471034AC42F6D3D7
:10089000FFF730FC004A0008204A0008202A04DB49
:1008A000203A00FA02F1002070479140C2F1200383
:1008B00020FA03F3194390407047202A04DB203AC2
:1008C00021FA02F00021704721FA02F3D040C2F170
:1008D00020029140084319467047202A06DBCB17B7
:1008E000203A41FA02F043EAE07306E041FA02F3EB
:1008F000D040C2F12002914008431946704710B51C
:1009000003F0A0FF002010BD002904D0816841F051
:10091000010181607047816821F0010181607047A9
:10092000002904D0816841F480718160704781683A
:1009300021F48071816070472DE9F05F4C4DDFF844
:1009400034A12878AAF11C0707F15808002837D1EC
:1009500000244FF6FF764FF0140906EA44010AEB33
:100960008400022202F0BAF90A2003F064FB09EBCA
:10097000440081B207EB8400022202F0AFF90A20A2
:1009800003F059FB641C072CE7DB0024661C57F8B6
:10099000241057F82600401AFFF705FD81465AF843
:1009A00026005AF82410401AFFF7FDFC4946FFF7CD
:1009B00033FC48F82400641C062CE7DB0120287077
:1009C000002000F0F9F90646DFF8ACB0D0208BF833
:1009D0000B00AA208BF80C0000F08EFF8BF80D00A6
:1009E00000F0D4FF8BF80E0000F0D0FF014623A0EA
:1009F00002F05EFE00F0CAFF012813D00020A860BC
:100A00001D49712000F069FD1B49214800F0BAFD25
:100A1000314620A002F04CFEA968BDE8F05F21A09D
:100A200002F046BE00245AF82400B04215DC611CD6
:100A30005AF82110B14210DB58F8249019F0FF4FFA
:100A40000BD0301AFFF7AFFC4946FFF7E5FBFFF785
:100A5000C0FC57F824100844A860641C062CE2DB94
:100A60002889010A8BF80F108BF81000C8E70000E6
:100A7000280000204C01002008010020506F7369FD
:100A800074696F6E5F436865636B203D25640A007F
:100A90000064004063757272656E74203D25640ABF
:100AA0000000000064617461203D25640A000000BC
:100AB000014600208968490700D50120704701469A
:100AC00000208968090700D50120704710B54268E9
:100AD0000E4B1A400C790B6842EA04221343436020
:100AE00082680B4B1A40D1E9024323434C7942EA16
:100AF000440213438360C26A22F47002097C491ED7
:100B0000C9B242EA0151C16210BD0000FFFEF0FF10
:100B1000FDF7F1FF70B5072609290AD9C568A1F1CB
:100B20000A0404EB4404A640B543A3401D43C5603A
:100B300007E0056901EB4104A640B543A3401D430E
:100B400005611F23072A09D2446B521E02EB820261
:100B500093409C4391400C43446370BD0D2A09D2DD
:100B6000046BD21F02EB820293409C4391400C43E2
:100B7000046370BDC46A0D3A02EB820293409C4349
:100B800091400C43C46270BD816841F008018160EE
:100B90007047002904D0816841F4A001816070474A
:100BA000816821F4A00181607047816841F00401EF
:100BB000816070474FF0FF35064C04E000F00CF800
:100BC000012003F038FA2946206803F0D0F8002805
:100BD000F6D1F3E720000020FFF7AEBE08B50121F3
:100BE000042001F09FF8E020ADF8000000208DF80F
:100BF00003006946014800F0CCFD08BD0008014033
:100C000010B5FFF7EBFFBDE8104000F001B80000A1
:100C100070B590B00121084601F05AF80121480250
:100C200001F080F8324E304600F01AFD3148059050
:100C300031480690002407940325089509948021E3
:100C40000A9148000B9080000C9020200D9000022B
:100C50000E900F9405A9304600F07EFD012130462C
:100C600000F0F1FC009401208DF804008DF80500DF
:100C70004FF46020029003948DF810501D4C69468B
:100C80004C3C2046FFF722FFA80301F017F805238C
:100C9000022219462046FFF73DFF052303220621C5
:100CA0002046FFF737FF0523012207212046FFF7E3
:100CB00031FF01212046FFF733FE01212046FFF7D7
:100CC00023FE2046FFF760FF2046FFF7F8FE0028CE
:100CD000FAD12046FFF769FF2046FFF7E9FE00281A
:100CE000FAD101212046FFF754FF10B070BD00007B
:100CF000080002404C240140340000202DE9F84354
:100D000001210C2001F00EF88020ADF800004824ED
:100D10008DF803401B4F6946384600F03AFD3D15FB
:100D2000ADF8005010208DF8030003208DF802006C
:100D30006946384600F02DFD6E00ADF8006069464A
:100D4000384600F026FD2021ADF800108DF8034054
:100D5000DFF834806946404600F01BFD4021ADF8C5
:100D600000108DF803406946404600F012FD314600
:100D7000384600F06AFD2946384600F066FDBDE8B9
:100D8000F8830000000C014000080140FFF7B6BFE7
:100D900010B501F077F902F045F901F017F901F00B
:100DA00025F800F063FD03480068BDE8104003F03B
:100DB00045B900000000002070B59CB00024134E1F
:100DC00001AD308845F82400012003F034F9641C9B
:100DD000E4B21B2CF5D300210020C1F11A060BE070
:100DE000421C55F8203055F82240A34203DD45F857
:100DF000204045F82230D0B28642F1DC491CC9B20D
:100E00001A29E9D30E981CB070BD000034000020F0
:100E100070B5044601215548FFF776FD6178544DC1
:100E20000026544C962944D005DC59B1322919D0FA
:100E3000642916D12AE0C8294ED0FA295FD0FF29AB
:100E40000FD16FE0022214214B4801F07CFF0020FB
:100E5000FFF7B2FF286002220021454801F073FF2E
:100E6000667371E0444802221621001D01F06BFFF9
:100E70000020FFF7A1FF01462846696002221146C3
:100E8000001D01F060FF322060735DE03A480222ED
:100E90001821083001F057FF0020FFF78DFFA860F0
:100EA000334802220421083001F04DFF64206073B2
:100EB0004AE0314802221A210C3001F044FF0020A0
:100EC000FFF77AFFE8602A48022206210C3001F081
:100ED0003AFF9620607337E0274802221C21103029
:100EE00001F031FF0020FFF767FF28612048022250
:100EF0000821103001F027FFC820607324E01E484D
:100F000002221E21143001F01EFF0020FFF754FFC3
:100F10006861174802220A21143001F014FFFA20F8
:100F2000607311E0144802222021183001F00BFFF9
:100F30000020FFF741FFA8610D4802220C21183064
:100F400001F001FFFF2060730C480670D120E072B1
:100F500000F0D2FC20730749712000F0BEFABDE812
:100F600070400449064800F00DBB00000024014019
:100F70006C01002008010020B04800082800002073
:100F80000064004030B5082310240422B1F5007F2E
:100F900033D011DC20292AD007DC012922D00429F2
:100FA00023D0082900D1C46030BD402921D0B1F53B
:100FB000807FF9D1426030BD0025B1F5004F20D0CF
:100FC00008DCB1F5806F1AD0B1F5006FF3D18561FF
:100FD000426030BDB1F5803F0DD0B1F5003FF8D192
:100FE000446030BD0849816030BDC36030BD0361DD
:100FF00030BD046130BD436030BD426030BD4260F1
:1010000030BD8561426030BD0101010010B500F0C6
:10101000D1F800F00DFA00F0DDF9BDE8104000F065
:1010200087B8000010B50C4988420AD101214C064E
:10103000204600F069FE2046BDE81040002100F087
:1010400063BE01218C06204600F05EFE2046BDE80E
:101050001040002100F058BE00640040F0B5827AD4
:1010600001219140304C226842F0010222602E4D55
:101070001C352A688A432A602B4A067B0C322B4B8C
:10108000002E14D116688E4316604688C78846EA3B
:101090000746877A03EBC707C7F840660688878844
:1010A00046EA0746877A03EBC707C7F84466067B1C
:1010B000012E14D116680E4316604288068842EA53
:1010C0000642867A03EBC606C6F84026C2888688A2
:1010D00042EA0642867A03EBC603C3F84426124A64
:1010E000C37A121D3BB113680B4313600E4A038988
:1010F000143223B106E013688B431360F6E71368DC
:101100008B4313600389012B02D113680B431360D7
:10111000407B012802D1286808432860206820F01D
:1011200001002060F0BD000000660040006000404B
:101130007FB500248DF80A4001258DF80B508DF8FD
:101140000C402720ADF80000ADF8020000F0D4FB01
:1011500030B94FF40870ADF8000011A002F0A8FA01
:1011600000F0CAFB012806D14FF48460ADF80200FC
:101170000DA002F09DFA4FF48050ADF804004FF43A
:101180003070ADF80600ADF808408DF80D50684697
:10119000FFF764FF01220221054800F08FF87FBDB0
:1011A00043414ED7F300000043414ED3D20000002C
:1011B0000064004038B50121042000F0B3FD4FF475
:1011C0008050ADF8000018208DF80300074C6946E8
:1011D000204600F0DEFAE114ADF8001048218DF849
:1011E00003106946204600F0D4FA38BD00080140DB
:1011F0000246002053690B425DD0B1F5807F4AD092
:1012000016DC082937D009DC01292CD002292ED080
:10121000042950D1D068082100F00FBA10292ED02F
:10122000202930D0402946D11069102100F005BA9C
:10123000B1F5004F3BD00CDCB1F5007F2FD0B1F5FC
:10124000806F30D0B1F5006F35D19069702100F01A
:10125000F4B9B1F5803F1AD0B1F5003F2BD15068F9
:10126000102100F0EAB99068134900F0E6B9D0689F
:10127000032100F0E2B9D068102100F0DEB9106956
:10128000032100F0DAB91069082100F0D6B95068DE
:10129000082100F0D2B99069012100F0CEB990691F
:1012A000022100F0CAB99069042100F0C6B9506863
:1012B000042100F0C2B9704701010100002A03D0E7
:1012C00042690A434261704742698A4342617047FA
:1012D00010B50022036823F002030360036843F0A3
:1012E000010303604FF6FF7300E0521C4468E407FB
:1012F00001D19A42F9D14268D2073ED08A79012AB7
:101300003DD0026822F080020260CA79012A3BD0F7
:10131000026822F0400202600A7A012A39D002688B
:1013200022F0200202604A7A012A37D0026822F0B5
:10133000100202608A7A012A35D0026822F008027F
:101340000260CA7A012A33D0026822F004020260E5
:101350008A78CC78920742EA04620C7942EA044225
:101360004C79098842EA0452491E0A43C261016865
:1013700021F001010160002120E0002010BD026881
:1013800042F080020260C0E7026842F04002026060
:10139000C2E7026842F020020260C4E7026842F03D
:1013A00010020260C6E7026842F008020260C8E765
:1013B000026842F004020260CAE7491C4268D20790
:1013C00001D09942F9D14068C00701D0002010BD7A
:1013D000012010BD3EB50121480600F087FC134CEA
:1013E0002046FFF71FFE684600F07EF800218DF8CA
:1013F000061001228DF807208DF808208DF80910BD
:101400008DF80A108DF80B108DF802108DF803106E
:1014100006218DF8041003208DF80500ADF80010AA
:1014200069462046FFF754FF3EBD000000640040BF
:1014300008B54FF4407000F09FFA14208DF80000BA
:1014400000208DF801008DF8020001208DF80300C6
:10145000684600F05FFA08BD10B500EB0113D3F841
:10146000B04104F004041472002C2CD0D3F8B04125
:10147000E408546003F5D8731C6804F00204547245
:101480005C6804F00F0494725C68240AD4749C684D
:10149000D4729C68240A14739C68240C54739C684E
:1014A000240E9473DC68D473DC68240A1474DC683A
:1014B000240C5474DB681B0E937449B1016941F02C
:1014C0002001016110BDD3F8B041640D1460D1E773
:1014D000C16841F02001C16010BD086000200872A1
:1014E000487208208872704700218171C1710172B1
:1014F00041728172C1728170C17003210171022138
:101500004171012101807047044800F0E5F900F0C5
:1015100007F8012002F08FFDF9E700001C01002010
:1015200010B517484FF0FF321449006802F0B6F9C1
:101530001248001F40680178C12908D0C2290AD08A
:10154000C3290FD0C42914D00021017010BDBDE8FB
:10155000104000F0CFB9094ABDE81040921E511E5C
:1015600000F00EBB0549BDE81040891E481E00F082
:1015700055BBBDE81040FFF74BBC00002C0000201D
:101580002400002030B50246002093685B010AD495
:101590009068000101D5012005E09068C00001D5E8
:1015A000022000E0042004283BD002EB0012D2F815
:1015B000803103F00103C2F880310B7A93B3D2F883
:1015C00080414D681C434B7A43EAC5031C43C2F873
:1015D00080418B7A03F00F038B7202F5C07253685F
:1015E00023F00F03536053688C7A23435360CB7A04
:1015F0008C7B0D7B43EA04634C7B240444EA052482
:1016000023439360CB7B8C7C43EA04634C7C097C52
:10161000240444EA01210B43D360116841F0010125
:10162000116030BDFFE7D2F880314C7A23430C883B
:1016300043EA4453C2F88031CBE7024600200A4215
:1016400000D001207047002904D0016841F0010159
:101650000160704701684FF6FE72114001607047EB
:1016600001684FF6FE721140016000210160416087
:101670008160C1603649364A0839904204D14868D1
:1016800040F00F0048607047314A1432904204D154
:10169000486840F0F000486070472D4A2832904278
:1016A00004D1486840F4706048607047284A3C3272
:1016B000904204D1486840F4704048607047244A22
:1016C0005032904204D1486840F47020486070471E
:1016D0001F4A6432904204D1486840F47000486068
:1016E00070471B4A7832904204D1486840F07060DD
:1016F00048607047174A111F904204D1086840F0B3
:101700000F0008607047134A1432904204D10868F1
:1017100040F0F000086070470E4A2832904204D131
:10172000086840F47060086070470A4A3C32904292
:1017300004D1086840F4704008607047054A503290
:101740009042FAD1086840F47020086070470000A9
:10175000080002400804024030B5026847F6F07302
:101760009A430C6A8B682343D1E904452C432343F5
:101770008C692343CC6923434C6A23438C6A2343FB
:1017800013430360CA6842600A6882604968C160A6
:1017900030BD2DE9F0410022CC7804F00F03E406BF
:1017A00001D58C7823430C784FF00F0714F0FF0F0E
:1017B0004FF0010C1CD005680CFA02F40E8826408C
:1017C000A64211D1960007FA06F825EA080503FAA1
:1017D00006F848EA0505CE78282E02D0482E02D019
:1017E00002E0446100E00461521C082AE4D3056071
:1017F0000A88FF2A1ED94568002202F108060CFA61
:1018000006F40E882640A64210D1960007FA06F884
:1018100025EA080503FA06F848EA0505CE78282ED9
:1018200000D14461CE78482E00D10461521C082AB0
:10183000E3D34560BDE8F0810246002092680A4289
:1018400000D001207047416170470161704700007E
:10185000054C4FF0FF352946206802F088FA012038
:1018600002F0E9FBF7E700001C00002010B545F28C
:10187000555000F02BF8042000F01CF840F27120C5
:1018800000F01EF800F00EF8BDE81040AFF3008045
:1018900002494CF6CC400860704700000030004020
:1018A000AFF3008002494AF6AA20086070470000A2
:1018B000003000400149486070470000003000409F
:1018C000014988607047000000300040014908600D
:1018D000704700000030004000210022026042609A
:1018E00002728272C2744318DA72491CC9B20829A2
:1018F000F9D370477047000010B580210448FFF706
:101900009BFF012801D0002010BD012010BD000068
:10191000000C014070B50F23C27801260178002A1F
:101920001ED0144A126802F4E062C2F5E062120AA4
:10193000C2F10404D3404578A54082781A402A4376
:10194000120101F1E02181F80024007800F01F016C
:101950008E404009800000F1E020C0F8006170BDB9
:1019600001F01F0086404809800000F1E020C0F827
:10197000806170BD0CED00E0024908430249086037
:10198000704700000000FA050CED00E02DE9FC5F57
:10199000DFF868A1DFF868B15A4EDFF86C916FF09C
:1019A0000B084FF06637B088FEF706FD4246FEF79B
:1019B000E3FC3A464B46FEF76DFC04460D46708844
:1019C000FEF7FAFC4246FEF7D7FC3A464B46FEF7D6
:1019D00061FC02460B464DA0CDE9004500F076FCC7
:1019E000B288718856A000F071FC7088FEF7E4FCA4
:1019F0004246FEF7C1FC3A464B46FEF74BFC5446C6
:101A00005D4622462B46FEF715FD12D2B088FEF742
:101A1000D3FC4246FEF7B0FC3A464B46FEF73AFC92
:101A20004FEA6A02544BFEF705FD02D20120BDE8E1
:101A3000FC9F7088FEF7C0FC4246FEF79DFC3A46CC
:101A40004B46FEF727FCA2462C4652462346FEF79D
:101A5000F1FC10D2B088FEF7AFFC4246FEF78CFCDA
:101A60003A464B46FEF716FC444A434BFEF7CAFC87
:101A700001D20220DBE77088FEF79EFC4246FEF7AB
:101A80007BFC3A464B46FEF705FC52462346FEF7E2
:101A9000B9FC10D2B088FEF78FFC4246FEF76CFC12
:101AA0003A464B46FEF7F6FB344A334BFEF7C2FC90
:101AB00001D20320BBE77088FEF77EFC4246FEF7AA
:101AC0005BFC3A464B46FEF7E5FB52462346FEF7E3
:101AD00099FC10D2B088FEF76FFC4246FEF74CFC32
:101AE0003A464B46FEF7D6FB244A234BFEF78AFCC8
:101AF00001D200209BE7002099E700009A9999996C
:101B00009999E93F3400002066660A404144435FEA
:101B1000436F6E76657274656456616C75655B3192
:101B20005D3D2566092C4144435F436F6E766572C7
:101B300074656456616C75655B325D3D25660A00AF
:101B40004144435F436F6E76657274656456616CA1
:101B500075655B315D31313D2564092C4144435F3E
:101B6000436F6E76657274656456616C75655B3241
:101B70005D32323D25640A00CCCCFC3FCDCCCCCCD0
:101B8000F0B543780125022603270024002B10D04E
:101B9000012B10D0022B10D0032B10D00C708078AA
:101BA00078B101280FD002280FD003280FD014706D
:101BB000F0BD0C70F3E70D70F1E70E70EFE70F70FA
:101BC000EDE71470F0BD1570F0BD1670F0BD177024
:101BD000F0BD70B504460D46002A1CD0012A13D072
:101BE000022A03D0032A08D0256170BD65614FF435
:101BF000E16002F020FA256170BD65614FF4167056
:101C000002F019FA256170BD65614FF4966002F02B
:101C100012FA256170BD256170BD000070B50C46DB
:101C20000278254D4FF48061002A19D0012A1CD07A
:101C3000022A1FD0032A22D000222846FFF7C9FF1C
:101C400022784FF40061FAB1012A23D0022A27D06A
:101C5000032A2BD02846BDE870400022FFF7B9BF09
:101C600000222846FFF7B5FFEAE701222846FFF7E2
:101C7000B0FFE5E702222846FFF7ABFFE0E70322CB
:101C80002846FFF7A6FFDBE72846BDE870400022A4
:101C9000FFF79FBF2846BDE870400122FFF799BFBC
:101CA0002846BDE870400222FFF793BF2846BDE8F2
:101CB00070400322FFF78DBF000C0140034A5168BA
:101CC00021F4404101435160704700000010024080
:101CD000054A002903D05169014351617047516998
:101CE000814351617047000000100240054A0029FD
:101CF00003D0D1690143D1617047D1698143D1617A
:101D00007047000000100240054A002903D0116905
:101D100001431161704711698143116170470000EF
:101D200000100240054A002903D0916901439161E6
:101D30007047916981439161704700000010024033
:101D400010B5264A516801F00C01254B002927D017
:101D5000042927D0082927D00360516801F0F00139
:101D60000909204B5C5C0168E1404160546804F45F
:101D7000E064240A1C5D21FA04F48460546804F4CD
:101D80006054E40A1B5DD940C160526802F44042CD
:101D9000920B144B1B1F9A5CB1FBF2F1016110BD59
:101DA0000360DAE70360D8E7516801F47011536803
:101DB00003F48033022404EB914133B153689B0355
:101DC00007D5094B59430160C7E7074B59430160E9
:101DD000C3E7034B59430160BFE700000010024016
:101DE00000127A003E00002000093D0010B50022DC
:101DF000012106A001F07AFF064C2060002202219A
:101E000005A001F073FF606010BD000073726D31BA
:101E1000000000001C000020426C6F6F645F507275
:101E20006573737572655F43616C69627261746931
:101E30006F6E5F53656D0000AFF300800CB500223C
:101E4000019200922748016841F4803101604FF40B
:101E5000A063016801F4003100910199491C0191CE
:101E6000009911B901999942F3D10168890302D50A
:101E70000121009100E000920099012930D11A4916
:101E80000A6842F010020A600A6822F003020A603F
:101E90000A6842F002020A6041684160416841609C
:101EA000416841F480614160416821F47C114160E6
:101EB000416841F4E8114160016841F080710160BE
:101EC00001688901FCD5416821F003014160416846
:101ED00041F0020141604168C1F381010229FAD158
:101EE0000CBD0000001002400020024010B501F0BF
:101EF00095FB02F02DFABDE8104001F09DBB0000FB
:101F000010B51A4A506800F00C01194B1948002905
:101F10000ED004290ED008290ED003605168154A4E
:101F2000C1F30311121D515C0268CA40026010BD6A
:101F30000360F3E70360F1E7516801F4701153683F
:101F400003F48033022404EB914133B153689B03C3
:101F500007D5094B59430160E0E7074B594301603E
:101F6000DCE7034B59430160D8E700000010024052
:101F700000127A005000002000093D0010B50F4803
:101F8000016841F00101016041680D4A1140416062
:101F900001680C4A11400160016821F48021016050
:101FA000416821F4FE0141604FF41F018160FFF799
:101FB00043FF05494FF00060086010BD001002406B
:101FC0000000FFF8FFFFF6FE08ED00E02DE9FC4100
:101FD00000201425CDE900054FF4007702463B466A
:101FE000174918A002F001F8194C206008B102F05E
:101FF00035F90226CDE9006573020022154916A0C5
:1020000001F0F3FF6060CDE900653B460022154911
:1020100015A001F0EAFFA06008B102F01FF9CDE9B8
:1020200000653B460022134913A001F0DEFFE0608B
:10203000002803D0BDE8FC4102F010B9BDE8FC81E6
:102040000915000843414E5F5461736B00000000A6
:1020500004000020511800084932435F5461736B3B
:1020600000000000B50B00084144435F5461736BEE
:102070000000000099220008575444475F546173E0
:102080006B000000F8B5062542F2107633460022B8
:1020900009490AA0009502F0C1F90C4C206008B172
:1020A00002F0FAF93346002209490AA0009502F02D
:1020B000B5F96060F8BD0000994800087377746D49
:1020C00072315F63616C6C6261636B0014000020AD
:1020D000A54800087377746D72325F63616C6C623F
:1020E00061636B00002904D0818941F40051818132
:1020F0007047818921F400518181704710B586B005
:1021000001210420FFF70EFE01218803FFF70AFEDC
:102110004FF40070ADF8140018208DF8170003205C
:102120008DF81600144C05A92046FFF732FB211547
:10213000ADF8141004218DF8171005A92046FFF7FB
:1021400028FB4FF4E13001900020ADF80800ADF815
:102150000A00ADF80C00ADF810000C20ADF80E0030
:10216000064C01A9204600F013F801212046FFF794
:10217000B9FF06B010BD0000000801400038014062
:102180000246002012880A4200D001207047000059
:1021900030B585B004460D46208A4CF6FF710840E4
:1021A000E98801432182A0894EF6F3110840A988ED
:1021B0002A8911436A8902431143A181A08A4FF6FB
:1021C000FF410840A9890143A1826846FFF7B8FD95
:1021D0001D48844201D1039800E00298A1890904B6
:1021E00008D500EBC00101EB001029684900B0FBE5
:1021F000F1F007E000EBC00101EB00102968890055
:10220000B0FBF1F06422B0FBF2F109010B096FF0B1
:1022100018056B4300EB8300A3891D044FF03203C4
:1022200007D503EBC000B0FBF2F000F00700084355
:1022300006E003EB0010B0FBF2F000F00F000843E3
:10224000208105B030BD000000380140C1F3080115
:102250008180704710B501F0E1F90C4C0221204655
:10226000FEF7C6FF20B10A4A00212046FFF7F4F826
:1022700002212046FEF786FE01F0DEF905480449FA
:102280000068BDE810400B3101F082BB00640040E3
:102290001C01002024000020FFF702FBC82001F0F1
:1022A000CAFEF9E7401EB0F1807F01D301207047DC
:1022B0004FF0E0214861044AFF201070002088613F
:1022C000072008610020704723ED00E00FB4054BA4
:1022D00010B503A9044A029800F008F910BC5DF893
:1022E00014FB0000B92D000804010020002807D0CD
:1022F0000F4910F0FF0F05D0C0B2085C401C7047BA
:102300000020704710F47F4F04D0C0F30720085C12
:102310000930704710F47F0F04D0C0F30740085C09
:102320001130704701EB10600078193070470000E1
:10233000CC48000802E008C8121F08C1002AFAD1E0
:1023400070477047002001E001C1121F002AFBD135
:10235000704700002DE9FF5F82B00021DDE9043005
:10236000020DDDF840B0034318D044F61050A2F23D
:10237000FF3242431514119801281FD0A5EB0B0022
:10238000401C5FEA000A4FF000064E4FDFF838911C
:10239000B046504615D5CAF1000413E01198012447
:1023A0004AA3012801D16FEA0B010298119AC0E9F2
:1023B0000031C0E9024206B0BDE8F09FCBF1000059
:1023C000DFE704460021404A491842EB0450CDE9BA
:1023D000001012E0E00707D032463B46404649462F
:1023E000FDF758FF8046894632463B46104619465F
:1023F000FDF750FF06460F466410002CEAD1DDE9D8
:102400000401DDE90023BAF1000F06DAFDF742FF0F
:1024100042464B46FDF73EFF05E0FEF7A5F9424672
:102420004B46FEF7A1F904460E460022284BFEF764
:1024300001F803D84FF0FF30014607E00022254B9A
:1024400020463146FEF7E9F8FEF7FDF9102409E0D1
:10245000002C0ADB0A220023FEF71AF8039B303215
:102460001A55641E50EA0102F2D1641C039AC4F1A9
:1024700011031444119A012A03D0012208430DD1FB
:102480000AE0084304D000204FF0110B119072E7CE
:10249000A3EB0B056D1E0DE05B4504DD4FF0000264
:1024A00005F1010504E003DA4FF00002A5F1010592
:1024B000002AECD002981199C0E90231C0E9004528
:1024C00079E70000000014400000F03F30000000F9
:1024D0000000F0430000E03F03480168814201D062
:1024E0000120704700207047F00000202DE9FF4FC9
:1024F00095B09B468946064600250FE2252877D1F0
:1025000000242746F84A0121059400E0044316F808
:10251000013F203B01FA03F01042F7D130782A281E
:1025200011D06FF02F033078A0F13002092A16D8AD
:10253000059A44F0020402EB820203EB42021044CB
:10254000761C0590EFE759F8042B0592002A03DA70
:10255000504244F40054059044F00204761C307854
:102560002E2816D116F8010F44F004042A280DD0A5
:102570006FF02F023078A0F13003092B09D807EB58
:10258000870302EB4303C718761CF3E759F8047B73
:10259000761C30786C280FD006DC4C2817D06828C1
:1025A0000DD06A2814D104E0742810D07A280FD1F5
:1025B0000DE044F400140AE044F4801401E044F413
:1025C00040147278824202D104F58014761C761C85
:1025D000307866280BD013DC582877D009DC002827
:1025E00075D04528F6D04628F4D047281AD19DE169
:1025F00018E0632835D0642879D0652812D195E198
:10260000702873D008DC6728F1D069286FD06E2855
:102610000DD06F2806D1B5E073282CD0752875D061
:10262000782874D05A46179990476D1C75E1C4F309
:102630000250022809D003280DD0D9F80010042830
:102640000DD00D6009F1040967E1D9F80010EA170F
:10265000C1E90052F6E7D9F800100D80F2E70D70DD
:10266000F0E719F8041B8DF8001000208DF8010028
:10267000EA46012003E059F804AB4FF0FF30610750
:102680004FF0000102D40DE008F101018846B94283
:102690000FDA8045F8DB1AF808100029F4D108E0B9
:1026A00008F1010188468142FADB1AF80810002976
:1026B000F6D105985B46A0EB080721463846179AE5
:1026C00000F094FA284400EB080507E04DE029E10A
:1026D0000DE01AF8010B5A4617999047B8F1010816
:1026E000F7D25B4621463846179A13E142E00A22A8
:1026F0000092C4F302524FF0000A022A08D059F89F
:1027000004CB032A4FEAEC710AD00DE029E02AE05D
:1027100009F1070121F00702F2E802C1914609E040
:102720000FFA8CFC4FEAEC71042A03D14FFA8CFCAF
:102730004FEAEC71002907DA0A460021DCF1000CAF
:1027400061EB02012D2202E0220504D52B228DF837
:102750000420012203E0E20701D02022F7E790469F
:1027600059E00A2102E010220DE010214FF0000A8A
:1027700000910BE010224FF0000A44F004040827F7
:10278000009203E008224FF0000A0092C4F30252C4
:10279000022A05D059F804CB0021032A08D009E009
:1027A00009F1070121F00702F2E802C1914605E0B4
:1027B0001FFA8CFC042A01D10CF0FF0C4FF000082A
:1027C000220728D5702806D0009B83F0100353EA17
:1027D0000A0305D00EE040228DF80420012208E013
:1027E0005CEA010206D030228DF804208DF8050045
:1027F00002229046009B83F0080353EA0A030AD1A1
:102800005CEA010201D1620705D530228DF804206F
:102810004FF001087F1E582804D034A003900EA862
:1028200002900DE036A0F9E753466046009AFDF7A6
:102830002FFE84460398825C0298401E029002702C
:102840005CEA0100F0D1029806A9081A00F1200AFA
:10285000600702D524F4803400E00127574502DDEB
:10286000A7EB0A0000E0002000EB0A0100900598A9
:102870004144401A0590E00306D45B462146179A6E
:10288000059800F0B3F90544002706E001A85A4670
:10289000C05D179990476D1C7F1C4745F6DBE00330
:1028A0000CD55B462146179A059800F09FF9054420
:1028B00004E030205A46179990476D1C0099481E35
:1028C00000900029F5DC08E0029802995A46007849
:1028D000491C0291179990476D1CBAF10001AAF1A9
:1028E000010AF1DC65E100000928010030313233D2
:1028F000343536373839616263646566000000003C
:102900003031323334353637383941424344454625
:102910000000000000F058F90544761C30780028CB
:102920007FF4ECAD19B02846BDE8F08F620700D403
:10293000062709F1070222F0070CFCE80223E14612
:1029400003F000485FEA080C02D00FF2702C0DE093
:102950005FEA045C02D50FF2682C07E05FEAC47CF2
:1029600002D00FF2602C01E0AFF2700C4FF0FF3894
:1029700023F00043CDF850C065280CD006DC452874
:1029800009D046281DD047283DD13DE0662818D003
:1029900067287ED138E00021112F01DB112000E0F3
:1029A000781CCDE9000106A90EA8FFF7D3FCDDE9EC
:1029B0000F010E9A03910021009207F1010A049180
:1029C0004DE04FF000400097CDE9011006A90EA898
:1029D000FFF7C0FCDDE90F0203920E9B1199002264
:1029E000DDF80CA00093049211B9791C00EB010AE8
:1029F000B7EB0A0004D4C0F1FF3007F1010A0490DC
:102A0000AAEB0700019044E0012F00DA0127002122
:102A1000112F01DD112000E03846CDE9000106A9A3
:102A20000EA8FFF797FCDDE90F010E9A0391002134
:102A300004910092BA4621070CD40399514500DA5B
:102A40008A46BAF1010F05DD009AAAF10101515C35
:102A5000302908D0B84202DA10F1040F06DA012159
:102A6000CDE9011015E0AAF10101E9E7002805DC34
:102A7000049901440491AAEB000102E0411C514574
:102A800000DD8A460499401A401C01904FF0004036
:102A90000290200704D40198504501DBCDF8048052
:102AA00000208DF84F0002980DF14F07B0F1004F54
:102AB00025D02B200E9002984FF0020800280CDA47
:102AC000404202902D200E9007E00A210298FDF767
:102AD000C9FC3031029007F8011DB8F10001A8F1DE
:102AE0000108F2DC02980028EFD1791E0E980870D8
:102AF000307800F0200040F0450007F8020D12A8E1
:102B0000C01B00F107081498007800B1012000EB09
:102B10000A01019801EBE07105984144401A401EFA
:102B20000590E00306D45B462146179A059800F00D
:102B30005DF805441498007818B15A4617999047E3
:102B40006D1CE00324D55B462146179A059800F0DA
:102B50004DF805441CE00498002807DBDDE903017B
:102B6000884203DD0098405C179901E017993020F6
:102B70005A469047049805F10105401C04900198BD
:102B8000401E019004D12E205A46179990476D1C83
:102B9000BAF10001AAF1010ADDDC05E017F8010B2A
:102BA0005A46179990476D1CB8F10001A8F1010829
:102BB000F4DC5B462146179A0598ABE62D00000031
:102BC0002B000000200000002DE9F0410446002504
:102BD0001E461746880404D405E039462020B04735
:102BE0006D1C641EF9D52846BDE8F0812DE9F04141
:102BF000044600251E469046C80301D5302700E054
:102C00002027880404D505E041463846B0476D1CAE
:102C1000641EF9D52846BDE8F08100002DE9FC418D
:102C20001F46DDE90A65DDE90831044604F11400B8
:102C3000406000601C346260A760E36021610A4666
:102C40002321184600F020FFD4E903014218D4E9FB
:102C50000101121F0D4B00F0C3FC2060A6766676C2
:102C60000020E061A562E56260612076E065206693
:102C70001C3C009001902346054A214604F14C007B
:102C800001F0F4FB0020BDE8FC8100007D4000085D
:102C9000C542000810B5029C24F001044472C161D1
:102CA000026200218162436200EBC1021432526071
:102CB0001260491C0129F7DB10BD10B5002200EBA2
:102CC000C2011431D1E900436360D1E900342360CB
:102CD00049600960521C012AF1DB10BD2DE9F04169
:102CE00005460C46164600F029F9A02000F0FAF837
:102CF00000F054F968B9E0B200F0F4F800F04EF9D1
:102D000038B900F01BF9A12000F0ECF800F046F90A
:102D100020B100F02FF90020BDE8F0810024771EDB
:102D20000BE000F0BDF82855BC4202D000F056F888
:102D300001E000F09DF8641CA4B2B442F1D300F0AD
:102D400019F90120E8E72DE9F04780460E46914643
:102D500000254FF47A7729E00DB1700716D100F005
:102D600009F9002400F0EAF8A02000F0BBF800F018
:102D700015F918B1641CA4B2BC42F3D3BC420CD008
:102D8000F0B200F0AFF800F009F930B918F805001A
:102D900000F0A8F800F002F920B100F0EBF80020F4
:102DA000BDE8F087761CB6B26D1CADB24D45D3D3ED
:102DB00000F0E0F80120F3E770B50446064DE1B2FB
:102DC0002846FFF743FA80212846FFF7D9F9002863
:102DD000F9D0204670BD00000038014010B50C4C01
:102DE00002212046FEF72FFD00F03CF8042120468A
:102DF000FEF72BFD00F036F804212046FEF723FDF8
:102E000000F030F82046BDE810400221FEF71DBD5D
:102E10000008014008B501210420FEF783FF0620C9
:102E2000ADF8000003208DF8020014208DF8030097
:102E300069460348FEF7ADFC00F09CF808BD0000B1
:102E40000008014010B50446FFF7E4FF00F076F8F3
:102E5000204600F047F800F0A1F8044600F08AF898
:102E6000204610BD0020401CC0B20528FBD370478F
:102E700010B50A4C02212046FEF7E7FCFFF7F2FFEF
:102E800004212046FEF7E1FCFFF7ECFF0421204679
:102E9000FEF7D9FCBDE81040FFF7E4BF0008014091
:102EA00070B5002400250E4E6006040E0421304645
:102EB000FEF7CBFCFFF7D6FF02213046FEF7BCFC45
:102EC00008B1641CE4B204213046FEF7BCFCFFF7F5
:102ED000C9FF6D1CEDB2082DE6D3204670BD000081
:102EE0000008014070B505460024134E280604D59D
:102EF00002213046FEF7A9FC03E002213046FEF72E
:102F0000A2FCFFF7AFFF04213046FEF79EFCFFF75F
:102F1000A9FF04213046FEF796FC072C03D10221BD
:102F20003046FEF792FC6806050EFFF79BFF641C17
:102F3000E4B2082CDAD370BD0008014010B50C4C87
:102F400002212046FEF781FC04212046FEF77DFC8D
:102F5000FFF788FF02212046FEF775FCFFF782FF8E
:102F600004212046FEF76FFCBDE81040FFF77ABF52
:102F70000008014010B5084C02212046FEF763FC12
:102F800004212046FEF761FCFFF76CFF2046BDE8F8
:102F900010400221FEF759BC0008014070B50E4DEB
:102FA00002212846FEF751FCFFF75CFF042128466A
:102FB000FEF74BFCFFF756FF02212846FEF73CFCCC
:102FC00008B1012400E0002404212846FEF73BFC60
:102FD000FFF748FF204670BD000801401CB50121E5
:102FE0001420CDE900104B020022054905A000F095
:102FF000FCFF0749086008B101F030F900201CBD52
:10300000910D00084170706C69636174696F6E00A6
:103010000000002010B500F0FDF8BDE81040FFF7FB
:10302000DDBF000010B500220A2103A000F010FC53
:103030000349886010BD000063616ED3CACFE4000D
:103040001C00002030B5134C41682268114402F185
:10305000080388420DD04D885DB96568A94208D043
:10306000A5688D4200D1A0604D6845604968851A09
:10307000CD508168114481420BD04D88002D08D17C
:10308000A568854200D1A16044684C604068891AF7
:10309000C15030BD7C0000202DE9F04F85B00EAC52
:1030A00070CCA9460094740602D5DFF81CB103E089
:1030B000DFF814B1ABF1110BF40601D526F00106CF
:1030C000F40702D04FF0300A01E04FF0200A002749
:1030D000B4070BD5002A02DA2D27524206E0740706
:1030E00001D52B2702E0340700D5202700240DF15D
:1030F000040E7AB9302201248DF804200CE00A2B4A
:1031000015D002F00F081209A4461BF80880641CB1
:103110000EF80C80002AF2D1AC4200DD2546009A60
:10312000521B16F0110F4FF0200309D016E04FF09C
:103130000A0CB2FBFCF80CFB1828B2FBFCF2E3E72C
:103140003FB1002A05DD521E03E0884200D2037021
:10315000401CB2F1000CA2F10102F6DC27B188425A
:1031600000D20770521E401CF60605D508E08842C2
:1031700001D280F800A0401C161EA2F10102F6DC6C
:10318000302703E0884200D20770401C2E466D1E97
:10319000A642F7DC05E0884202D21EF80450057012
:1031A000401C251EA4F1010407DDB9F1000FF2D186
:1031B00003E0884200D20370401C141EA2F10102F9
:1031C000F7DC05B0BDE8F08FDD4900081CB5022131
:1031D0001420CDE900100B020022044904A000F0E5
:1031E00004FFBDE81C4001F039B8000015300008AC
:1031F0006D61696E0000000070B5044C044D02E082
:1032000020688047241DAC42FAD370BDF449000801
:10321000F849000870B5044C044D02E0206880476E
:10322000241DAC42FAD370BDF8490008FC490008DF
:1032300010B5FCF777FF044A5188491C5180BDE85E
:103240001040FCF773BF0000E400002010B5FCF74D
:1032500069FF0B4C6188491E09B2618000290ADCB4
:1032600000216180FCF762FF6068002807D0BDE89C
:10327000104000F0BBBCBDE81040FCF757BF10BDCC
:10328000E400002070B5002833D01A4D2968884228
:103290002FD3696888422CD2A0F10C044FF0FF3183
:1032A000154800F064FD60884FF4F55610B1208891
:1032B000B04208D011A000F0FBF9238862882146B3
:1032C00015A000F0F5F9002060802680A8688442EF
:1032D00000D2AC6029686068611A401A2969081A2E
:1032E00028612046FFF7AEFEBDE87040024800F0BE
:1032F00020BD70BD7C000020A4030020746F2066F8
:10330000726565206120626164206461746120627D
:103310006C6F636B3A0A00006D656D3A203078255A
:103320003038782C207573656420666C61673A20AC
:1033300025642C206D6167696320636F64653A20A2
:103340003078253034780A000048704704040020A3
:10335000004870470424002010B5FEF7D1FDFEF7A9
:10336000CDFEFDF713FDA020FFF76CFDFDF74EFE2F
:10337000FDF746FC094842F210710068B0FBF1F01D
:10338000FEF790FFFFF738FFFFF7E2FF0446FFF775
:10339000DBFF2146BDE8104000F094BD5000002046
:1033A00070B50446FFF744FF0F4D16E00A2809D117
:1033B0000D212846FEF74AFF80212846FEF7E0FE51
:1033C0000028F9D014F8011B2846FEF73FFF8021A2
:1033D0002846FEF7D5FE0028F9D020780028E5D150
:1033E000BDE87040FFF732BF0038014070B50546B8
:1033F0002C1D2B480168002903D028468847002847
:103400004DD028A0E16B00F053F92AA0216A00F00A
:103410004FF92CA0616A00F04BF92EA0A16A00F0D0
:1034200047F930A0E16A00F043F932A0216800F0CA
:103430003FF934A0616800F03BF936A0A16800F0C4
:1034400037F938A0E16800F033F93AA0216900F0BB
:103450002FF93CA0616900F02BF93EA0A16900F0B2
:1034600027F940A0E16900F023F942A0216B00F0A8
:103470001FF944A0616B00F01BF946A0A16B00F09E
:1034800017F92878400706D500F0C2FE014645A08E
:1034900000F00EF902E04BA000F00AF9FEE770BD63
:1034A000640000207073723A203078253038780A32
:1034B000000000007230303A203078253038780A29
:1034C000000000007230313A203078253038780A18
:1034D000000000007230323A203078253038780A07
:1034E000000000007230333A203078253038780AF6
:1034F000000000007230343A203078253038780AE5
:10350000000000007230353A203078253038780AD3
:10351000000000007230363A203078253038780AC2
:10352000000000007230373A203078253038780AB1
:10353000000000007230383A203078253038780AA0
:10354000000000007230393A203078253038780A8F
:10355000000000007231303A203078253038780A87
:10356000000000007231313A203078253038780A76
:10357000000000007231323A203078253038780A65
:1035800000000000206C723A203078253038780A2C
:10359000000000002070633A203078253038780A27
:1035A0000000000068617264206661756C74206FB1
:1035B0006E207468726561643A2025730D0A0D0AE5
:1035C0000000000068617264206661756C74206F91
:1035D0006E2068616E646C65720D0A0D0A00000051
:1035E00070B50646121D22F00700A0F140052846DE
:1035F0000022094C40F82240521C102AFAD30162E2
:10360000002141628162C1620163436386634FF0BE
:103610008071C163284670BDEFBEADDE10B5FCF70A
:1036200081FD044A1178491C1170BDE81040FCF777
:103630007DBD00007800002010B5FCF773FD044A42
:103640001178491E1170BDE81040FCF76FBD0000F5
:10365000780000202DE9F04105460E46144630461C
:1036600000F00FFE06F1140714B1012C1DD104E087
:103670003946284600F043F817E02C680DE0A4F125
:10368000140096F8351090F83520914204D239464E
:10369000143000F034F802E02468AC42EFD1AC42C0
:1036A00003D13946284600F02AF80020BDE8F08111
:1036B0000FB408B503AB00937F210548029A00F0D0
:1036C0006DFF0348FFF76CFE01B05DF814FB0000CE
:1036D000240300200268516002680A6001604860AB
:1036E00070470268516002680A6001604860704774
:1036F0000268516002680A60016048607047426871
:10370000116042684A604160086070470168814208
:1037100001D101207047002070470168814201D12A
:103720000120704700207047D0E900215160D0E9A6
:1037300000121160406000607047D0E900215160C4
:10374000D0E9001211604060006070472DE9F04739
:10375000002809D0C01C20F003053B4EF0688542CC
:1037600004D90020BDE8F0870020FBE70C2D00D233
:103770000C254FF0FF31354800F0F9FAB768316891
:10378000781AD6F80CC0ACEB050356E00C1862882A
:103790008ABB6268121A0C3AAA424DD3626805F1DC
:1037A0001803121A0C3A4FF001094FF4F5589A42D7
:1037B00022D343190C33CA18A2F800804FF0000A34
:1037C000A2F802A0D4F804A0C2F804A0906063603C
:1037D000A4F8029050680CF10C0C604502D001F185
:1037E00008028350306928440C303061726982428B
:1037F0000ED270610CE01FE0A4F802906068621ABB
:10380000801A3269104430617269824200D270615C
:10381000A4F80080BC4203D008E040680844B060CF
:10382000B068428812B172689042F6D1074800F041
:1038300080FA04F10C0095E760688342A6D803483B
:1038400000F077FA00208DE77C000020A403002020
:1038500070B50D4616460146052000F038F90446BD
:10386000200014D06672143040600060A8B220843A
:103870008000FFF76BFFE06158B100206084A084F6
:10388000E08404F1280040600060204670BD2046BE
:1038900070BD204600F045F9002070BD2DE9F74FBE
:1038A00004468B46002600F0B3FC0546FCF73AFCC4
:1038B0008046608C6FF0010A08B9029808B10027B1
:1038C0003DE04046FCF732FC5046BDE8FE8F2F63DA
:1038D0000298F0B1627A294604F11400FFF7BAFEAB
:1038E000029800280CDD00F02DFD064605F14C0085
:1038F00002AA0021814600F077FD484600F0CCFD89
:103900004046FCF713FC00F071F9286B40B1286BBE
:10391000DBE74046FCF70AFC5046C5F830A0D4E788
:10392000FCF700FC80460298002808DD00F00AFD44
:10393000861B0298801B0290002800DA0297608C98
:103940000028C4D0E18CE06950F82100CBF80000D9
:10395000E08C401C80B2E084218C884200D3E78454
:10396000608C401E608404F12800FFF7CFFE20B178
:103970004046FCF7DBFB0020A7E7A06A143800F004
:1039800029FC4046FCF7D2FB00F030F900209CE710
:103990000022AFF300802DE9F74F04468B46002646
:1039A00000F036FC0546FCF7BDFB8046608C218CA0
:1039B0006FF0020A884201D1029808B100273BE06B
:1039C0004046FCF7B3FB5046BDE8FE8F2F630298DC
:1039D000F0B1627A294604F12800FFF73BFE029815
:1039E00000280CDD00F0AEFC064605F14C0002AAF2
:1039F0000021814600F0F8FC484600F04DFD4046AD
:103A0000FCF794FB00F0F2F8286B30B1286BDBE791
:103A10004046FCF78BFB5046D6E7FCF783FB80461D
:103A20000298002808DD00F08DFC861B0298801BA0
:103A30000290002800DA0297608C218C8842C5D061
:103A4000A18CE06940F821B0A08C401C80B2A08419
:103A5000218C884200D3A784608C401C608404F1D0
:103A60001400FFF753FE20B14046FCF75FFB002037
:103A7000AAE76069143800F0ADFB4046FCF756FB3E
:103A800000F0B4F800209FE710B50346CCB2042A3A
:103A900015D3810713D1014644EA042343EA0343C3
:103AA00005E00B604B608B60CB601031103A102A40
:103AB000F7D201E008C1121F042AFBD20B46E1B283
:103AC00001E003F8011B521E541CFAD110BD2DE970
:103AD000F04106460F46304600F046F80546E868D5
:103AE000FFF734FE0446D4B100212046EA68FFF710
:103AF000CBFF26720020607208223946204600F073
:103B0000CDF9FCF70FFB064604F10C01281DFFF769
:103B1000E1FD3046FCF70AFB2046BDE8F0810020BD
:103B2000FBE770B5044600202072FCF7FBFA05465F
:103B300004F10C00FFF7F8FD2846FCF7F7FA2046E1
:103B4000BDE87040FFF79EBB70B5044600202072B0
:103B5000FCF7E8FA054604F10C00FFF7E5FD2846FE
:103B6000BDE87040FCF7E2BA0021074A02EB0113FE
:103B70001B78834202D102EB01107047491C0529D2
:103B8000F4DB002070470000940000202DE9F04194
:103B900005460E4617463046FFF7E6FF0446FFF798
:103BA00047FB6168201D00E009688142FCD1FFF7F6
:103BB0004DFB46F08000287208223946284600F066
:103BC0006DF9FCF7AFFA064605F10C01201DFFF771
:103BD00081FD3046BDE8F041FCF7A8BA007A000646
:103BE00001D50120704700207047000070B5FCF738
:103BF00099FA0546124C608898B9A068FEF776FBE2
:103C0000421E104850F8321014396068814208D0C2
:103C1000227061600C4A127842B11C311C30FCF7F2
:103C200088FA2846BDE87040FCF780BA1C311C3089
:103C3000FCF77FFA2846BDE87040FCF777BA000031
:103C4000E4000020C40300207800002010B50446E2
:103C5000FCF768FA024614F8340F20F00F00401CFD
:103C6000207060780A49343C01EBC00104F1140073
:103C70004B6818604B684360486001600548A16B61
:103C8000836819438160BDE810401046FCF74EBAC6
:103C9000C4030020E400002070B50546FCF742FA9A
:103CA000014605F11404D4E900205060D4E9000273
:103CB00010606460246095F835000A4A02EBC00089
:103CC0000268824201D1012000E0002020B10648B4
:103CD000AB6B82689A438260BDE870400846FCF78F
:103CE00025BA0000C4030020E400002070B50C4693
:103CF000154601460220FFF7EAFE002805D000F134
:103D00001401496009608483457270BD2DE9F0415A
:103D1000054616461F460A4602212846FFF736FF8B
:103D20002C46143464602460AE836F720020BDE8BA
:103D3000F08170B504460025FCF7F4F9064604F15D
:103D40001400FFF7E3FC40B1A08B401CA083304679
:103D5000FCF7ECF9012D06D007E06069143800F09B
:103D600039FA0125F3E7FFF741FF002070BD73B575
:103D70000446FCF7D7F90646A08B28B1401EA08365
:103D80003046FCF7D3F921E0019808B300F040FA7F
:103D9000054600202863627A294604F11400FFF7E3
:103DA00059FC0198002809DD05F14C0001AA002109
:103DB000044600F019FB204600F06EFB3046FCF78D
:103DC000B5F9FFF713FF286B002800D100207CBD58
:103DD0003046FCF7ABF96FF001007CBD08B509A0D7
:103DE000FFF766FC0AA0FFF763FC12A00323009014
:103DF0000122194612A0FFF75BFCBDE8084018A09D
:103E0000FFF756BC0A205C207C202F0A000000002F
:103E10002D205254202D20202020205468726561CE
:103E200064204F7065726174696E67205379737492
:103E3000656D0A004E6F762031332032303230000B
:103E4000202F207C205C202020202025642E25642B
:103E50002E2564206275696C642025730A000000B9
:103E60002032303036202D203230313920436F70EF
:103E70007972696768742062792072742D7468722F
:103E8000656164207465616D0A000000014600E010
:103E9000491C0A78002AFBD1081A704710B5002A7D
:103EA00007D0034611F8014B03F8014B14B1521E21
:103EB000F8D110BD002101E003F8011B521EFBD117
:103EC00010BD000070B505460A46E81C20F003014D
:103ED00022F00303182B21D9A3F118048C421DD31F
:103EE000114C5A1A183AE26021604FF4F5530B80D6
:103EF0000C324A600020886048804868084460604E
:103F0000038001214180426082600023012207A1D9
:103F10000848FFF7FBFE2068A06070BD2946BDE899
:103F2000704005A0FFF7C4BB7C000020686561708D
:103F300000000000A40300206D656D20696E6974A7
:103F40002C206572726F7220626567696E206164F1
:103F5000647265737320307825782C20616E64203C
:103F6000656E6420616464726573732030782578AF
:103F70000A00000010B50A4B00245C800020094AAA
:103F800002EBC00149600960401C0828F8DB0720EB
:103F900018705C609C6002480C304060006010BD8E
:103FA000E4000020C403002010B5074CA068FEF711
:103FB0009DF9401E054951F8300014386060BDE895
:103FC00010401C30FCF7E3B8E4000020C4030020DC
:103FD0000020044A02EBC00149600960401C00282F
:103FE000F8D07047FC00002070472DE9FF4780465D
:103FF000DDE90C67894692461D4641460120FFF7E0
:1040000066FD044620000FD02846FFF79FFB68B1ED
:104010008DE8E10053464A4641462046FEF7FEFD44
:10402000204604B0BDE8F0870020FAE72046FFF7FD
:1040300078FD0020F5E700F0F1B8000070B5044607
:1040400094F83400000702D02046FFF725FE04F163
:104050004C0000F0FBF9042084F83400FCF762F80F
:10406000054604F114010448FFF73BFB2846FCF722
:104070005DF8002070BD0000F000002070B513480E
:104080000468FCF74FF805462046FFF705FE0420BC
:1040900084F8340004F14C0000F0D8F92046FFF712
:1040A0009DFD012801D1A06F58B104F11401084809
:1040B000FFF717FB2846FCF739F8BDE87040FFF71B
:1040C00095BD2046FFF740FDF4E70000E800002022
:1040D000F000002000F002F8FCE7000070B527E0D7
:1040E000FCF720F80646FEF7F7F980B31A48046893
:1040F000A4F11405D4E900104860D4E90001086077
:1041000064602460FFF794F8A96F09B128468847D6
:104110002846FFF763FD01280FD0FFF797F83046D8
:10412000FCF704F8A86AFFF7ADF82846FFF7F9FC9A
:10413000FEF7D2F90028D3D170BD2846FFF704FD61
:10414000FFF784F83046BDE87040FBF7EFBF30461C
:10415000BDE87040FBF7EABFF00000201FB520204B
:10416000C2000721094BCDE90210CDE90032074812
:104170000023074A07A1803800F010F804B0034874
:10418000BDE81040803800F069B80000240200202B
:10419000D54000087469646C650000002DE9FF5F7C
:1041A0008146DDE90E76DDE91054884692469B464D
:1041B000424601214846FFF7E9FCCDE90076CDE90A
:1041C00002545B46524641464846FEF727FD04B07E
:1041D000BDE8F09F70B5044694F8340000F00F007D
:1041E000022802D04FF0FF3070BDFBF79BFF054661
:1041F00004F11400FFF7A1FA04F14C0000F0B6F945
:104200002846FBF793FF2046FFF720FD002070BDF6
:104210000148006870470000E8000020F1B5FBF796
:1042200081FF05460C480468204600F02AF804F196
:104230004C006A460021064600F0D6F8304600F0F1
:104240002BF92846FBF772FFFFF7D0FC206B801C90
:1042500000D120630020F8BDE800002010B5343004
:104260008178417001228A404260022100F83419AD
:10427000FFF7B0FFFFF7CCFF08B1FFF7B7FC002056
:1042800010BD70B5044694F8340000F00F0001280A
:1042900002D04FF0FF3070BDFBF744FF054694F8A5
:1042A000340020F00F00801C84F834002046FFF713
:1042B000F3FC04F14C0000F059F92846FBF736FFF7
:1042C000002070BD10B504466FF00100206304F1BA
:1042D0001400FFF732FA2046FFF7B8FCBDE81040A3
:1042E000FFF784BC70B5FBF71DFF06461348046852
:1042F00094F8340000F00F0001281AD1D4E9050128
:10430000884216D004F114000546FFF716FA94F817
:1043100035000B4901EBC00041680D6041686960E0
:10432000456028603046FBF701FFFFF75FFC002087
:1043300070BD3046FBF7FAFE002070BDE80000209B
:10434000C40300200148006870470000740000208A
:1043500010B509490868401C0860FFF759FF816CD7
:10436000491E816419B9416C8164FFF7BBFFBDE848
:10437000104000F003B800007400002070B5FFF793
:10438000E1FF0646FBF7CEFE054620E0154804682F
:10439000143C6FF00041A06A301A88421CD22046BB
:1043A000FEF78BFCD4E907108847FFF7CBFF0646E2
:1043B000607A810708D5C10706D020F0010060723D
:1043C000204600F069F802E020F001006072054824
:1043D000FFF7A3F90028D9D02846BDE87040FBF7C5
:1043E000A5BE0000FC000020002909D0012904D04E
:1043F000022908D003290FD10AE0406A10600BE0BF
:104400001168416208E0417A21F00201417203E043
:10441000417A41F002014172002070472DE9F843D2
:104420000E46089D1746984601460A20FFF74FFBA7
:1044300004464CB143463A46314620460095FEF7C5
:1044400029FC2046BDE8F8830020FBE770B505464F
:10445000FBF768FE04462846FEF72FFC2046FBF7D4
:1044600065FE2846FFF770FB002070BD2DE9F8437C
:104470000746DDE9088415461E460A460A213846E5
:10448000FFF784FB43463246294638460094FEF740
:1044900001FCBDE8F88300002DE9F8430446FBF772
:1044A00041FE05462046FEF708FC607A20F0010038
:1044B00060722846FBF73AFEFFF744FF616A084442
:1044C000A062FBF72FFE0746DFF89CC0CDF800C0C6
:1044D00000226E460CEBC20045680DE00068A0EBC0
:1044E000C201A36A4969994204D0C91A6FF0004316
:1044F000994205D346F8220056F82200A842EDD191
:104500002AB156F822100831531C46F82310521CC9
:10451000002ADFD01448001FD0F8008008F10108FD
:10452000C0F8008004F114010098FFF7E1F80225BB
:104530000EE05FEA88700DD1C5F1010004EBC00107
:10454000143156F82000FFF7D3F84FEA98086D1C95
:10455000012DEED9607A40F0010060723846FBF719
:10456000E5FD0020BDE8F883FC00002070B504469E
:10457000607AC0070ED0FBF7D5FD05462046FEF752
:104580009CFB2846FBF7D2FD607A20F001006072A8
:10459000002070BD4FF0FF3070BD00002DE9FF4FCF
:1045A00083B081468B4609EB0B074C46A74203D2EA
:1045B0004FF0FF37C9F1FF3B4FF0200A12E12528E9
:1045C00004D0BC4200D22070641C08E1002505998B
:1045D000491C059108782D2814D02B2815D02028A7
:1045E00016D0232817D0302818D04FF0FF38464671
:1045F000059A1278303A0A2A13D205A800F037F942
:1046000006461AE045F01005E1E745F00405DEE74F
:1046100045F00805DBE745F02005D8E745F0010542
:10462000D5E72A2809D1491C0591069840C806906B
:10463000002E02DA764245F01005059801782E2901
:1046400018D1401C05900178A1F130020A2A04D249
:1046500005A800F00CF9804607E02A2905D1401C86
:104660000590069850F8048B0690B8F1000F01DA17
:104670004FF000080021059A1078682801D06C28B6
:1046800002D10146521C05920A23059800786F2832
:1046900071D00CDC632820D004DC25286CD058288D
:1046A0000DD187E0642801D0692808D186E0702800
:1046B00063D073282FD0752871D078287CD0BC4265
:1046C00001D225202070641C05990878002868D044
:1046D000BC4200D22070641C81E0E80605D507E0EA
:1046E000BC4201D284F800A0641C761E002EF7DCC8
:1046F000069810F8041B0690C8B2BC4200D2207085
:10470000641C04E0BC4201D284F800A0641C761E44
:10471000002EF7DC63E0069808C8069003B943A3AF
:104720001846FFF7B3FBB8F1000F02DD404500DD8E
:104730004046E90605D508E0BC4201D284F800A055
:10474000641C3146761E8142F6DC002106E0BC4244
:1047500001D21A782270641C5B1C491C8142F6DB72
:1047600004E0BC4201D284F800A0641C3146761EED
:104770008142F6DC33E01BE014E0701C02D1082615
:1047800045F00105CDE9006806980295102304C89C
:10479000069039462046FEF77FFC04461FE00FE0F6
:1047A0000AE02BE0BC4201D225202070641C16E0F8
:1047B000082305E045F04005102301E045F002051F
:1047C0006C291ED0682920D0069804C80690CDE92F
:1047D0000068394620460295FEF75EFC04460598BF
:1047E000401C05900598007800287FF4E8AEBBF1E6
:1047F000000F15D0BC4211D2207011E0491E059166
:10480000EDE7069804C80690E1E7069830F8041B27
:1048100006908AB2A807DAD512B2D8E707F8010CD9
:1048200007B0A4EB0900BDE8F08F0000284E554CFE
:104830004C2900000020704700207047002070477E
:104840000020704710B5FBF76DFCFEF785FDFFF704
:10485000C5FAFFF7BDFBFFF78DFBFEF7B7FCFFF7CF
:10486000C3FBFFF77BFCFFF79FFB002010BD10B5DB
:10487000024600206FF02F0407E04B1C13600978FC
:1048800000EB800004EB4000084411680B78303BDB
:104890000A2BF2D310BD000001480068FFF749BAA7
:1048A0002000002001480068FFF743BA1C000020E8
:1048B00000000000320000006400000096000000CC
:1048C000C8000000FA0000002C01000000000100F8
:1048D00002000100030001000200010004000100C9
:1048E00002000100030001000200010005000100B8
:1048F00002000100030001000200010004000100A9
:104900000200010003000100020001000600010096
:104910000200010003000100020001000400010088
:104920000200010003000100020001000500010077
:104930000200010003000100020001000400010068
:104940000200010003000100020001000700010055
:104950000200010003000100020001000400010048
:104960000200010003000100020001000500010037
:104970000200010003000100020001000400010028
:104980000200010003000100020001000600010016
:104990000200010003000100020001000400010008
:1049A00002000100030001000200010005000100F7
:1049B00002000100030001000200010004000100E8
:1049C0000200010003000100020001003031323317
:1049D00034353637383961626364656600303132A8
:1049E00033343536373839414243444546000000B8
:1049F0004148000839480008354800083D4800088B
:104A0000204A0008000000200801000034230008AC
:104A1000284B000808010020003300004423000850
:104A20000000000000000000000000000000000086
:104A30000000000000000000000000000000000076
:104A4000000000000000000000FFFF000000000068
:104A50000000000000000000000002040608000042
:104A60000000010203040102030406070809000014
:104A700000A24A040000000000000000010203043C
:104A80000607080900000000000000000000000008
:104A90000000000000000000000000000000000016
:104AA0000000000000000000000000000000000006
:104AB0000000000001000000980000209800002085
:104AC0008000000002000000A8000020A8000020D4
:104AD0002000000004000000B8000020B800002002
:104AE0002000000005000000C8000020C8000020D1
:104AF000300000000A000000D8000020D80000208C
:104B00002C00000000000000000000000000000079
:104B10000000000000000000000000000000000095
:084B200000000000000000008D
:04000005080000ED02
:00000001FF
