:020000040800F2
:10000000F83300200101000809010008CB010008B5
:100010000D0100080F010008110100080000000098
:1000200000000000000000000000000013010008B4
:10003000150100080000000053010008D91B00084A
:100040001B0100081B0100081B0100081B01000820
:100050001B0100081B0100081B0100081B01000810
:100060001B0100081B0100081B0100081B01000800
:100070001B0100081B0100081B0100081B010008F0
:100080001B0100081B0100081D0900081B010008D6
:10009000491F00081B0100081B0100081B01000884
:1000A0001B0100081B0100081B0100081B010008C0
:1000B0001B0100081B0100081B0100081B010008B0
:1000C0001B0100081B0100081B0100081B010008A0
:1000D0001B0100081B0100081B0100081B01000890
:1000E0001B0100081B0100081B010008DFF80CD0F1
:1000F00000F06EFB0048004711090008F8330020AB
:100100000648804706480047FEE7FEE7FEE7FEE7B1
:10011000FEE7FEE7FEE7FEE7FEE7FEE7691C0008F4
:10012000ED000008EFF3108072B6704780F310887E
:100130007047334A1368012B04D04FF0010313605A
:10014000304A1060304A116030484FF080510160F1
:100150007047EFF3108272B62948016891B14FF0F1
:10016000000101602748016829B1EFF3098121E905
:10017000F00F00680160244909680968B1E8F00FD0
:1001800081F3098882F310884EF0040E70471E49EF
:1001900008601C494FF00000086019494FF0010049
:1001A00008601B484FF47F01D0F8002041EA0201AB
:1001B000016016484FF080510160164800680068E1
:1001C00080F3088861B662B670471EF0040F0CBF5A
:1001D000EFF30880EFF3098020E9F00F40F804ED19
:1001E0001EF0040F0CBF80F3088880F3098800B567
:1001F00002F066FF5DF804EB4EF0040E704700005D
:10020000640000205C0000206000002004ED00E09D
:1002100020ED00E008ED00E080EA010210B502F0F8
:100220000043400022D04A001FD0010E01EB1261B2
:10023000C0F35600C2F3560240F4000042F400023C
:10024000A0FB022000047F39140400D0401C50EAB7
:10025000124001D44000491EC2B20C0604EBD0107B
:10026000401C4008802A02D003E0002010BD20F08E
:100270000100002900DA0020184310BD30B480EAE4
:10028000010202F0004530F0004221F0004013D09E
:1002900090B1C30DD40DC2F31601C0F31600E41AD9
:1002A00041F4000140F400027D34914201D3641C0A
:1002B00000E04900002C02DA30BC002070474FF407
:1002C00000000023914201D3891A034340084FEAFA
:1002D0004101F7D151B1914202D14FF0004105E007
:1002E00002D24FF0010101E06FF0010103EBC450B5
:1002F000284430BC00F07CB8C10F80EAE0700844AC
:10030000CA079623002100F07CB800F0004220F0DC
:100310000040C10DC0F3160040F400007F2901DA4F
:1003200000207047962903DCC1F19601C84001E026
:1003300096398840002AF4D04042704700F00042CD
:1003400030F000400AD0C10D01F56071C0F3160015
:1003500042EA0151C208400711437047002001469C
:10036000704730B50B46014600202022012409E0E9
:1003700021FA02F59D4205D303FA02F5491B04FA5E
:1003800002F52844151EA2F10102F1DC30BD2DE971
:10039000F05F0546002092469B4688460646814609
:1003A00040241BE0284641464746224600F031FAE9
:1003B00053465A46C01A914110D311461846224658
:1003C00000F018FA2D1A67EB01084F46224601206B
:1003D000002100F00FFA17EB00094E41201EA4F196
:1003E0000104DFDC484631462A464346BDE8F09F1B
:1003F0000029A8BF7047401C490008BF20F0010039
:10040000704710B4B0FA80FC00FA0CF050EA010416
:1004100004BF10BC704749B1CCF1200421FA04F4A8
:1004200011FA0CF118BF012121430843A3EB0C0181
:10043000CB1D4FEA00614FEA102042BF002010BCE4
:10044000704700EBC35010440029A4BF10BC704794
:10045000401C490008BF20F0010010BC70472DE986
:10046000FE4F804681EA0300C00F0C46009021F049
:10047000004123F00045B8EB0200A94105D24046F7
:10048000214690461C460B46024623F0004010438E
:1004900047D0270DC7F30A00C3F30A510290401A50
:1004A000019040286BDAC3F3130040F4801B0098DE
:1004B000924620B10023D2EB030A63EB0B0B0198A9
:1004C0005946C0F14002504600F094F906460D46E8
:1004D00050465946019A00F0ACF910EB0800614112
:1004E000002487EA115284EAE7731A4340D0009A45
:1004F00062B3019A012A4FEA075215DC001B61EB37
:1005000002014FF0004202EA0752CDE90042001C0E
:1005100041F5801132462B4600F0ACF903B0BDE83E
:10052000F08F40462146F9E7001B61EB0201001CF9
:1005300041F5801300185B412018A2F5001747EB26
:10054000030140EAD570B6196D4111E06D084FEA1C
:10055000360645EAC0754FEA0752001B61EB0201FF
:10056000001C41F5801149084FEA30000019514143
:1005700032462B4603B0BDE8F04F00F06CB900984E
:10058000012240000023D0EB020263EBE0730098ED
:1005900021464FEAE074B8EB000061EB0401E9E7A3
:1005A00083F000435BE781F0004158E72DE9FE4FFF
:1005B00081EA030404F0004421F0004100944FF06C
:1005C000000B23F0004350EA01045ED052EA03041A
:1005D0005BD0C3F30A54C1F30A552C44A4F2F3349C
:1005E0000194A0FB0254C1F3130141F48011C3F341
:1005F000130343F4801301FB024400FB034E840AFF
:10060000970A44EA815447EA8357A4FB0768029596
:100610008D0A05FB07854FEA932C04FB0C54270534
:10062000029D4FEA065847EA1637B5EB08056EEB10
:10063000070C870E920E47EA811742EA8312A7FB46
:100640000201B6EB0B0164EB00042B0D43EA0C3303
:100650005E1844EB1C50DA465146E7FB0201C5F335
:1006600013044FEA0B3343EA14534FEA0432019C5C
:1006700043EA0603A4F10C040294009CCDE900B403
:1006800000F0F8F803B0BDE8F08F00200146F9E76C
:100690002DE9F04D81EA030404F0004B21F0004500
:1006A00014464FF0000A23F0004150EA050220D022
:1006B00054EA01021DD0C5F30A570246C5F31303DD
:1006C000C1F31300C1F30A5640F4801543F48013BC
:1006D000A7EB0608101BD64608F2FD3873EB0500A1
:1006E00002D308F1010801E092185B41B8F1000F54
:1006F00003DA00200146BDE8F08D00204FF48011A0
:10070000064684460EE0171B73EB050705D3121B44
:1007100063EB050306434CEA010C49084FEA30003D
:1007200092185B4150EA0107EDD152EA030012D062
:1007300082EA040083EA0501084305D0101BAB419F
:1007400006D20122002306E000224FF0004302E01F
:100750006FF0010253101AEB06004CEB085110EB3E
:100760000A0041EB0B01BDE8F04D00F074B8C1F395
:100770000A52C1F3130140F2FF3341F480119A424F
:1007800002DA00200146704740F233439A42A2F257
:10079000334202DC524200F03CB800F02BB80000BB
:1007A00030B5041E71F1000404DB4FF000444042F8
:1007B00064EB0101141E73F1000405DB1C464FF0CD
:1007C0000043524263EB0403994208BF904230BD9C
:1007D000064C074D06E0E06840F0010394E807008E
:1007E00098471034AC42F6D3FFF784FC9C440008D1
:1007F000BC440008202A04DB203A00FA02F1002061
:1008000070479140C2F1200320FA03F3194390404E
:100810007047202A04DB203A21FA02F000217047B9
:1008200021FA02F3D040C2F1200291400843194658
:100830007047202A06DBCB17203A41FA02F043EA40
:10084000E07306E041FA02F3D040C2F12002914089
:1008500008431946704710B5141E73F1000408DAF6
:10086000401C41F1000192185B411A4301D120F074
:10087000010010BD2DE9F04D92469B4611B1B1FA31
:1008800081F202E0B0FA80F220329046FFF7B2FF28
:1008900004460F4640EA0A0041EA0B0153465A4615
:1008A000084313D0114653EA010019D0C8F14002A1
:1008B0005046FFF7AEFF05460E46504659464246A3
:1008C000FFF798FF084305D0012004E02046394691
:1008D000BDE8F08D0020054346EAE0762C4337431F
:1008E0000A986305E40AA0EB08000022FD0A44EA26
:1008F00047540A3002D500200146E9E701051019E6
:100900006941DDE9084500196941BDE8F04DA2E7FC
:1009100010B503F0E5FC002010BD000070B502F03A
:10092000E7FC0A4D4FF408742146284600F0E0F831
:1009300020B1284600F0D9F8054A10802146284603
:1009400000F008F8BDE8704002F0E0BC002401406F
:1009500028000020090AC94301607047002904D01B
:10096000816841F0010181607047816821F00101D7
:10097000816070472DE9F05F474F484DB878A5F189
:100980001C0900281ED100244FF6FF764FF01408F2
:1009900006EA440109EB8400022202F019F86420FF
:1009A00003F097F808EB440081B205EB84000222C3
:1009B00002F00EF8642003F08CF8641C072CE7DBCF
:1009C0000120B8700121364800F024F9B9880020D0
:1009D00000F0ECF90646DFF8CC80D02088F80B0058
:1009E000AA2088F80C0000F0D3FE88F80D00002043
:1009F00088F80E0000242948651C1C3850F825A0F2
:100A000050F82490AAEB0900FFF776FC83462348B0
:100A100050F8251050F82400081AFFF76DFC5946CD
:100A2000FFF72CFC1D49383141F825000546B1453A
:100A30000ADCB24508DD3046FFF75EFC2946FFF7C9
:100A4000EBFBFFF762FCB8602846FFF777FC024635
:100A50000B4615A001F0B4FA641C062CCBDB3889D8
:100A6000010A88F80F1088F810000E49712000F074
:100A70005CFD0C49114800F099FD314610A002F0D0
:100A800081FC13A0B96802F07DFCBDE8F05F002195
:100A9000034800F0BFB800002400002040010020FF
:100AA00000240140FC00002043616C6962726174A3
:100AB000696F6E203D25660A00000000006400405A
:100AC00063757272656E74203D25640A0000000033
:100AD00064617461203D25640A0000000146002025
:100AE0008968490700D501207047C06C80B2704703
:100AF00010B5024600200B0A5468C9B20C401168B8
:100B0000194202D0002C00D0012010BD0146002067
:100B10008968090700D501207047C9B2002A03D0AF
:100B200042680A434260704742688A4342607047A5
:100B300010B542680E4B1A400C790B6842EA042249
:100B40001343436082680B4B1A40D1E902432343AD
:100B50004C7942EA440213438360C26A22F4700271
:100B6000097C491EC9B242EA0151C16210BD0000B0
:100B7000FFFEF0FFFDF7F1FF08B512208DF8000031
:100B800001208DF801008DF802008DF80300684601
:100B900000F00CFE08BD70B5072609290AD9C56802
:100BA000A1F10A0404EB4404A640B543A3401D434D
:100BB000C56007E0056901EB4104A640B543A340C9
:100BC0001D4305611F23072A09D2446B521E02EB05
:100BD000820293409C4391400C43446370BD0D2AB4
:100BE00009D2046BD21F02EB820293409C439140D6
:100BF0000C43046370BDC46A0D3A02EB8202934059
:100C00009C4391400C43C46270BD816841F008016F
:100C100081607047002904D0816841F4A00181609F
:100C20007047816821F4A00181607047816841F0BC
:100C300004018160704700004FF0FF35064C04E06E
:100C400000F00CF8012002F044FF2946206802F071
:100C5000DCFD0028F6D1F3E720000020FFF78ABE74
:100C600008B50121042000F0D3FE8020ADF800007B
:100C700000208DF803006946014800F0FEFC08BD25
:100C80000008014010B5FFF7EBFF00F005F8BDE8E4
:100C90001040FFF771BF000010B586B00121480277
:100CA00000F0B6FE002001908DF8080001218DF8BB
:100CB00009104FF46022039204908DF81410194C1F
:100CC00001A92046FFF734FF4FF4404000F07AFEC0
:100CD0000723012219462046FFF75DFF01224FF44A
:100CE00008712046FFF719FF01212046FFF736FE65
:100CF0002046FFF78AFF2046FFF708FF0028FAD1B9
:100D00002046FFF793FF2046FFF7E8FE0028FAD1C0
:100D100001212046FFF77EFF01212046FFF71EFE3E
:100D200006B010BD00240140F8B50121082000F0F4
:100D30006FFE8020ADF8000048208DF80300114EB2
:100D40006946304600F099FC3415ADF8004010219A
:100D50008DF8031003218DF802106946304600F02B
:100D60008CFC6500ADF800506946304600F085FC0B
:100D70002946304600F0DDFC2146304600F0D9FC23
:100D8000F8BD0000000C0140FFF7CEBF10B500F029
:100D9000F3FF00F091FF00F09FFE03480068BDE8FC
:100DA000104002F099BE00000000002070B58DB028
:100DB00000206D4645F82010401CC0B20D28F9D324
:100DC00000210020C1F10C060BE0421C55F8204028
:100DD00055F822309C4203DD45F8203045F822408A
:100DE000D0B28642F1DC491CC9B20C29E9D306987D
:100DF0000DB070BD2DE9F04101215E48FFF7AEFD59
:100E00005D485E4E0027017B5D4C5E4D962950D0BB
:100E100005DC59B132291DD064291AD132E0C82924
:100E20005ED0FA2971D0FF29F7D182E00222142185
:100E3000554801F002FEA1880020FFF7B7FF30609F
:100E4000022200214D4801F0F8FD2F734FA002F05F
:100E500099FA81E04C4802221621001D01F0EDFDB7
:100E6000A1880020FFF7A2FF0146304671600222F0
:100E70001146001D01F0E1FD47A002F083FA322087
:100E8000287369E0404802221821083001F0D5FD9E
:100E9000A1880020FFF78AFFB060384802220421B1
:100EA000083001F0CAFD3FA002F06CFA64202873FC
:100EB00052E0354802221A210C3001F0BEFDA18813
:100EC0000020FFF773FFF0602C48022206210C304F
:100ED00001F0B3FD38A002F055FA962028733BE0EC
:100EE000294802221C21103001F0A7FDA188002012
:100EF000FFF75CFF3061214802220821103001F029
:100F00009CFDC820287327E0FFE71F4802221E210E
:100F1000143001F092FDA1880020FFF747FF7061B7
:100F2000164802220A21143001F087FDFA202873A6
:100F300012E0154802222021183001F07EFDA18820
:100F40000020FFF733FFB0610C4802220C2118305B
:100F500001F073FDFF202873A770D120E8720949C2
:100F6000712000F0E2FABDE8F0410649184800F0AF
:100F70001DBB000000240140100100205C01002086
:100F800024000020FC0000204C4300085A65726FCA
:100F90005F6D6D68676E0A0046696674795F6D6D96
:100FA00068670A004F6E655F48756E647265645FBE
:100FB0006D6D68670A0000004F6E655F48756E646E
:100FC0007265645F46696674795F6D6D68670A0073
:100FD0000064004030B5082310240422B1F5007FDE
:100FE00033D011DC20292AD007DC012922D00429A2
:100FF00023D0082900D1C46030BD402921D0B1F5EB
:10100000807FF9D1426030BD0025B1F5004F20D07E
:1010100008DCB1F5806F1AD0B1F5006FF3D18561AE
:10102000426030BDB1F5803F0DD0B1F5003FF8D141
:10103000446030BD0849816030BDC36030BD03618C
:1010400030BD046130BD436030BD426030BD4260A0
:1010500030BD8561426030BD0101010010B500F076
:10106000D1F800F00DFA00F0DDF9BDE8104000F015
:1010700087B8000010B50C4988420AD101214C06FE
:10108000204600F0B7FC2046BDE81040002100F0EB
:10109000B1BC01218C06204600F0ACFC2046BDE826
:1010A0001040002100F0A6BC00640040F0B5827A38
:1010B00001219140304C226842F0010222602E4D05
:1010C0001C352A688A432A602B4A067B0C322B4B3C
:1010D000002E14D116688E4316604688C78846EAEB
:1010E0000746877A03EBC707C7F8406606888788F4
:1010F00046EA0746877A03EBC707C7F84466067BCC
:10110000012E14D116680E4316604288068842EA02
:101110000642867A03EBC606C6F84026C288868851
:1011200042EA0642867A03EBC603C3F84426124A13
:10113000C37A121D3BB113680B4313600E4A038937
:10114000143223B106E013688B431360F6E713688B
:101150008B4313600389012B02D113680B43136087
:10116000407B012802D1286808432860206820F0CD
:1011700001002060F0BD00000066004000600040FB
:101180007FB500248DF80A4001258DF80B508DF8AD
:101190000C402720ADF80000ADF8020000F0F8FA8E
:1011A00030B94FF40870ADF8000011A002F0EAF871
:1011B00000F0EEFA012806D14FF48460ADF8020089
:1011C0000DA002F0DFF84FF48050ADF804004FF4AA
:1011D0003070ADF80600ADF808408DF80D50684647
:1011E000FFF764FF01220221054800F08FF87FBD60
:1011F00043414ED7F300000043414ED3D2000000DC
:101200000064004038B50121042000F001FC4FF4D7
:101210008050ADF8000018208DF80300074C694697
:10122000204600F02AFAE114ADF8001048218DF8AC
:1012300003106946204600F020FA38BD000801403E
:101240000246002053690B425DD0B1F5807F4AD041
:1012500016DC082937D009DC01292CD002292ED030
:10126000042950D1D068082100F0FBB910292ED0F4
:10127000202930D0402946D11069102100F0F1B961
:10128000B1F5004F3BD00CDCB1F5007F2FD0B1F5AC
:10129000806F30D0B1F5006F35D19069702100F0CA
:1012A000E0B9B1F5803F1AD0B1F5003F2BD15068BD
:1012B000102100F0D6B99068134900F0D2B9D06877
:1012C000032100F0CEB9D068102100F0CAB910692E
:1012D000032100F0C6B91069082100F0C2B95068B6
:1012E000082100F0BEB99069012100F0BAB99069F7
:1012F000022100F0B6B99069042100F0B2B950683B
:10130000042100F0AEB9704701010100002A03D0AA
:1013100042690A434261704742698A4342617047A9
:1013200010B50022036823F002030360036843F052
:10133000010303604FF6FF7300E0521C4468E407AA
:1013400001D19A42F9D14268D2073ED08A79012A66
:101350003DD0026822F080020260CA79012A3BD0A7
:10136000026822F0400202600A7A012A39D002683B
:1013700022F0200202604A7A012A37D0026822F065
:10138000100202608A7A012A35D0026822F008022F
:101390000260CA7A012A33D0026822F00402026095
:1013A0008A78CC78920742EA04620C7942EA0442D5
:1013B0004C79098842EA0452491E0A43C261016815
:1013C00021F001010160002120E0002010BD026831
:1013D00042F080020260C0E7026842F04002026010
:1013E000C2E7026842F020020260C4E7026842F0ED
:1013F00010020260C6E7026842F008020260C8E715
:10140000026842F004020260CAE7491C4268D2073F
:1014100001D09942F9D14068C00701D0002010BD29
:10142000012010BD3EB50121480600F0D5FA134C4D
:101430002046FFF71FFE684600F07EF800218DF879
:10144000061001228DF807208DF808208DF809106C
:101450008DF80A108DF80B108DF802108DF803101E
:1014600006218DF8041003208DF80500ADF800105A
:1014700069462046FFF754FF3EBD0000006400406F
:1014800008B54FF4C06000F0C3F914208DF80000D7
:1014900000208DF801008DF8020001208DF8030076
:1014A000684600F083F908BD10B500EB0113D3F8CE
:1014B000B04104F004041472002C2CD0D3F8B041D5
:1014C000E408546003F5D8731C6804F002045472F5
:1014D0005C6804F00F0494725C68240AD4749C68FD
:1014E000D4729C68240A14739C68240C54739C68FE
:1014F000240E9473DC68D473DC68240A1474DC68EA
:10150000240C5474DB681B0E937449B1016941F0DB
:101510002001016110BDD3F8B041640D1460D1E722
:10152000C16841F02001C16010BD08600020087250
:10153000487208208872704700218171C171017260
:1015400041728172C1728170C170032101710221E7
:101550004171012101807047044800F009F900F051
:1015600007F8012002F0B5FAF9E7000010010020A9
:1015700070B50D4C0025E07AC12808D0C22809D0EA
:10158000C3280AD0C4280BD0E572E57270BD00F004
:10159000FDF8FAE700F046F9F7E700F0F5F9F4E7AF
:1015A000FFF728FCF1E700001001002030B50246EB
:1015B000002093685B010AD49068000101D50120E6
:1015C00005E09068C00001D5022000E00420042856
:1015D0003BD002EB0012D2F8803103F00103C2F8D5
:1015E00080310B7A93B3D2F880414D681C434B7A1B
:1015F00043EAC5031C43C2F880418B7A03F00F0312
:101600008B7202F5C072536823F00F035360536866
:101610008C7A23435360CB7A8C7B0D7B43EA046343
:101620004C7B240444EA052423439360CB7B8C7CCD
:1016300043EA04634C7C097C240444EA01210B4303
:10164000D360116841F00101116030BDFFE7D2F8AD
:1016500080314C7A23430C8843EA4453C2F88031EA
:10166000CBE7024600200A4200D00120704700F07C
:1016700063F80A2002F02DFAF9E72DE9F041002283
:10168000CC7804F00F03E40601D58C7823430C7862
:101690004FF00F0714F0FF0F4FF0010C1CD005683E
:1016A0000CFA02F40E882640A64211D1960007FAE1
:1016B00006F825EA080503FA06F848EA0505CE7893
:1016C000282E02D0482E02D002E0446100E00461DE
:1016D000521C082AE4D305600A88FF2A1ED94568EF
:1016E000002202F108060CFA06F40E882640A642F3
:1016F00010D1960007FA06F825EA080503FA06F85D
:1017000048EA0505CE78282E00D14461CE78482ECF
:1017100000D10461521C082AE3D34560BDE8F08182
:101720000246002092680A4200D0012070474161C1
:10173000704701617047000010B500F029F8C2B28F
:10174000034841780078BDE8104000F09BB80000E5
:1017500024000020054C4FF0FF352946206802F098
:1017600054F8012002F0B5F9F7E700001C00002052
:10177000002100220260426002728272C274431829
:10178000DA72491CC9B20829F9D3704770470000C2
:1017900010B580210448FFF7C3FF012801D00020C5
:1017A00010BD012010BD0000000C014070B50F23DA
:1017B000C27801260178002A1ED0144A126802F469
:1017C000E062C2F5E062120AC2F10404D340457837
:1017D000A54082781A402A43120101F1E02181F8E4
:1017E0000024007800F01F018E404009800000F1C5
:1017F000E020C0F8006170BD01F01F00864048097C
:10180000800000F1E020C0F8806170BD0CED00E0C8
:101810000249084302490860704700000000FA05C9
:101820000CED00E0F0B5154F00220123397B0224B6
:1018300003251348FF26002910D0012910D00229C2
:1018400010D0032910D00670797B79B101290FD00F
:1018500002290FD003290FD04670F0BD0270F3E7C4
:101860000370F1E70470EFE70570EDE74270F0BD3B
:101870004370F0BD4470F0BD4570F0BD1001002014
:101880002400002070B50C46254E02004FF4806104
:1018900042F2107506D0012A0AD0022A0ED0032A7D
:1018A00017D111E02B460022304600F03BF810E043
:1018B0002B460122304600F035F80AE02B46022282
:1018C000304600F02FF804E02B460322304600F0AB
:1018D00029F84FF4006164B1012C11D0022C16D00C
:1018E000032C1BD12B463046BDE87040032200F08C
:1018F00019B82B463046BDE87040002200F012B8FF
:101900002B463046BDE87040012200F00BB82B4654
:101910003046BDE87040022200F004B870BD0000FF
:10192000000C01402DE9F04104460D461E46002AF8
:1019300026D0012A1AD00A27022A0CD0032A20D145
:101940002561304602F0C5F86561B6FBF7F0BDE8E9
:10195000F04102F0BEB82561B6FBF7F002F0B9F82D
:1019600065613046BDE8F04102F0B3B8256130460C
:1019700002F0AFF865613046BDE8F04102F0A9B869
:101980002561BDE8F081000010B5FFF701FF20B12F
:10199000BDE8104003A001F0F5BCBDE8104005A073
:1019A00001F0F0BCD3D2C2F6B2ABCCF8D2BBCFC2FE
:1019B0000A000000D7F3C2F6B2ABCCF8D2BBCFC25C
:1019C0000A000000034A516821F44041014351607C
:1019D0007047000000100240054A002903D0D16979
:1019E0000143D1617047D1698143D16170470000E3
:1019F00000100240054A002903D01169014311611A
:101A00007047116981431161704700000010024066
:101A1000054A002903D0916901439161704791699A
:101A200081439161704700000010024010B5264AC2
:101A3000516801F00C01254B002927D0042927D03B
:101A4000082927D00360516801F0F0010909204BF3
:101A50005C5C0168E1404160546804F4E064240A7D
:101A60001C5D21FA04F48460546804F46054E40AB0
:101A70001B5DD940C160526802F44042920B144B86
:101A80001B1F9A5CB1FBF2F1016110BD0360DAE744
:101A90000360D8E7516801F47011536803F4803390
:101AA000022404EB914133B153689B0307D5094BE2
:101AB00059430160C7E7074B59430160C3E7034B34
:101AC00059430160BFE700000010024000127A0095
:101AD0003400002000093D0010B50022012106A0BD
:101AE00001F052FE064C20600022022105A001F008
:101AF0004BFE606010BD000073726D31000000008D
:101B00001C000020426C6F6F645F507265737375C8
:101B100072655F43616C6962726174696F6E5F5375
:101B2000656D0000AFF300800CB5002201920092B9
:101B30002748016841F4803101604FF4A0630168D7
:101B400001F4003100910199491C0191009911B9EA
:101B500001999942F3D10168890302D501210091CD
:101B600000E000920099012930D11A490A6842F038
:101B700010020A600A6822F003020A600A6842F052
:101B800002020A604168416041684160416841F475
:101B900080614160416821F47C114160416841F4F9
:101BA000E8114160016841F08071016001688901BC
:101BB000FCD5416821F003014160416841F0020118
:101BC00041604168C1F381010229FAD10CBD0000D6
:101BD000001002400020024010B501F089FB02F025
:101BE00005F9BDE8104001F091BB000010B51A4A9C
:101BF000506800F00C01194B194800290ED0042937
:101C00000ED008290ED003605168154AC1F30311A4
:101C1000121D515C0268CA40026010BD0360F3E708
:101C20000360F1E7516801F47011536803F48033E5
:101C3000022404EB914133B153689B0307D5094B50
:101C400059430160E0E7074B59430160DCE7034B70
:101C500059430160D8E700000010024000127A00EA
:101C60004400002000093D0010B50F48016841F014
:101C70000101016041680D4A1140416001680C4A50
:101C800011400160016821F480210160416821F464
:101C9000FE0141604FF41F018160FFF743FF0549DA
:101CA0004FF00060086010BD001002400000FFF817
:101CB000FFFFF6FE08ED00E02DE9FC4114250320AE
:101CC000CDE900054FF400773B460022184919A0E2
:101CD00001F0D9FE1A4C206008B102F00DF802267E
:101CE000CDE9006573020022164917A001F0CBFE72
:101CF00060600120CDE900053B460022154916A091
:101D000001F0C1FEA06008B101F0F6FFCDE9006569
:101D10003B460022134914A001F0B5FEE060002804
:101D200003D0BDE8FC4101F0E7BFBDE8FC81000045
:101D30005915000843414E5F5461736B0000000069
:101D400004000020551700084932435F5461736B4B
:101D500000000000390C00084144435F5461736B7C
:101D6000000000006F160008446973706F73655FB0
:101D70005461736B00000000F8B5062542F210763E
:101D80003346002209490AA0009502F095F80C4C50
:101D9000206008B102F0CEF83346002209490AA0BB
:101DA000009502F089F86060F8BD00003543000836
:101DB0007377746D72315F63616C6C6261636B0029
:101DC00014000020414300087377746D72325F6322
:101DD000616C6C6261636B00002904D0818941F4FD
:101DE000005181817047818921F4005181817047C0
:101DF00010B586B001210420FFF70AFE01218803F7
:101E0000FFF706FE4FF40070ADF8140018208DF8AF
:101E1000170003208DF81600144C05A92046FFF783
:101E20002CFC2115ADF8141004218DF8171005A90C
:101E30002046FFF722FC4FF4E13001900020ADF87E
:101E40000800ADF80A00ADF80C00ADF810000C2049
:101E5000ADF80E00064C01A9204600F013F8012150
:101E60002046FFF7B9FF06B010BD00000008014092
:101E7000003801400246002012880A4200D00120AA
:101E80007047000030B585B004460D46208A4CF6F8
:101E9000FF710840E98801432182A0894EF6F311C1
:101EA0000840A9882A8911436A8902431143A18104
:101EB000A08A4FF6FF410840A9890143A1826846E4
:101EC000FFF7B4FD1D48844201D1039800E0029859
:101ED000A189090408D500EBC00101EB00102968B5
:101EE0004900B0FBF1F007E000EBC00101EB00108E
:101EF00029688900B0FBF1F06422B0FBF2F109011E
:101F00000B096FF018056B4300EB8300A3891D04D8
:101F10004FF0320307D503EBC000B0FBF2F000F046
:101F20000700084306E003EB0010B0FBF2F000F0FE
:101F30000F000843208105B030BD0000003801408B
:101F4000C1F308018180704710B501F0D1F90C4C44
:101F500002212046FFF774F920B10A4A00212046E9
:101F6000FFF7A2FA0748016807A001F00BFA022167
:101F70002046FFF72FF8BDE8104001F0C7B9000078
:101F800000640040100100206C61696C65203D30E8
:101F90007825780A00000000401EB0F1807F01D350
:101FA000012070474FF0E0214861044AFF20107083
:101FB00000208861072008610020704723ED00E0C1
:101FC0000FB4054B10B503A9044A029800F008F9B4
:101FD00010BC5DF814FB0000AD2A0008F8000020DA
:101FE000002807D00F4910F0FF0F05D0C0B2085CE1
:101FF000401C70470020704710F47F4F04D0C0F39E
:102000000720085C0930704710F47F0F04D0C0F33C
:102010000740085C1130704701EB10600078193000
:10202000704700006843000802E008C8121F08C19A
:10203000002AFAD170477047002001E001C1121F49
:10204000002AFBD1704700002DE9FF5F82B000211C
:10205000DDE90430020DDDF840B0034318D044F64A
:102060001050A2F2FF3242431514119801281FD0DC
:10207000A5EB0B00401C5FEA000A4FF000064E4F34
:10208000DFF83891B046504615D5CAF1000413E088
:10209000119801244AA3012801D16FEA0B0102988B
:1020A000119AC0E90031C0E9024206B0BDE8F09FD4
:1020B000CBF10000DFE704460021404A491842EB1B
:1020C0000450CDE9001012E0E00707D032463B464D
:1020D00040464946FEF76AFA8046894632463B4604
:1020E00010461946FEF762FA06460F466410002CA9
:1020F000EAD1DDE90401DDE90023BAF1000F06DAD7
:10210000FEF754FA42464B46FEF750FA05E0FEF75A
:10211000BFFA42464B46FEF7BBFA04460E46002283
:10212000284BFEF73DFB03D84FF0FF30014607E098
:102130000022254B20463146FEF791F9FEF717FBAA
:10214000102409E0002C0ADB0A220023FEF71FF905
:10215000039B30321A55641E50EA0102F2D1641C0E
:10216000039AC4F111031444119A012A03D00122E5
:1021700008430DD10AE0084304D000204FF0110BB2
:10218000119072E7A3EB0B056D1E0DE05B4504DDBE
:102190004FF0000205F1010504E003DA4FF0000200
:1021A000A5F10105002AECD002981199C0E902318D
:1021B000C0E9004579E70000000014400000F03F4E
:1021C000300000000000F0430000E03F03480168D9
:1021D000814201D00120704700207047E4000020B8
:1021E0002DE9FF4F95B09B468946064600250FE234
:1021F000252877D100242746F84A0121059400E0DC
:10220000044316F8013F203B01FA03F01042F7D1D6
:1022100030782A2811D06FF02F033078A0F13002E7
:10222000092A16D8059A44F0020402EB820203EB55
:1022300042021044761C0590EFE759F8042B0592F2
:10224000002A03DA504244F40054059044F002049A
:10225000761C30782E2816D116F8010F44F00404AD
:102260002A280DD06FF02F023078A0F13003092B0F
:1022700009D807EB870302EB4303C718761CF3E783
:1022800059F8047B761C30786C280FD006DC4C287B
:1022900017D068280DD06A2814D104E0742810D013
:1022A0007A280FD10DE044F400140AE044F48014BD
:1022B00001E044F440147278824202D104F58014A3
:1022C000761C761C307866280BD013DC582877D023
:1022D00009DC002875D04528F6D04628F4D04728D8
:1022E0001AD19DE118E0632835D0642879D065289B
:1022F00012D195E1702873D008DC6728F1D06928E5
:102300006FD06E280DD06F2806D1B5E073282CD081
:10231000752875D0782874D05A46179990476D1C47
:1023200075E1C4F30250022809D003280DD0D9F872
:10233000001004280DD00D6009F1040967E1D9F8F7
:102340000010EA17C1E90052F6E7D9F800100D8035
:10235000F2E70D70F0E719F8041B8DF8001000206B
:102360008DF80100EA46012003E059F804AB4FF074
:10237000FF3061074FF0000102D40DE008F10101C8
:102380008846B9420FDA8045F8DB1AF808100029B0
:10239000F4D108E008F1010188468142FADB1AF81D
:1023A00008100029F6D105985B46A0EB08072146E6
:1023B0003846179A00F094FA284400EB080507E025
:1023C0004DE029E10DE01AF8010B5A4617999047A4
:1023D000B8F10108F7D25B4621463846179A13E157
:1023E00042E00A220092C4F302524FF0000A022A8D
:1023F00008D059F804CB032A4FEAEC710AD00DE05B
:1024000029E02AE009F1070121F00702F2E802C100
:10241000914609E00FFA8CFC4FEAEC71042A03D1D3
:102420004FFA8CFC4FEAEC71002907DA0A460021CA
:10243000DCF1000C61EB02012D2202E0220504D543
:102440002B228DF80420012203E0E20701D0202294
:10245000F7E7904659E00A2102E010220DE0102132
:102460004FF0000A00910BE010224FF0000A44F0F8
:1024700004040827009203E008224FF0000A0092AB
:10248000C4F30252022A05D059F804CB0021032AD2
:1024900008D009E009F1070121F00702F2E802C1C2
:1024A000914605E01FFA8CFC042A01D10CF0FF0CC8
:1024B0004FF00008220728D5702806D0009B83F033
:1024C000100353EA0A0305D00EE040228DF80420E1
:1024D000012208E05CEA010206D030228DF80420D7
:1024E0008DF8050002229046009B83F0080353EA12
:1024F0000A030AD15CEA010201D1620705D5302244
:102500008DF804204FF001087F1E582804D034A015
:1025100003900EA802900DE036A0F9E753466046FE
:10252000009AFDF734FF84460398825C0298401EAF
:10253000029002705CEA0100F0D1029806A9081A24
:1025400000F1200A600702D524F4803400E001275E
:10255000574502DDA7EB0A0000E0002000EB0A016E
:10256000009005984144401A0590E00306D45B466C
:102570002146179A059800F0B3F90544002706E0B4
:1025800001A85A46C05D179990476D1C7F1C4745AE
:10259000F6DBE0030CD55B462146179A059800F060
:1025A0009FF9054404E030205A46179990476D1C66
:1025B0000099481E00900029F5DC08E00298029975
:1025C0005A460078491C0291179990476D1CBAF140
:1025D0000001AAF1010AF1DC65E10000092801000F
:1025E0003031323334353637383961626364656689
:1025F000000000003031323334353637383941424B
:10260000434445460000000000F058F90544761C9C
:10261000307800287FF4ECAD19B02846BDE8F08F83
:10262000620700D4062709F1070222F0070CFCE834
:102630000223E14603F000485FEA080C02D00FF2E3
:10264000702C0DE05FEA045C02D50FF2682C07E005
:102650005FEAC47C02D00FF2602C01E0AFF2700C94
:102660004FF0FF3823F00043CDF850C065280CD060
:1026700006DC452809D046281DD047283DD13DE03D
:10268000662818D067287ED138E00021112F01DBA1
:10269000112000E0781CCDE9000106A90EA8FFF783
:1026A000D3FCDDE90F010E9A03910021009207F19E
:1026B000010A04914DE04FF000400097CDE9011070
:1026C00006A90EA8FFF7C0FCDDE90F0203920E9BDE
:1026D00011990022DDF80CA00093049211B9791C25
:1026E00000EB010AB7EB0A0004D4C0F1FF3007F198
:1026F000010A0490AAEB0700019044E0012F00DAE0
:1027000001270021112F01DD112000E03846CDE91D
:10271000000106A90EA8FFF797FCDDE90F010E9A4C
:102720000391002104910092BA4621070CD4039929
:10273000514500DA8A46BAF1010F05DD009AAAF187
:102740000101515C302908D0B84202DA10F1040FBF
:1027500006DA0121CDE9011015E0AAF10101E9E74E
:10276000002805DC049901440491AAEB000102E071
:10277000411C514500DD8A460499401A401C0190D5
:102780004FF000400290200704D40198504501DB2F
:10279000CDF8048000208DF84F0002980DF14F070E
:1027A000B0F1004F25D02B200E9002984FF0020878
:1027B00000280CDA404202902D200E9007E00A21FA
:1027C0000298FDF7CEFD3031029007F8011DB8F1F7
:1027D0000001A8F10108F2DC02980028EFD1791E6F
:1027E0000E980870307800F0200040F0450007F89F
:1027F000020D12A8C01B00F107081498007800B160
:10280000012000EB0A01019801EBE07105984144B9
:10281000401A401E0590E00306D45B462146179AF5
:10282000059800F05DF805441498007818B15A46F0
:10283000179990476D1CE00324D55B462146179AF3
:10284000059800F04DF805441CE00498002807DBCB
:10285000DDE90301884203DD0098405C179901E03F
:10286000179930205A469047049805F10105401CFD
:1028700004900198401E019004D12E205A461799C9
:1028800090476D1CBAF10001AAF1010ADDDC05E0F8
:1028900017F8010B5A46179990476D1CB8F10001C3
:1028A000A8F10108F4DC5B462146179A0598ABE6CF
:1028B0002D0000002B000000200000002DE9F04159
:1028C000044600251E461746880404D405E0394610
:1028D0002020B0476D1C641EF9D52846BDE8F08164
:1028E0002DE9F041044600251E469046C80301D557
:1028F000302700E02027880404D505E0414638460B
:10290000B0476D1C641EF9D52846BDE8F081000073
:102910002DE9FC411F46DDE90A65DDE90831044681
:1029200004F11400406000601C346260A760E36042
:1029300021610A462321184600F0F4FDD4E9030181
:102940004218D4E90101121F0D4B00F0B3FC2060C6
:10295000A67666760020E061A562E5626061207679
:10296000E06520661C3C009001902346054A214604
:1029700004F14C0001F0C8FA0020BDE8FC81000021
:10298000193B0008613D000810B5029C24F00104C9
:102990004472C161026200218162436200EBC102A4
:1029A000143252601260491C0129F7DB10BD10B5CA
:1029B000002200EBC2011431D1E900436360D1E988
:1029C0000034236049600960521C012AF1DB10BD0C
:1029D0002DE9F04105460C46164600F029F9A020E5
:1029E00000F0FAF800F054F968B9E0B200F0F4F839
:1029F00000F04EF938B900F01BF9A12000F0ECF816
:102A000000F046F920B100F02FF90020BDE8F08178
:102A10000024771E0BE000F0BDF82855BC4202D020
:102A200000F056F801E000F09DF8641CA4B2B44236
:102A3000F1D300F019F90120E8E72DE9F0478046CD
:102A40000E46914600254FF47A7729E00DB17007C4
:102A500016D100F009F9002400F0EAF8A02000F0F7
:102A6000BBF800F015F918B1641CA4B2BC42F3D352
:102A7000BC420CD0F0B200F0AFF800F009F930B968
:102A800018F8050000F0A8F800F002F920B100F0F5
:102A9000EBF80020BDE8F087761CB6B26D1CADB235
:102AA0004D45D3D300F0E0F80120F3E770B50446BC
:102AB000064DE1B22846FFF743FA80212846FFF78A
:102AC000D9F90028F9D0204670BD00000038014037
:102AD00010B50C4C02212046FEF729FE00F03CF810
:102AE00004212046FEF725FE00F036F8042120469A
:102AF000FEF71DFE00F030F82046BDE81040022130
:102B0000FEF717BE0008014008B501210420FEF7BA
:102B10007FFF0620ADF8000003208DF8020014208E
:102B20008DF8030069460348FEF7A7FD00F09CF806
:102B300008BD00000008014010B50446FFF7E4FF9F
:102B400000F076F8204600F047F800F0A1F80446BF
:102B500000F08AF8204610BD0020401CC0B20528B5
:102B6000FBD3704710B50A4C02212046FEF7E1FD69
:102B7000FFF7F2FF04212046FEF7DBFDFFF7ECFF35
:102B800004212046FEF7D3FDBDE81040FFF7E4BF67
:102B90000008014070B5002400250E4E6006040EAA
:102BA00004213046FEF7C5FDFFF7D6FF022130466F
:102BB000FEF7B6FD08B1641CE4B204213046FEF70E
:102BC000B6FDFFF7C9FF6D1CEDB2082DE6D3204618
:102BD00070BD00000008014070B505460024134E8A
:102BE000280604D502213046FEF7A3FD03E00221AA
:102BF0003046FEF79CFDFFF7AFFF04213046FEF79D
:102C000098FDFFF7A9FF04213046FEF790FD072C41
:102C100003D102213046FEF78CFD6806050EFFF752
:102C20009BFF641CE4B2082CDAD370BD000801409D
:102C300010B50C4C02212046FEF77BFD04212046F6
:102C4000FEF777FDFFF788FF02212046FEF76FFDB4
:102C5000FFF782FF04212046FEF769FDBDE8104022
:102C6000FFF77ABF0008014010B5084C022120464A
:102C7000FEF75DFD04212046FEF75BFDFFF76CFFCC
:102C80002046BDE810400221FEF753BD0008014078
:102C900070B50E4D02212846FEF74BFDFFF75CFF95
:102CA00004212846FEF745FDFFF756FF022128467E
:102CB000FEF736FD08B1012400E000240421284677
:102CC000FEF735FDFFF748FF204670BD00080140C4
:102CD0001CB501211420CDE900104B02002205494A
:102CE00005A000F0D0FE0749086008B101F004F823
:102CF00000201CBD8D0D00084170706C696361740B
:102D0000696F6E000000002010B500F0EDF8BDE81E
:102D10001040FFF7DDBF000030B5134C416822685A
:102D2000114402F1080388420DD04D885DB96568F1
:102D3000A94208D0A5688D4200D1A0604D684560C9
:102D40004968851ACD508168114481420BD04D8865
:102D5000002D08D1A568854200D1A16044684C606F
:102D60004068891AC15030BD700000202DE9F04F35
:102D700085B00EAC70CCA9460094740602D5DFF87D
:102D80001CB103E0DFF814B1ABF1110BF40601D56F
:102D900026F00106F40702D04FF0300A01E04FF0B0
:102DA000200A0027B4070BD5002A02DA2D27524249
:102DB00006E0740701D52B2702E0340700D5202751
:102DC00000240DF1040E7AB9302201248DF804207C
:102DD0000CE00A2B15D002F00F081209A4461BF8CC
:102DE0000880641C0EF80C80002AF2D1AC4200DD91
:102DF0002546009A521B16F0110F4FF0200309D000
:102E000016E04FF00A0CB2FBFCF80CFB1828B2FBE2
:102E1000FCF2E3E73FB1002A05DD521E03E08842E1
:102E200000D20370401CB2F1000CA2F10102F6DCEA
:102E300027B1884200D20770521E401CF60605D505
:102E400008E0884201D280F800A0401C161EA2F1C2
:102E50000102F6DC302703E0884200D20770401CF4
:102E60002E466D1EA642F7DC05E0884202D21EF80F
:102E700004500570401C251EA4F1010407DDB9F1C2
:102E8000000FF2D103E0884200D20370401C141EF0
:102E9000A2F10102F7DC05B0BDE8F08F794400082B
:102EA0001CB502211420CDE900100B0200220449B8
:102EB00004A000F0E8FDBDE81C4000F01DBF0000CC
:102EC000092D00086D61696E0000000070B5044CAA
:102ED000044D02E020688047241DAC42FAD370BD47
:102EE000904400089444000870B5044C044D02E07E
:102EF00020688047241DAC42FAD370BD944400087A
:102F00009844000810B5FDF70DF9044A5188491C92
:102F10005180BDE81040FDF709B90000D80000203D
:102F200010B5FDF7FFF80B4C6188491E09B26180AE
:102F300000290ADC00216180FDF7F8F860680028AC
:102F400007D0BDE8104000F09FBBBDE81040FDF782
:102F5000EDB810BDD800002070B5002833D01A4D50
:102F6000296888422FD3696888422CD2A0F10C04CA
:102F70004FF0FF31154800F048FC60884FF4F556DB
:102F800010B12088B04208D011A000F0FBF92388CE
:102F90006288214615A000F0F5F9002060802680A7
:102FA000A868844200D2AC6029686068611A401A3F
:102FB0002969081A28612046FFF7AEFEBDE8704077
:102FC000024800F004BC70BD700000209403002093
:102FD000746F20667265652061206261642064619F
:102FE000746120626C6F636B3A0A00006D656D3A24
:102FF000203078253038782C207573656420666C15
:1030000061673A2025642C206D6167696320636FD6
:1030100064653A203078253034780A0000487047DB
:10302000F403002000487047F423002010B5FEF799
:10303000DDFDFEF7DDFEFDF7A7FEA020FFF77CFD1E
:10304000FEF70CF8FDF71EFE094842F21071006809
:10305000B0FBF1F0FEF7A0FFFFF738FFFFF7E2FF4C
:103060000446FFF7DBFF2146BDE8104000F078BCC6
:103070004400002070B50446FFF744FF0F4D16E0F2
:103080000A2809D10D212846FEF75AFF802128463B
:10309000FEF7F0FE0028F9D014F8011B2846FEF7D1
:1030A0004FFF80212846FEF7E5FE0028F9D0207862
:1030B0000028E5D1BDE87040FFF732BF003801407D
:1030C00070B505462C1D2B480168002903D0284601
:1030D000884700284DD028A0E16B00F053F92AA0C2
:1030E000216A00F04FF92CA0616A00F04BF92EA084
:1030F000A16A00F047F930A0E16A00F043F932A07C
:10310000216800F03FF934A0616800F03BF936A077
:10311000A16800F037F938A0E16800F033F93AA06F
:10312000216900F02FF93CA0616900F02BF93EA065
:10313000A16900F027F940A0E16900F023F942A05D
:10314000216B00F01FF944A0616B00F01BF946A051
:10315000A16B00F017F92878400706D500F0A6FD0E
:10316000014645A000F00EF902E04BA000F00AF97C
:10317000FEE770BD580000207073723A2030782549
:103180003038780A000000007230303A203078255C
:103190003038780A000000007230313A203078254B
:1031A0003038780A000000007230323A203078253A
:1031B0003038780A000000007230333A2030782529
:1031C0003038780A000000007230343A2030782518
:1031D0003038780A000000007230353A2030782507
:1031E0003038780A000000007230363A20307825F6
:1031F0003038780A000000007230373A20307825E5
:103200003038780A000000007230383A20307825D3
:103210003038780A000000007230393A20307825C2
:103220003038780A000000007231303A20307825BA
:103230003038780A000000007231313A20307825A9
:103240003038780A000000007231323A2030782598
:103250003038780A00000000206C723A203078255F
:103260003038780A000000002070633A203078255A
:103270003038780A00000000686172642066617569
:103280006C74206F6E207468726561643A202573D7
:103290000D0A0D0A00000000686172642066617505
:1032A0006C74206F6E2068616E646C65720D0A0D1F
:1032B0000A00000070B50646121D22F00700A0F1BA
:1032C000400528460022094C40F82240521C102A92
:1032D000FAD30162002141628162C16201634363EA
:1032E00086634FF08071C163284670BDEFBEADDECE
:1032F00010B5FCF717FF044A1178491C1170BDE89E
:103300001040FCF713BF00006C00002010B5FCF764
:1033100009FF044A1178491E1170BDE81040FCF7FE
:1033200005BF00006C0000202DE9F04105460E4667
:103330001446304600F0F3FC06F1140714B1012CDA
:103340001DD104E03946284600F043F817E02C6808
:103350000DE0A4F1140096F8351090F83520914254
:1033600004D23946143000F034F802E02468AC424C
:10337000EFD1AC4203D13946284600F02AF80020AC
:10338000BDE8F0810FB408B503AB00937F21054879
:10339000029A00F051FE0348FFF76CFE01B05DF8A1
:1033A00014FB0000140300200268516002680A60E8
:1033B0000160486070470268516002680A600160FD
:1033C000486070470268516002680A6001604860A6
:1033D00070474268116042684A6041600860704707
:1033E0000168814201D101207047002070470168C7
:1033F000814201D10120704700207047D0E90021AF
:103400005160D0E900121160406000607047D0E95F
:1034100000215160D0E900121160406000607047E7
:103420002DE9F047002809D0C01C20F003053B4ED1
:10343000F068854204D90020BDE8F0870020FBE752
:103440000C2D00D20C254FF0FF31354800F0DDF98E
:10345000B7683168781AD6F80CC0ACEB050356E0B3
:103460000C1862888ABB6268121A0C3AAA424DD3C1
:10347000626805F11803121A0C3A4FF001094FF473
:10348000F5589A4222D343190C33CA18A2F8008087
:103490004FF0000AA2F802A0D4F804A0C2F804A0D9
:1034A00090606360A4F8029050680CF10C0C6045C9
:1034B00002D001F108028350306928440C30306199
:1034C000726982420ED270610CE01FE0A4F8029093
:1034D0006068621A801A32691044306172698242EF
:1034E00000D27061A4F80080BC4203D008E04068BC
:1034F0000844B060B068428812B172689042F6D158
:10350000074800F064F904F10C0095E76068834215
:10351000A6D8034800F05BF900208DE7700000207A
:103520009403002010B50346CCB2042A15D38107BA
:1035300013D1014644EA042343EA034305E00B6048
:103540004B608B60CB601031103A102AF7D201E04B
:1035500008C1121F042AFBD20B46E1B201E003F8B6
:10356000011B521E541CFAD110BD2DE9F041064634
:103570000F46304600F046F80546E868FFF750FF72
:103580000446D4B100212046EA68FFF7CBFF26723B
:103590000020607208223946204600F0CDF9FCF781
:1035A000C1FD064604F10C01281DFFF7FDFE304663
:1035B000FCF7BCFD2046BDE8F0810020FBE770B5BC
:1035C000044600202072FCF7ADFD054604F10C0016
:1035D000FFF714FF2846FCF7A9FD2046BDE8704020
:1035E000FFF7BABC70B5044600202072FCF79AFDC4
:1035F000054604F10C00FFF701FF2846BDE87040C6
:10360000FCF794BD0021074A02EB01131B788342AB
:1036100002D102EB01107047491C0529F4DB0020A0
:1036200070470000880000202DE9F04105460E4655
:1036300017463046FFF7E6FF0446FFF763FC616874
:10364000201D00E009688142FCD1FFF769FC46F0CB
:103650008000287208223946284600F06DF9FCF7F0
:1036600061FD064605F10C01201DFFF79DFE304669
:10367000BDE8F041FCF75ABD007A000601D50120F3
:10368000704700207047000070B5FCF74BFD054601
:10369000124C608898B9A068FEF7A2FC421E104840
:1036A00050F8321014396068814208D0227061608D
:1036B0000C4A127842B11C311C30FCF73AFD284606
:1036C000BDE87040FCF732BD1C311C30FCF731FD09
:1036D0002846BDE87040FCF729BD0000D800002056
:1036E000B40300206C00002010B50446FCF71AFD5E
:1036F000024614F8340F20F00F00401C2070607850
:103700000A49343C01EBC00104F114004B68186015
:103710004B684360486001600548A16B83681943AA
:103720008160BDE810401046FCF700BDB4030020E6
:10373000D800002070B50546FCF7F4FC014605F101
:103740001404D4E900205060D4E9000210606460E1
:10375000246095F835000A4A02EBC00002688242F4
:1037600001D1012000E0002020B10648AB6B826847
:103770009A438260BDE870400846FCF7D7BC000061
:10378000B4030020D800002070B50C461546014651
:103790000220FFF7EAFE002805D000F1140149607D
:1037A00009608483457270BD2DE9F04105461646D7
:1037B0001F460A4602212846FFF736FF2C461434DE
:1037C00064602460AE836F720020BDE8F08170B544
:1037D00004460025FCF7A6FC064604F11400FFF79A
:1037E000FFFD40B1A08B401CA0833046FCF79EFC3F
:1037F000012D06D007E06069143800F039FA012580
:10380000F3E7FFF741FF002070BD73B50446FCF7F6
:1038100089FC0646A08B28B1401EA0833046FCF7E9
:1038200085FC21E0019808B300F040FA054600202D
:103830002863627A294604F11400FFF775FD0198A8
:10384000002809DD05F14C0001AA0021044600F022
:1038500019FB204600F06EFB3046FCF767FCFFF7D3
:1038600013FF286B002800D100207CBD3046FCF7F8
:103870005DFC6FF001007CBD08B509A0FFF782FD7B
:103880000AA0FFF77FFD12A0032300900122194632
:1038900012A0FFF777FDBDE8084018A0FFF772BD42
:1038A0000A205C207C202F0A000000002D205254AA
:1038B000202D2020202020546872656164204F70E4
:1038C00065726174696E672053797374656D0A005F
:1038D000536570202033203230323000202F207C7E
:1038E000205C202020202025642E25642E256420A5
:1038F0006275696C642025730A0000002032303044
:1039000036202D203230313920436F70797269674B
:1039100068742062792072742D7468726561642005
:103920007465616D0A000000014600E0491C0A78D8
:10393000002AFBD1081A704710B5002A07D00346A9
:1039400011F8014B03F8014B14B1521EF8D110BD10
:10395000002101E003F8011B521EFBD110BD000045
:1039600070B505460A46E81C20F0030122F0030367
:10397000182B21D9A3F118048C421DD3114C5A1ACB
:10398000183AE26021604FF4F5530B800C324A6024
:1039900000208860488048680844606003800121F6
:1039A0004180426082600023012207A10848FFF79E
:1039B000FBFE2068A06070BD2946BDE8704005A0F0
:1039C000FFF7E0BC70000020686561700000000037
:1039D000940300206D656D20696E69742C206572FA
:1039E000726F7220626567696E20616464726573CC
:1039F0007320307825782C20616E6420656E6420F9
:103A00006164647265737320307825780A00000061
:103A100010B50A4B00245C800020094A02EBC0016B
:103A200049600960401C0828F8DB072018705C60BA
:103A30009C6002480C304060006010BDD80000203F
:103A4000B403002010B5074CA068FEF7C9FA401E69
:103A5000054951F8300014386060BDE810401C3052
:103A6000FCF795BBD8000020B40300200020044AD6
:103A700002EBC00149600960401C0028F8D0704783
:103A8000F000002070472DE9FF478046DDE90C6714
:103A9000894692461D4641460120FFF766FD0446D1
:103AA00020000FD02846FFF7BBFC68B18DE8E1008D
:103AB00053464A4641462046FEF72AFF204604B0B8
:103AC000BDE8F0870020FAE72046FFF778FD0020E8
:103AD000F5E700F0F1B8000070B5044694F8340042
:103AE000000702D02046FFF725FE04F14C0000F04D
:103AF000FBF9042084F83400FCF714FB054604F1BC
:103B000014010448FFF757FC2846FCF70FFB002080
:103B100070BD0000E400002070B513480468FCF795
:103B200001FB05462046FFF705FE042084F834001B
:103B300004F14C0000F0D8F92046FFF79DFD012864
:103B400001D1A06F58B104F114010848FFF733FC0C
:103B50002846FCF7EBFABDE87040FFF795BD20461C
:103B6000FFF740FDF4E70000DC000020E400002047
:103B700000F002F8FCE7000070B527E0FCF7D2FA8D
:103B80000646FEF723FB80B31A480468A4F1140527
:103B9000D4E900104860D4E9000108606460246042
:103BA000FFF7B0F9A96F09B1284688472846FFF703
:103BB00063FD01280FD0FFF7B3F93046FCF7B6FAE2
:103BC000A86AFFF7C9F92846FFF7F9FCFEF7FEFAE5
:103BD0000028D3D170BD2846FFF704FDFFF7A0F9F8
:103BE0003046BDE87040FCF7A1BA3046BDE87040F1
:103BF000FCF79CBAE40000201FB52020C20007217A
:103C0000094BCDE90210CDE9003207480023074AED
:103C100007A1803800F010F804B00348BDE8104058
:103C2000803800F069B8000014020020713B0008E1
:103C30007469646C650000002DE9FF5F8146DDE971
:103C40000E76DDE91054884692469B464246012195
:103C50004846FFF7E9FCCDE90076CDE902545B4622
:103C6000524641464846FEF753FE04B0BDE8F09F79
:103C700070B5044694F8340000F00F00022802D01A
:103C80004FF0FF3070BDFCF74DFA054604F114000B
:103C9000FFF7BDFB04F14C0000F0B6F92846FCF735
:103CA00045FA2046FFF720FD002070BD014800685E
:103CB00070470000DC000020F1B5FCF733FA054640
:103CC0000C480468204600F02AF804F14C006A46CB
:103CD0000021064600F0D6F8304600F02BF92846C1
:103CE000FCF724FAFFF7D0FC206B801C00D1206386
:103CF0000020F8BDDC00002010B534308178417020
:103D000001228A404260022100F83419FFF7B0FF17
:103D1000FFF7CCFF08B1FFF7B7FC002010BD70B56E
:103D2000044694F8340000F00F00012802D04FF050
:103D3000FF3070BDFCF7F6F9054694F8340020F02A
:103D40000F00801C84F834002046FFF7F3FC04F1D8
:103D50004C0000F059F92846FCF7E8F9002070BD46
:103D600010B504466FF00100206304F11400FFF762
:103D70004EFB2046FFF7B8FCBDE81040FFF784BCBF
:103D800070B5FCF7CFF906461348046894F8340080
:103D900000F00F0001281AD1D4E90501884216D09D
:103DA00004F114000546FFF732FB94F835000B4987
:103DB00001EBC00041680D604168696045602860A2
:103DC0003046FCF7B3F9FFF75FFC002070BD3046CA
:103DD000FCF7ACF9002070BDDC000020B40300202B
:103DE00001480068704700006800002010B50949CC
:103DF0000868401C0860FFF759FF816C491E816408
:103E000019B9416C8164FFF7BBFFBDE8104000F0B9
:103E100003B800006800002070B5FFF7E1FF064618
:103E2000FCF780F9054620E015480468143C6FF063
:103E30000041A06A301A88421CD22046FEF7B7FD26
:103E4000D4E907108847FFF7CBFF0646607A810761
:103E500008D5C10706D020F001006072204600F0AE
:103E600069F802E020F0010060720548FFF7BFFA30
:103E70000028D9D02846BDE87040FCF757B90000AB
:103E8000F0000020002909D0012904D0022908D01F
:103E900003290FD10AE0406A10600BE0116841620B
:103EA00008E0417A21F00201417203E0417A41F0D9
:103EB00002014172002070472DE9F8430E46089D2B
:103EC0001746984601460A20FFF74FFB04464CB1BF
:103ED00043463A46314620460095FEF755FD2046BA
:103EE000BDE8F8830020FBE770B50546FCF71AF93A
:103EF00004462846FEF75BFD2046FCF717F92846E6
:103F0000FFF770FB002070BD2DE9F8430746DDE99F
:103F1000088415461E460A460A213846FFF784FBE8
:103F200043463246294638460094FEF72DFDBDE84B
:103F3000F88300002DE9F8430446FCF7F3F8054642
:103F40002046FEF734FD607A20F0010060722846BA
:103F5000FCF7ECF8FFF744FF616A0844A062FCF745
:103F6000E1F80746DFF89CC0CDF800C000226E469D
:103F70000CEBC20045680DE00068A0EBC201A36A2B
:103F80004969994204D0C91A6FF00043994205D398
:103F900046F8220056F82200A842EDD12AB156F880
:103FA00022100831531C46F82310521C002ADFD07F
:103FB0001448001FD0F8008008F10108C0F8008004
:103FC00004F114010098FFF7FDF902250EE05FEA05
:103FD00088700DD1C5F1010004EBC001143156F811
:103FE0002000FFF7EFF94FEA98086D1C012DEED97C
:103FF000607A40F0010060723846FCF797F80020C4
:10400000BDE8F883F000002070B50446607AC00770
:104010000ED0FCF787F805462046FEF7C8FC284678
:10402000FCF784F8607A20F001006072002070BD17
:104030004FF0FF3070BD00002DE9FF4F83B0814687
:104040008B4609EB0B074C46A74203D24FF0FF37D4
:10405000C9F1FF3B4FF0200A12E1252804D0BC42F1
:1040600000D22070641C08E100250599491C0591C7
:1040700008782D2814D02B2815D0202816D02328D6
:1040800017D0302818D04FF0FF384646059A1278DE
:10409000303A0A2A13D205A800F037F906461AE08A
:1040A00045F01005E1E745F00405DEE745F00805B9
:1040B000DBE745F02005D8E745F00105D5E72A28DC
:1040C00009D1491C0591069840C80690002E02DAD5
:1040D000764245F01005059801782E2918D1401C2C
:1040E00005900178A1F130020A2A04D205A800F057
:1040F0000CF9804607E02A2905D1401C0590069856
:1041000050F8048B0690B8F1000F01DA4FF0000868
:104110000021059A1078682801D06C2802D1014648
:10412000521C05920A23059800786F2871D00CDC88
:10413000632820D004DC25286CD058280DD187E0D6
:10414000642801D0692808D186E0702863D07328DC
:104150002FD0752871D078287CD0BC4201D2252080
:104160002070641C05990878002868D0BC4200D2F1
:104170002070641C81E0E80605D507E0BC4201D24E
:1041800084F800A0641C761E002EF7DC069810F858
:10419000041B0690C8B2BC4200D22070641C04E02C
:1041A000BC4201D284F800A0641C761E002EF7DC0D
:1041B00063E0069808C8069003B943A31846FFF7C2
:1041C000B3FBB8F1000F02DD404500DD4046E906D3
:1041D00005D508E0BC4201D284F800A0641C314639
:1041E000761E8142F6DC002106E0BC4201D21A783C
:1041F0002270641C5B1C491C8142F6DB04E0BC425B
:1042000001D284F800A0641C3146761E8142F6DC9F
:1042100033E01BE014E0701C02D1082645F00105D4
:10422000CDE9006806980295102304C80690394627
:104230002046FEF79BFD04461FE00FE00AE02BE05E
:10424000BC4201D225202070641C16E0082305E042
:1042500045F04005102301E045F002056C291ED011
:10426000682920D0069804C80690CDE90068394630
:1042700020460295FEF77AFD04460598401C0590FD
:104280000598007800287FF4E8AEBBF1000F15D048
:10429000BC4211D2207011E0491E0591EDE706984D
:1042A00004C80690E1E7069830F8041B06908AB22D
:1042B000A807DAD512B2D8E707F8010C07B0A4EBCB
:1042C0000900BDE8F08F0000284E554C4C29000035
:1042D0000020704700207047002070470020704782
:1042E00010B5FBF71FFFFEF7A1FEFFF7C5FAFFF7BA
:1042F000BDFBFFF78DFBFEF7D3FDFFF7C3FBFFF719
:104300007BFCFFF79FFB002010BD10B5024600208C
:104310006FF02F0407E04B1C1360097800EB80005E
:1043200004EB4000084411680B78303B0A2BF2D3B1
:1043300010BD000001480068FFF749BA20000020C6
:1043400001480068FFF743BA1C0000200A00000083
:10435000320000006400000096000000C800000069
:10436000FA0000002C010000000001000200010022
:10437000030001000200010004000100020001002E
:10438000030001000200010005000100020001001D
:10439000030001000200010004000100020001000E
:1043A00003000100020001000600010002000100FC
:1043B00003000100020001000400010002000100EE
:1043C00003000100020001000500010002000100DD
:1043D00003000100020001000400010002000100CE
:1043E00003000100020001000700010002000100BB
:1043F00003000100020001000400010002000100AE
:10440000030001000200010005000100020001009C
:10441000030001000200010004000100020001008D
:10442000030001000200010006000100020001007B
:10443000030001000200010004000100020001006D
:10444000030001000200010005000100020001005C
:10445000030001000200010004000100020001004D
:1044600003000100020001003031323334353637A9
:104470003839616263646566003031323334353611
:10448000373839414243444546000000DD420008C8
:10449000D5420008D1420008D9420008BC440008B7
:1044A00000000020FC00000028200008B84500089B
:1044B000FC000020FC320000382000080000000052
:1044C00000000000000000000000000000000000EC
:1044D00000000000000000000000000000000000DC
:1044E000FFFF0000000000000000000002040608BA
:1044F000000000000102030401020304060708098A
:1045000000A24A04000000000000000001020304B1
:10451000060708090000000000000000000000007D
:10452000000000000000000000000000000000008B
:10453000000000000000000000000000000000007B
:1045400000000000010000008C0000208C00002012
:1045500080000000020000009C0000209C00002061
:104560002000000004000000AC000020AC0000208F
:104570002000000005000000BC000020BC0000205E
:10458000300000000A000000CC000020CC00002019
:104590002C000000000000000000000000000000EF
:1045A000000000000000000000000000000000000B
:0845B000000000000000000003
:04000005080000ED02
:00000001FF
